{
	"contracts/ERC-20.sol": {
		"ERC20": {
			"abi": [
				{
					"inputs": [
						{
							"internalType": "string",
							"name": "name_",
							"type": "string"
						},
						{
							"internalType": "string",
							"name": "symbol_",
							"type": "string"
						}
					],
					"stateMutability": "nonpayable",
					"type": "constructor"
				},
				{
					"anonymous": false,
					"inputs": [
						{
							"indexed": true,
							"internalType": "address",
							"name": "owner",
							"type": "address"
						},
						{
							"indexed": true,
							"internalType": "address",
							"name": "spender",
							"type": "address"
						},
						{
							"indexed": false,
							"internalType": "uint256",
							"name": "value",
							"type": "uint256"
						}
					],
					"name": "Approval",
					"type": "event"
				},
				{
					"anonymous": false,
					"inputs": [
						{
							"indexed": true,
							"internalType": "address",
							"name": "from",
							"type": "address"
						},
						{
							"indexed": true,
							"internalType": "address",
							"name": "to",
							"type": "address"
						},
						{
							"indexed": false,
							"internalType": "uint256",
							"name": "value",
							"type": "uint256"
						}
					],
					"name": "Transfer",
					"type": "event"
				},
				{
					"inputs": [
						{
							"internalType": "address",
							"name": "owner",
							"type": "address"
						},
						{
							"internalType": "address",
							"name": "spender",
							"type": "address"
						}
					],
					"name": "allowance",
					"outputs": [
						{
							"internalType": "uint256",
							"name": "",
							"type": "uint256"
						}
					],
					"stateMutability": "view",
					"type": "function"
				},
				{
					"inputs": [
						{
							"internalType": "address",
							"name": "spender",
							"type": "address"
						},
						{
							"internalType": "uint256",
							"name": "amount",
							"type": "uint256"
						}
					],
					"name": "approve",
					"outputs": [
						{
							"internalType": "bool",
							"name": "",
							"type": "bool"
						}
					],
					"stateMutability": "nonpayable",
					"type": "function"
				},
				{
					"inputs": [
						{
							"internalType": "address",
							"name": "account",
							"type": "address"
						}
					],
					"name": "balanceOf",
					"outputs": [
						{
							"internalType": "uint256",
							"name": "",
							"type": "uint256"
						}
					],
					"stateMutability": "view",
					"type": "function"
				},
				{
					"inputs": [],
					"name": "decimals",
					"outputs": [
						{
							"internalType": "uint8",
							"name": "",
							"type": "uint8"
						}
					],
					"stateMutability": "view",
					"type": "function"
				},
				{
					"inputs": [
						{
							"internalType": "address",
							"name": "spender",
							"type": "address"
						},
						{
							"internalType": "uint256",
							"name": "decreasedValue",
							"type": "uint256"
						}
					],
					"name": "decreaseAllowance",
					"outputs": [
						{
							"internalType": "bool",
							"name": "",
							"type": "bool"
						}
					],
					"stateMutability": "nonpayable",
					"type": "function"
				},
				{
					"inputs": [
						{
							"internalType": "address",
							"name": "spender",
							"type": "address"
						},
						{
							"internalType": "uint256",
							"name": "addedValue",
							"type": "uint256"
						}
					],
					"name": "icreaseAllowance",
					"outputs": [
						{
							"internalType": "bool",
							"name": "",
							"type": "bool"
						}
					],
					"stateMutability": "nonpayable",
					"type": "function"
				},
				{
					"inputs": [],
					"name": "name",
					"outputs": [
						{
							"internalType": "string",
							"name": "",
							"type": "string"
						}
					],
					"stateMutability": "view",
					"type": "function"
				},
				{
					"inputs": [],
					"name": "symbol",
					"outputs": [
						{
							"internalType": "string",
							"name": "",
							"type": "string"
						}
					],
					"stateMutability": "view",
					"type": "function"
				},
				{
					"inputs": [],
					"name": "totalSupply",
					"outputs": [
						{
							"internalType": "uint256",
							"name": "",
							"type": "uint256"
						}
					],
					"stateMutability": "view",
					"type": "function"
				},
				{
					"inputs": [
						{
							"internalType": "address",
							"name": "to",
							"type": "address"
						},
						{
							"internalType": "uint256",
							"name": "amount",
							"type": "uint256"
						}
					],
					"name": "transfer",
					"outputs": [
						{
							"internalType": "bool",
							"name": "",
							"type": "bool"
						}
					],
					"stateMutability": "nonpayable",
					"type": "function"
				},
				{
					"inputs": [
						{
							"internalType": "address",
							"name": "from",
							"type": "address"
						},
						{
							"internalType": "address",
							"name": "to",
							"type": "address"
						},
						{
							"internalType": "uint256",
							"name": "amount",
							"type": "uint256"
						}
					],
					"name": "transferFrom",
					"outputs": [
						{
							"internalType": "bool",
							"name": "",
							"type": "bool"
						}
					],
					"stateMutability": "nonpayable",
					"type": "function"
				}
			],
			"devdoc": {
				"kind": "dev",
				"methods": {},
				"version": 1
			},
			"evm": {
				"assembly": "    /* \"contracts/ERC-20.sol\":852:6174  contract ERC20 is IERC20 {... */\n  mstore(0x40, 0x80)\n    /* \"contracts/ERC-20.sol\":1107:1222  constructor(string memory name_, string memory symbol_){... */\n  callvalue\n  dup1\n  iszero\n  tag_1\n  jumpi\n  0x00\n  dup1\n  revert\ntag_1:\n  pop\n  mload(0x40)\n  sub(codesize, bytecodeSize)\n  dup1\n  bytecodeSize\n  dup4\n  codecopy\n  dup2\n  dup2\n  add\n  0x40\n  mstore\n  dup2\n  add\n  swap1\n  tag_2\n  swap2\n  swap1\n  tag_3\n  jump\t// in\ntag_2:\n    /* \"contracts/ERC-20.sol\":1181:1186  name_ */\n  dup2\n    /* \"contracts/ERC-20.sol\":1173:1178  _name */\n  0x03\n    /* \"contracts/ERC-20.sol\":1173:1186  _name = name_ */\n  swap1\n  dup2\n  tag_6\n  swap2\n  swap1\n  tag_7\n  jump\t// in\ntag_6:\n  pop\n    /* \"contracts/ERC-20.sol\":1207:1214  symbol_ */\n  dup1\n    /* \"contracts/ERC-20.sol\":1197:1204  _symbol */\n  0x04\n    /* \"contracts/ERC-20.sol\":1197:1214  _symbol = symbol_ */\n  swap1\n  dup2\n  tag_8\n  swap2\n  swap1\n  tag_7\n  jump\t// in\ntag_8:\n  pop\n    /* \"contracts/ERC-20.sol\":1107:1222  constructor(string memory name_, string memory symbol_){... */\n  pop\n  pop\n    /* \"contracts/ERC-20.sol\":852:6174  contract ERC20 is IERC20 {... */\n  jump(tag_9)\n    /* \"#utility.yul\":7:82   */\ntag_10:\n    /* \"#utility.yul\":40:46   */\n  0x00\n    /* \"#utility.yul\":73:75   */\n  0x40\n    /* \"#utility.yul\":67:76   */\n  mload\n    /* \"#utility.yul\":57:76   */\n  swap1\n  pop\n    /* \"#utility.yul\":7:82   */\n  swap1\n  jump\t// out\n    /* \"#utility.yul\":88:205   */\ntag_11:\n    /* \"#utility.yul\":197:198   */\n  0x00\n    /* \"#utility.yul\":194:195   */\n  dup1\n    /* \"#utility.yul\":187:199   */\n  revert\n    /* \"#utility.yul\":211:328   */\ntag_12:\n    /* \"#utility.yul\":320:321   */\n  0x00\n    /* \"#utility.yul\":317:318   */\n  dup1\n    /* \"#utility.yul\":310:322   */\n  revert\n    /* \"#utility.yul\":334:451   */\ntag_13:\n    /* \"#utility.yul\":443:444   */\n  0x00\n    /* \"#utility.yul\":440:441   */\n  dup1\n    /* \"#utility.yul\":433:445   */\n  revert\n    /* \"#utility.yul\":457:574   */\ntag_14:\n    /* \"#utility.yul\":566:567   */\n  0x00\n    /* \"#utility.yul\":563:564   */\n  dup1\n    /* \"#utility.yul\":556:568   */\n  revert\n    /* \"#utility.yul\":580:682   */\ntag_15:\n    /* \"#utility.yul\":621:627   */\n  0x00\n    /* \"#utility.yul\":672:674   */\n  0x1f\n    /* \"#utility.yul\":668:675   */\n  not\n    /* \"#utility.yul\":663:665   */\n  0x1f\n    /* \"#utility.yul\":656:661   */\n  dup4\n    /* \"#utility.yul\":652:666   */\n  add\n    /* \"#utility.yul\":648:676   */\n  and\n    /* \"#utility.yul\":638:676   */\n  swap1\n  pop\n    /* \"#utility.yul\":580:682   */\n  swap2\n  swap1\n  pop\n  jump\t// out\n    /* \"#utility.yul\":688:868   */\ntag_16:\n    /* \"#utility.yul\":736:813   */\n  0x4e487b7100000000000000000000000000000000000000000000000000000000\n    /* \"#utility.yul\":733:734   */\n  0x00\n    /* \"#utility.yul\":726:814   */\n  mstore\n    /* \"#utility.yul\":833:837   */\n  0x41\n    /* \"#utility.yul\":830:831   */\n  0x04\n    /* \"#utility.yul\":823:838   */\n  mstore\n    /* \"#utility.yul\":857:861   */\n  0x24\n    /* \"#utility.yul\":854:855   */\n  0x00\n    /* \"#utility.yul\":847:862   */\n  revert\n    /* \"#utility.yul\":874:1155   */\ntag_17:\n    /* \"#utility.yul\":957:984   */\n  tag_51\n    /* \"#utility.yul\":979:983   */\n  dup3\n    /* \"#utility.yul\":957:984   */\n  tag_15\n  jump\t// in\ntag_51:\n    /* \"#utility.yul\":949:955   */\n  dup2\n    /* \"#utility.yul\":945:985   */\n  add\n    /* \"#utility.yul\":1087:1093   */\n  dup2\n    /* \"#utility.yul\":1075:1085   */\n  dup2\n    /* \"#utility.yul\":1072:1094   */\n  lt\n    /* \"#utility.yul\":1051:1069   */\n  0xffffffffffffffff\n    /* \"#utility.yul\":1039:1049   */\n  dup3\n    /* \"#utility.yul\":1036:1070   */\n  gt\n    /* \"#utility.yul\":1033:1095   */\n  or\n    /* \"#utility.yul\":1030:1118   */\n  iszero\n  tag_52\n  jumpi\n    /* \"#utility.yul\":1098:1116   */\n  tag_53\n  tag_16\n  jump\t// in\ntag_53:\n    /* \"#utility.yul\":1030:1118   */\ntag_52:\n    /* \"#utility.yul\":1138:1148   */\n  dup1\n    /* \"#utility.yul\":1134:1136   */\n  0x40\n    /* \"#utility.yul\":1127:1149   */\n  mstore\n    /* \"#utility.yul\":917:1155   */\n  pop\n    /* \"#utility.yul\":874:1155   */\n  pop\n  pop\n  jump\t// out\n    /* \"#utility.yul\":1161:1290   */\ntag_18:\n    /* \"#utility.yul\":1195:1201   */\n  0x00\n    /* \"#utility.yul\":1222:1242   */\n  tag_55\n  tag_10\n  jump\t// in\ntag_55:\n    /* \"#utility.yul\":1212:1242   */\n  swap1\n  pop\n    /* \"#utility.yul\":1251:1284   */\n  tag_56\n    /* \"#utility.yul\":1279:1283   */\n  dup3\n    /* \"#utility.yul\":1271:1277   */\n  dup3\n    /* \"#utility.yul\":1251:1284   */\n  tag_17\n  jump\t// in\ntag_56:\n    /* \"#utility.yul\":1161:1290   */\n  swap2\n  swap1\n  pop\n  jump\t// out\n    /* \"#utility.yul\":1296:1604   */\ntag_19:\n    /* \"#utility.yul\":1358:1362   */\n  0x00\n    /* \"#utility.yul\":1448:1466   */\n  0xffffffffffffffff\n    /* \"#utility.yul\":1440:1446   */\n  dup3\n    /* \"#utility.yul\":1437:1467   */\n  gt\n    /* \"#utility.yul\":1434:1490   */\n  iszero\n  tag_58\n  jumpi\n    /* \"#utility.yul\":1470:1488   */\n  tag_59\n  tag_16\n  jump\t// in\ntag_59:\n    /* \"#utility.yul\":1434:1490   */\ntag_58:\n    /* \"#utility.yul\":1508:1537   */\n  tag_60\n    /* \"#utility.yul\":1530:1536   */\n  dup3\n    /* \"#utility.yul\":1508:1537   */\n  tag_15\n  jump\t// in\ntag_60:\n    /* \"#utility.yul\":1500:1537   */\n  swap1\n  pop\n    /* \"#utility.yul\":1592:1596   */\n  0x20\n    /* \"#utility.yul\":1586:1590   */\n  dup2\n    /* \"#utility.yul\":1582:1597   */\n  add\n    /* \"#utility.yul\":1574:1597   */\n  swap1\n  pop\n    /* \"#utility.yul\":1296:1604   */\n  swap2\n  swap1\n  pop\n  jump\t// out\n    /* \"#utility.yul\":1610:1856   */\ntag_20:\n    /* \"#utility.yul\":1691:1692   */\n  0x00\n    /* \"#utility.yul\":1701:1814   */\ntag_62:\n    /* \"#utility.yul\":1715:1721   */\n  dup4\n    /* \"#utility.yul\":1712:1713   */\n  dup2\n    /* \"#utility.yul\":1709:1722   */\n  lt\n    /* \"#utility.yul\":1701:1814   */\n  iszero\n  tag_64\n  jumpi\n    /* \"#utility.yul\":1800:1801   */\n  dup1\n    /* \"#utility.yul\":1795:1798   */\n  dup3\n    /* \"#utility.yul\":1791:1802   */\n  add\n    /* \"#utility.yul\":1785:1803   */\n  mload\n    /* \"#utility.yul\":1781:1782   */\n  dup2\n    /* \"#utility.yul\":1776:1779   */\n  dup5\n    /* \"#utility.yul\":1772:1783   */\n  add\n    /* \"#utility.yul\":1765:1804   */\n  mstore\n    /* \"#utility.yul\":1737:1739   */\n  0x20\n    /* \"#utility.yul\":1734:1735   */\n  dup2\n    /* \"#utility.yul\":1730:1740   */\n  add\n    /* \"#utility.yul\":1725:1740   */\n  swap1\n  pop\n    /* \"#utility.yul\":1701:1814   */\n  jump(tag_62)\ntag_64:\n    /* \"#utility.yul\":1848:1849   */\n  0x00\n    /* \"#utility.yul\":1839:1845   */\n  dup5\n    /* \"#utility.yul\":1834:1837   */\n  dup5\n    /* \"#utility.yul\":1830:1846   */\n  add\n    /* \"#utility.yul\":1823:1850   */\n  mstore\n    /* \"#utility.yul\":1672:1856   */\n  pop\n    /* \"#utility.yul\":1610:1856   */\n  pop\n  pop\n  pop\n  jump\t// out\n    /* \"#utility.yul\":1862:2296   */\ntag_21:\n    /* \"#utility.yul\":1951:1956   */\n  0x00\n    /* \"#utility.yul\":1976:2042   */\n  tag_66\n    /* \"#utility.yul\":1992:2041   */\n  tag_67\n    /* \"#utility.yul\":2034:2040   */\n  dup5\n    /* \"#utility.yul\":1992:2041   */\n  tag_19\n  jump\t// in\ntag_67:\n    /* \"#utility.yul\":1976:2042   */\n  tag_18\n  jump\t// in\ntag_66:\n    /* \"#utility.yul\":1967:2042   */\n  swap1\n  pop\n    /* \"#utility.yul\":2065:2071   */\n  dup3\n    /* \"#utility.yul\":2058:2063   */\n  dup2\n    /* \"#utility.yul\":2051:2072   */\n  mstore\n    /* \"#utility.yul\":2103:2107   */\n  0x20\n    /* \"#utility.yul\":2096:2101   */\n  dup2\n    /* \"#utility.yul\":2092:2108   */\n  add\n    /* \"#utility.yul\":2141:2144   */\n  dup5\n    /* \"#utility.yul\":2132:2138   */\n  dup5\n    /* \"#utility.yul\":2127:2130   */\n  dup5\n    /* \"#utility.yul\":2123:2139   */\n  add\n    /* \"#utility.yul\":2120:2145   */\n  gt\n    /* \"#utility.yul\":2117:2229   */\n  iszero\n  tag_68\n  jumpi\n    /* \"#utility.yul\":2148:2227   */\n  tag_69\n  tag_14\n  jump\t// in\ntag_69:\n    /* \"#utility.yul\":2117:2229   */\ntag_68:\n    /* \"#utility.yul\":2238:2290   */\n  tag_70\n    /* \"#utility.yul\":2283:2289   */\n  dup5\n    /* \"#utility.yul\":2278:2281   */\n  dup3\n    /* \"#utility.yul\":2273:2276   */\n  dup6\n    /* \"#utility.yul\":2238:2290   */\n  tag_20\n  jump\t// in\ntag_70:\n    /* \"#utility.yul\":1957:2296   */\n  pop\n    /* \"#utility.yul\":1862:2296   */\n  swap4\n  swap3\n  pop\n  pop\n  pop\n  jump\t// out\n    /* \"#utility.yul\":2316:2671   */\ntag_22:\n    /* \"#utility.yul\":2383:2388   */\n  0x00\n    /* \"#utility.yul\":2432:2435   */\n  dup3\n    /* \"#utility.yul\":2425:2429   */\n  0x1f\n    /* \"#utility.yul\":2417:2423   */\n  dup4\n    /* \"#utility.yul\":2413:2430   */\n  add\n    /* \"#utility.yul\":2409:2436   */\n  slt\n    /* \"#utility.yul\":2399:2521   */\n  tag_72\n  jumpi\n    /* \"#utility.yul\":2440:2519   */\n  tag_73\n  tag_13\n  jump\t// in\ntag_73:\n    /* \"#utility.yul\":2399:2521   */\ntag_72:\n    /* \"#utility.yul\":2550:2556   */\n  dup2\n    /* \"#utility.yul\":2544:2557   */\n  mload\n    /* \"#utility.yul\":2575:2665   */\n  tag_74\n    /* \"#utility.yul\":2661:2664   */\n  dup5\n    /* \"#utility.yul\":2653:2659   */\n  dup3\n    /* \"#utility.yul\":2646:2650   */\n  0x20\n    /* \"#utility.yul\":2638:2644   */\n  dup7\n    /* \"#utility.yul\":2634:2651   */\n  add\n    /* \"#utility.yul\":2575:2665   */\n  tag_21\n  jump\t// in\ntag_74:\n    /* \"#utility.yul\":2566:2665   */\n  swap2\n  pop\n    /* \"#utility.yul\":2389:2671   */\n  pop\n    /* \"#utility.yul\":2316:2671   */\n  swap3\n  swap2\n  pop\n  pop\n  jump\t// out\n    /* \"#utility.yul\":2677:3530   */\ntag_3:\n    /* \"#utility.yul\":2776:2782   */\n  0x00\n    /* \"#utility.yul\":2784:2790   */\n  dup1\n    /* \"#utility.yul\":2833:2835   */\n  0x40\n    /* \"#utility.yul\":2821:2830   */\n  dup4\n    /* \"#utility.yul\":2812:2819   */\n  dup6\n    /* \"#utility.yul\":2808:2831   */\n  sub\n    /* \"#utility.yul\":2804:2836   */\n  slt\n    /* \"#utility.yul\":2801:2920   */\n  iszero\n  tag_76\n  jumpi\n    /* \"#utility.yul\":2839:2918   */\n  tag_77\n  tag_11\n  jump\t// in\ntag_77:\n    /* \"#utility.yul\":2801:2920   */\ntag_76:\n    /* \"#utility.yul\":2980:2981   */\n  0x00\n    /* \"#utility.yul\":2969:2978   */\n  dup4\n    /* \"#utility.yul\":2965:2982   */\n  add\n    /* \"#utility.yul\":2959:2983   */\n  mload\n    /* \"#utility.yul\":3010:3028   */\n  0xffffffffffffffff\n    /* \"#utility.yul\":3002:3008   */\n  dup2\n    /* \"#utility.yul\":2999:3029   */\n  gt\n    /* \"#utility.yul\":2996:3113   */\n  iszero\n  tag_78\n  jumpi\n    /* \"#utility.yul\":3032:3111   */\n  tag_79\n  tag_12\n  jump\t// in\ntag_79:\n    /* \"#utility.yul\":2996:3113   */\ntag_78:\n    /* \"#utility.yul\":3137:3211   */\n  tag_80\n    /* \"#utility.yul\":3203:3210   */\n  dup6\n    /* \"#utility.yul\":3194:3200   */\n  dup3\n    /* \"#utility.yul\":3183:3192   */\n  dup7\n    /* \"#utility.yul\":3179:3201   */\n  add\n    /* \"#utility.yul\":3137:3211   */\n  tag_22\n  jump\t// in\ntag_80:\n    /* \"#utility.yul\":3127:3211   */\n  swap3\n  pop\n    /* \"#utility.yul\":2930:3221   */\n  pop\n    /* \"#utility.yul\":3281:3283   */\n  0x20\n    /* \"#utility.yul\":3270:3279   */\n  dup4\n    /* \"#utility.yul\":3266:3284   */\n  add\n    /* \"#utility.yul\":3260:3285   */\n  mload\n    /* \"#utility.yul\":3312:3330   */\n  0xffffffffffffffff\n    /* \"#utility.yul\":3304:3310   */\n  dup2\n    /* \"#utility.yul\":3301:3331   */\n  gt\n    /* \"#utility.yul\":3298:3415   */\n  iszero\n  tag_81\n  jumpi\n    /* \"#utility.yul\":3334:3413   */\n  tag_82\n  tag_12\n  jump\t// in\ntag_82:\n    /* \"#utility.yul\":3298:3415   */\ntag_81:\n    /* \"#utility.yul\":3439:3513   */\n  tag_83\n    /* \"#utility.yul\":3505:3512   */\n  dup6\n    /* \"#utility.yul\":3496:3502   */\n  dup3\n    /* \"#utility.yul\":3485:3494   */\n  dup7\n    /* \"#utility.yul\":3481:3503   */\n  add\n    /* \"#utility.yul\":3439:3513   */\n  tag_22\n  jump\t// in\ntag_83:\n    /* \"#utility.yul\":3429:3513   */\n  swap2\n  pop\n    /* \"#utility.yul\":3231:3523   */\n  pop\n    /* \"#utility.yul\":2677:3530   */\n  swap3\n  pop\n  swap3\n  swap1\n  pop\n  jump\t// out\n    /* \"#utility.yul\":3536:3635   */\ntag_23:\n    /* \"#utility.yul\":3588:3594   */\n  0x00\n    /* \"#utility.yul\":3622:3627   */\n  dup2\n    /* \"#utility.yul\":3616:3628   */\n  mload\n    /* \"#utility.yul\":3606:3628   */\n  swap1\n  pop\n    /* \"#utility.yul\":3536:3635   */\n  swap2\n  swap1\n  pop\n  jump\t// out\n    /* \"#utility.yul\":3641:3821   */\ntag_24:\n    /* \"#utility.yul\":3689:3766   */\n  0x4e487b7100000000000000000000000000000000000000000000000000000000\n    /* \"#utility.yul\":3686:3687   */\n  0x00\n    /* \"#utility.yul\":3679:3767   */\n  mstore\n    /* \"#utility.yul\":3786:3790   */\n  0x22\n    /* \"#utility.yul\":3783:3784   */\n  0x04\n    /* \"#utility.yul\":3776:3791   */\n  mstore\n    /* \"#utility.yul\":3810:3814   */\n  0x24\n    /* \"#utility.yul\":3807:3808   */\n  0x00\n    /* \"#utility.yul\":3800:3815   */\n  revert\n    /* \"#utility.yul\":3827:4147   */\ntag_25:\n    /* \"#utility.yul\":3871:3877   */\n  0x00\n    /* \"#utility.yul\":3908:3909   */\n  0x02\n    /* \"#utility.yul\":3902:3906   */\n  dup3\n    /* \"#utility.yul\":3898:3910   */\n  div\n    /* \"#utility.yul\":3888:3910   */\n  swap1\n  pop\n    /* \"#utility.yul\":3955:3956   */\n  0x01\n    /* \"#utility.yul\":3949:3953   */\n  dup3\n    /* \"#utility.yul\":3945:3957   */\n  and\n    /* \"#utility.yul\":3976:3994   */\n  dup1\n    /* \"#utility.yul\":3966:4047   */\n  tag_87\n  jumpi\n    /* \"#utility.yul\":4032:4036   */\n  0x7f\n    /* \"#utility.yul\":4024:4030   */\n  dup3\n    /* \"#utility.yul\":4020:4037   */\n  and\n    /* \"#utility.yul\":4010:4037   */\n  swap2\n  pop\n    /* \"#utility.yul\":3966:4047   */\ntag_87:\n    /* \"#utility.yul\":4094:4096   */\n  0x20\n    /* \"#utility.yul\":4086:4092   */\n  dup3\n    /* \"#utility.yul\":4083:4097   */\n  lt\n    /* \"#utility.yul\":4063:4081   */\n  dup2\n    /* \"#utility.yul\":4060:4098   */\n  sub\n    /* \"#utility.yul\":4057:4141   */\n  tag_88\n  jumpi\n    /* \"#utility.yul\":4113:4131   */\n  tag_89\n  tag_24\n  jump\t// in\ntag_89:\n    /* \"#utility.yul\":4057:4141   */\ntag_88:\n    /* \"#utility.yul\":3878:4147   */\n  pop\n    /* \"#utility.yul\":3827:4147   */\n  swap2\n  swap1\n  pop\n  jump\t// out\n    /* \"#utility.yul\":4153:4294   */\ntag_26:\n    /* \"#utility.yul\":4202:4206   */\n  0x00\n    /* \"#utility.yul\":4225:4228   */\n  dup2\n    /* \"#utility.yul\":4217:4228   */\n  swap1\n  pop\n    /* \"#utility.yul\":4248:4251   */\n  dup2\n    /* \"#utility.yul\":4245:4246   */\n  0x00\n    /* \"#utility.yul\":4238:4252   */\n  mstore\n    /* \"#utility.yul\":4282:4286   */\n  0x20\n    /* \"#utility.yul\":4279:4280   */\n  0x00\n    /* \"#utility.yul\":4269:4287   */\n  keccak256\n    /* \"#utility.yul\":4261:4287   */\n  swap1\n  pop\n    /* \"#utility.yul\":4153:4294   */\n  swap2\n  swap1\n  pop\n  jump\t// out\n    /* \"#utility.yul\":4300:4393   */\ntag_27:\n    /* \"#utility.yul\":4337:4343   */\n  0x00\n    /* \"#utility.yul\":4384:4386   */\n  0x20\n    /* \"#utility.yul\":4379:4381   */\n  0x1f\n    /* \"#utility.yul\":4372:4377   */\n  dup4\n    /* \"#utility.yul\":4368:4382   */\n  add\n    /* \"#utility.yul\":4364:4387   */\n  div\n    /* \"#utility.yul\":4354:4387   */\n  swap1\n  pop\n    /* \"#utility.yul\":4300:4393   */\n  swap2\n  swap1\n  pop\n  jump\t// out\n    /* \"#utility.yul\":4399:4506   */\ntag_28:\n    /* \"#utility.yul\":4443:4451   */\n  0x00\n    /* \"#utility.yul\":4493:4498   */\n  dup3\n    /* \"#utility.yul\":4487:4491   */\n  dup3\n    /* \"#utility.yul\":4483:4499   */\n  shl\n    /* \"#utility.yul\":4462:4499   */\n  swap1\n  pop\n    /* \"#utility.yul\":4399:4506   */\n  swap3\n  swap2\n  pop\n  pop\n  jump\t// out\n    /* \"#utility.yul\":4512:4905   */\ntag_29:\n    /* \"#utility.yul\":4581:4587   */\n  0x00\n    /* \"#utility.yul\":4631:4632   */\n  0x08\n    /* \"#utility.yul\":4619:4629   */\n  dup4\n    /* \"#utility.yul\":4615:4633   */\n  mul\n    /* \"#utility.yul\":4654:4751   */\n  tag_94\n    /* \"#utility.yul\":4684:4750   */\n  0xffffffffffffffffffffffffffffffffffffffffffffffffffffffffffffffff\n    /* \"#utility.yul\":4673:4682   */\n  dup3\n    /* \"#utility.yul\":4654:4751   */\n  tag_28\n  jump\t// in\ntag_94:\n    /* \"#utility.yul\":4772:4811   */\n  tag_95\n    /* \"#utility.yul\":4802:4810   */\n  dup7\n    /* \"#utility.yul\":4791:4800   */\n  dup4\n    /* \"#utility.yul\":4772:4811   */\n  tag_28\n  jump\t// in\ntag_95:\n    /* \"#utility.yul\":4760:4811   */\n  swap6\n  pop\n    /* \"#utility.yul\":4844:4848   */\n  dup1\n    /* \"#utility.yul\":4840:4849   */\n  not\n    /* \"#utility.yul\":4833:4838   */\n  dup5\n    /* \"#utility.yul\":4829:4850   */\n  and\n    /* \"#utility.yul\":4820:4850   */\n  swap4\n  pop\n    /* \"#utility.yul\":4893:4897   */\n  dup1\n    /* \"#utility.yul\":4883:4891   */\n  dup7\n    /* \"#utility.yul\":4879:4898   */\n  and\n    /* \"#utility.yul\":4872:4877   */\n  dup5\n    /* \"#utility.yul\":4869:4899   */\n  or\n    /* \"#utility.yul\":4859:4899   */\n  swap3\n  pop\n    /* \"#utility.yul\":4588:4905   */\n  pop\n  pop\n    /* \"#utility.yul\":4512:4905   */\n  swap4\n  swap3\n  pop\n  pop\n  pop\n  jump\t// out\n    /* \"#utility.yul\":4911:4988   */\ntag_30:\n    /* \"#utility.yul\":4948:4955   */\n  0x00\n    /* \"#utility.yul\":4977:4982   */\n  dup2\n    /* \"#utility.yul\":4966:4982   */\n  swap1\n  pop\n    /* \"#utility.yul\":4911:4988   */\n  swap2\n  swap1\n  pop\n  jump\t// out\n    /* \"#utility.yul\":4994:5054   */\ntag_31:\n    /* \"#utility.yul\":5022:5025   */\n  0x00\n    /* \"#utility.yul\":5043:5048   */\n  dup2\n    /* \"#utility.yul\":5036:5048   */\n  swap1\n  pop\n    /* \"#utility.yul\":4994:5054   */\n  swap2\n  swap1\n  pop\n  jump\t// out\n    /* \"#utility.yul\":5060:5202   */\ntag_32:\n    /* \"#utility.yul\":5110:5119   */\n  0x00\n    /* \"#utility.yul\":5143:5196   */\n  tag_99\n    /* \"#utility.yul\":5161:5195   */\n  tag_100\n    /* \"#utility.yul\":5170:5194   */\n  tag_101\n    /* \"#utility.yul\":5188:5193   */\n  dup5\n    /* \"#utility.yul\":5170:5194   */\n  tag_30\n  jump\t// in\ntag_101:\n    /* \"#utility.yul\":5161:5195   */\n  tag_31\n  jump\t// in\ntag_100:\n    /* \"#utility.yul\":5143:5196   */\n  tag_30\n  jump\t// in\ntag_99:\n    /* \"#utility.yul\":5130:5196   */\n  swap1\n  pop\n    /* \"#utility.yul\":5060:5202   */\n  swap2\n  swap1\n  pop\n  jump\t// out\n    /* \"#utility.yul\":5208:5283   */\ntag_33:\n    /* \"#utility.yul\":5251:5254   */\n  0x00\n    /* \"#utility.yul\":5272:5277   */\n  dup2\n    /* \"#utility.yul\":5265:5277   */\n  swap1\n  pop\n    /* \"#utility.yul\":5208:5283   */\n  swap2\n  swap1\n  pop\n  jump\t// out\n    /* \"#utility.yul\":5289:5558   */\ntag_34:\n    /* \"#utility.yul\":5399:5438   */\n  tag_104\n    /* \"#utility.yul\":5430:5437   */\n  dup4\n    /* \"#utility.yul\":5399:5438   */\n  tag_32\n  jump\t// in\ntag_104:\n    /* \"#utility.yul\":5460:5551   */\n  tag_105\n    /* \"#utility.yul\":5509:5550   */\n  tag_106\n    /* \"#utility.yul\":5533:5549   */\n  dup3\n    /* \"#utility.yul\":5509:5550   */\n  tag_33\n  jump\t// in\ntag_106:\n    /* \"#utility.yul\":5501:5507   */\n  dup5\n    /* \"#utility.yul\":5494:5498   */\n  dup5\n    /* \"#utility.yul\":5488:5499   */\n  sload\n    /* \"#utility.yul\":5460:5551   */\n  tag_29\n  jump\t// in\ntag_105:\n    /* \"#utility.yul\":5454:5458   */\n  dup3\n    /* \"#utility.yul\":5447:5552   */\n  sstore\n    /* \"#utility.yul\":5365:5558   */\n  pop\n    /* \"#utility.yul\":5289:5558   */\n  pop\n  pop\n  pop\n  jump\t// out\n    /* \"#utility.yul\":5564:5637   */\ntag_35:\n    /* \"#utility.yul\":5609:5612   */\n  0x00\n    /* \"#utility.yul\":5564:5637   */\n  swap1\n  jump\t// out\n    /* \"#utility.yul\":5643:5832   */\ntag_36:\n    /* \"#utility.yul\":5720:5752   */\n  tag_109\n  tag_35\n  jump\t// in\ntag_109:\n    /* \"#utility.yul\":5761:5826   */\n  tag_110\n    /* \"#utility.yul\":5819:5825   */\n  dup2\n    /* \"#utility.yul\":5811:5817   */\n  dup5\n    /* \"#utility.yul\":5805:5809   */\n  dup5\n    /* \"#utility.yul\":5761:5826   */\n  tag_34\n  jump\t// in\ntag_110:\n    /* \"#utility.yul\":5696:5832   */\n  pop\n    /* \"#utility.yul\":5643:5832   */\n  pop\n  pop\n  jump\t// out\n    /* \"#utility.yul\":5838:6024   */\ntag_37:\n    /* \"#utility.yul\":5898:6018   */\ntag_112:\n    /* \"#utility.yul\":5915:5918   */\n  dup2\n    /* \"#utility.yul\":5908:5913   */\n  dup2\n    /* \"#utility.yul\":5905:5919   */\n  lt\n    /* \"#utility.yul\":5898:6018   */\n  iszero\n  tag_114\n  jumpi\n    /* \"#utility.yul\":5969:6008   */\n  tag_115\n    /* \"#utility.yul\":6006:6007   */\n  0x00\n    /* \"#utility.yul\":5999:6004   */\n  dup3\n    /* \"#utility.yul\":5969:6008   */\n  tag_36\n  jump\t// in\ntag_115:\n    /* \"#utility.yul\":5942:5943   */\n  0x01\n    /* \"#utility.yul\":5935:5940   */\n  dup2\n    /* \"#utility.yul\":5931:5944   */\n  add\n    /* \"#utility.yul\":5922:5944   */\n  swap1\n  pop\n    /* \"#utility.yul\":5898:6018   */\n  jump(tag_112)\ntag_114:\n    /* \"#utility.yul\":5838:6024   */\n  pop\n  pop\n  jump\t// out\n    /* \"#utility.yul\":6030:6573   */\ntag_38:\n    /* \"#utility.yul\":6131:6133   */\n  0x1f\n    /* \"#utility.yul\":6126:6129   */\n  dup3\n    /* \"#utility.yul\":6123:6134   */\n  gt\n    /* \"#utility.yul\":6120:6566   */\n  iszero\n  tag_117\n  jumpi\n    /* \"#utility.yul\":6165:6203   */\n  tag_118\n    /* \"#utility.yul\":6197:6202   */\n  dup2\n    /* \"#utility.yul\":6165:6203   */\n  tag_26\n  jump\t// in\ntag_118:\n    /* \"#utility.yul\":6249:6278   */\n  tag_119\n    /* \"#utility.yul\":6267:6277   */\n  dup5\n    /* \"#utility.yul\":6249:6278   */\n  tag_27\n  jump\t// in\ntag_119:\n    /* \"#utility.yul\":6239:6247   */\n  dup2\n    /* \"#utility.yul\":6235:6279   */\n  add\n    /* \"#utility.yul\":6432:6434   */\n  0x20\n    /* \"#utility.yul\":6420:6430   */\n  dup6\n    /* \"#utility.yul\":6417:6435   */\n  lt\n    /* \"#utility.yul\":6414:6463   */\n  iszero\n  tag_120\n  jumpi\n    /* \"#utility.yul\":6453:6461   */\n  dup2\n    /* \"#utility.yul\":6438:6461   */\n  swap1\n  pop\n    /* \"#utility.yul\":6414:6463   */\ntag_120:\n    /* \"#utility.yul\":6476:6556   */\n  tag_121\n    /* \"#utility.yul\":6532:6554   */\n  tag_122\n    /* \"#utility.yul\":6550:6553   */\n  dup6\n    /* \"#utility.yul\":6532:6554   */\n  tag_27\n  jump\t// in\ntag_122:\n    /* \"#utility.yul\":6522:6530   */\n  dup4\n    /* \"#utility.yul\":6518:6555   */\n  add\n    /* \"#utility.yul\":6505:6516   */\n  dup3\n    /* \"#utility.yul\":6476:6556   */\n  tag_37\n  jump\t// in\ntag_121:\n    /* \"#utility.yul\":6135:6566   */\n  pop\n  pop\n    /* \"#utility.yul\":6120:6566   */\ntag_117:\n    /* \"#utility.yul\":6030:6573   */\n  pop\n  pop\n  pop\n  jump\t// out\n    /* \"#utility.yul\":6579:6696   */\ntag_39:\n    /* \"#utility.yul\":6633:6641   */\n  0x00\n    /* \"#utility.yul\":6683:6688   */\n  dup3\n    /* \"#utility.yul\":6677:6681   */\n  dup3\n    /* \"#utility.yul\":6673:6689   */\n  shr\n    /* \"#utility.yul\":6652:6689   */\n  swap1\n  pop\n    /* \"#utility.yul\":6579:6696   */\n  swap3\n  swap2\n  pop\n  pop\n  jump\t// out\n    /* \"#utility.yul\":6702:6871   */\ntag_40:\n    /* \"#utility.yul\":6746:6752   */\n  0x00\n    /* \"#utility.yul\":6779:6830   */\n  tag_125\n    /* \"#utility.yul\":6827:6828   */\n  0x00\n    /* \"#utility.yul\":6823:6829   */\n  not\n    /* \"#utility.yul\":6815:6820   */\n  dup5\n    /* \"#utility.yul\":6812:6813   */\n  0x08\n    /* \"#utility.yul\":6808:6821   */\n  mul\n    /* \"#utility.yul\":6779:6830   */\n  tag_39\n  jump\t// in\ntag_125:\n    /* \"#utility.yul\":6775:6831   */\n  not\n    /* \"#utility.yul\":6860:6864   */\n  dup1\n    /* \"#utility.yul\":6854:6858   */\n  dup4\n    /* \"#utility.yul\":6850:6865   */\n  and\n    /* \"#utility.yul\":6840:6865   */\n  swap2\n  pop\n    /* \"#utility.yul\":6753:6871   */\n  pop\n    /* \"#utility.yul\":6702:6871   */\n  swap3\n  swap2\n  pop\n  pop\n  jump\t// out\n    /* \"#utility.yul\":6876:7171   */\ntag_41:\n    /* \"#utility.yul\":6952:6956   */\n  0x00\n    /* \"#utility.yul\":7098:7127   */\n  tag_127\n    /* \"#utility.yul\":7123:7126   */\n  dup4\n    /* \"#utility.yul\":7117:7121   */\n  dup4\n    /* \"#utility.yul\":7098:7127   */\n  tag_40\n  jump\t// in\ntag_127:\n    /* \"#utility.yul\":7090:7127   */\n  swap2\n  pop\n    /* \"#utility.yul\":7160:7163   */\n  dup3\n    /* \"#utility.yul\":7157:7158   */\n  0x02\n    /* \"#utility.yul\":7153:7164   */\n  mul\n    /* \"#utility.yul\":7147:7151   */\n  dup3\n    /* \"#utility.yul\":7144:7165   */\n  or\n    /* \"#utility.yul\":7136:7165   */\n  swap1\n  pop\n    /* \"#utility.yul\":6876:7171   */\n  swap3\n  swap2\n  pop\n  pop\n  jump\t// out\n    /* \"#utility.yul\":7176:8571   */\ntag_7:\n    /* \"#utility.yul\":7293:7330   */\n  tag_129\n    /* \"#utility.yul\":7326:7329   */\n  dup3\n    /* \"#utility.yul\":7293:7330   */\n  tag_23\n  jump\t// in\ntag_129:\n    /* \"#utility.yul\":7395:7413   */\n  0xffffffffffffffff\n    /* \"#utility.yul\":7387:7393   */\n  dup2\n    /* \"#utility.yul\":7384:7414   */\n  gt\n    /* \"#utility.yul\":7381:7437   */\n  iszero\n  tag_130\n  jumpi\n    /* \"#utility.yul\":7417:7435   */\n  tag_131\n  tag_16\n  jump\t// in\ntag_131:\n    /* \"#utility.yul\":7381:7437   */\ntag_130:\n    /* \"#utility.yul\":7461:7499   */\n  tag_132\n    /* \"#utility.yul\":7493:7497   */\n  dup3\n    /* \"#utility.yul\":7487:7498   */\n  sload\n    /* \"#utility.yul\":7461:7499   */\n  tag_25\n  jump\t// in\ntag_132:\n    /* \"#utility.yul\":7546:7613   */\n  tag_133\n    /* \"#utility.yul\":7606:7612   */\n  dup3\n    /* \"#utility.yul\":7598:7604   */\n  dup3\n    /* \"#utility.yul\":7592:7596   */\n  dup6\n    /* \"#utility.yul\":7546:7613   */\n  tag_38\n  jump\t// in\ntag_133:\n    /* \"#utility.yul\":7640:7641   */\n  0x00\n    /* \"#utility.yul\":7664:7668   */\n  0x20\n    /* \"#utility.yul\":7651:7668   */\n  swap1\n  pop\n    /* \"#utility.yul\":7696:7698   */\n  0x1f\n    /* \"#utility.yul\":7688:7694   */\n  dup4\n    /* \"#utility.yul\":7685:7699   */\n  gt\n    /* \"#utility.yul\":7713:7714   */\n  0x01\n    /* \"#utility.yul\":7708:8326   */\n  dup2\n  eq\n  tag_135\n  jumpi\n    /* \"#utility.yul\":8370:8371   */\n  0x00\n    /* \"#utility.yul\":8387:8393   */\n  dup5\n    /* \"#utility.yul\":8384:8461   */\n  iszero\n  tag_136\n  jumpi\n    /* \"#utility.yul\":8436:8445   */\n  dup3\n    /* \"#utility.yul\":8431:8434   */\n  dup8\n    /* \"#utility.yul\":8427:8446   */\n  add\n    /* \"#utility.yul\":8421:8447   */\n  mload\n    /* \"#utility.yul\":8412:8447   */\n  swap1\n  pop\n    /* \"#utility.yul\":8384:8461   */\ntag_136:\n    /* \"#utility.yul\":8487:8554   */\n  tag_137\n    /* \"#utility.yul\":8547:8553   */\n  dup6\n    /* \"#utility.yul\":8540:8545   */\n  dup3\n    /* \"#utility.yul\":8487:8554   */\n  tag_41\n  jump\t// in\ntag_137:\n    /* \"#utility.yul\":8481:8485   */\n  dup7\n    /* \"#utility.yul\":8474:8555   */\n  sstore\n    /* \"#utility.yul\":8343:8565   */\n  pop\n    /* \"#utility.yul\":7678:8565   */\n  jump(tag_134)\n    /* \"#utility.yul\":7708:8326   */\ntag_135:\n    /* \"#utility.yul\":7760:7764   */\n  0x1f\n    /* \"#utility.yul\":7756:7765   */\n  not\n    /* \"#utility.yul\":7748:7754   */\n  dup5\n    /* \"#utility.yul\":7744:7766   */\n  and\n    /* \"#utility.yul\":7794:7831   */\n  tag_138\n    /* \"#utility.yul\":7826:7830   */\n  dup7\n    /* \"#utility.yul\":7794:7831   */\n  tag_26\n  jump\t// in\ntag_138:\n    /* \"#utility.yul\":7853:7854   */\n  0x00\n    /* \"#utility.yul\":7867:8075   */\ntag_139:\n    /* \"#utility.yul\":7881:7888   */\n  dup3\n    /* \"#utility.yul\":7878:7879   */\n  dup2\n    /* \"#utility.yul\":7875:7889   */\n  lt\n    /* \"#utility.yul\":7867:8075   */\n  iszero\n  tag_141\n  jumpi\n    /* \"#utility.yul\":7960:7969   */\n  dup5\n    /* \"#utility.yul\":7955:7958   */\n  dup10\n    /* \"#utility.yul\":7951:7970   */\n  add\n    /* \"#utility.yul\":7945:7971   */\n  mload\n    /* \"#utility.yul\":7937:7943   */\n  dup3\n    /* \"#utility.yul\":7930:7972   */\n  sstore\n    /* \"#utility.yul\":8011:8012   */\n  0x01\n    /* \"#utility.yul\":8003:8009   */\n  dup3\n    /* \"#utility.yul\":7999:8013   */\n  add\n    /* \"#utility.yul\":7989:8013   */\n  swap2\n  pop\n    /* \"#utility.yul\":8058:8060   */\n  0x20\n    /* \"#utility.yul\":8047:8056   */\n  dup6\n    /* \"#utility.yul\":8043:8061   */\n  add\n    /* \"#utility.yul\":8030:8061   */\n  swap5\n  pop\n    /* \"#utility.yul\":7904:7908   */\n  0x20\n    /* \"#utility.yul\":7901:7902   */\n  dup2\n    /* \"#utility.yul\":7897:7909   */\n  add\n    /* \"#utility.yul\":7892:7909   */\n  swap1\n  pop\n    /* \"#utility.yul\":7867:8075   */\n  jump(tag_139)\ntag_141:\n    /* \"#utility.yul\":8103:8109   */\n  dup7\n    /* \"#utility.yul\":8094:8101   */\n  dup4\n    /* \"#utility.yul\":8091:8110   */\n  lt\n    /* \"#utility.yul\":8088:8267   */\n  iszero\n  tag_142\n  jumpi\n    /* \"#utility.yul\":8161:8170   */\n  dup5\n    /* \"#utility.yul\":8156:8159   */\n  dup10\n    /* \"#utility.yul\":8152:8171   */\n  add\n    /* \"#utility.yul\":8146:8172   */\n  mload\n    /* \"#utility.yul\":8204:8252   */\n  tag_143\n    /* \"#utility.yul\":8246:8250   */\n  0x1f\n    /* \"#utility.yul\":8238:8244   */\n  dup10\n    /* \"#utility.yul\":8234:8251   */\n  and\n    /* \"#utility.yul\":8223:8232   */\n  dup3\n    /* \"#utility.yul\":8204:8252   */\n  tag_40\n  jump\t// in\ntag_143:\n    /* \"#utility.yul\":8196:8202   */\n  dup4\n    /* \"#utility.yul\":8189:8253   */\n  sstore\n    /* \"#utility.yul\":8111:8267   */\n  pop\n    /* \"#utility.yul\":8088:8267   */\ntag_142:\n    /* \"#utility.yul\":8313:8314   */\n  0x01\n    /* \"#utility.yul\":8309:8310   */\n  0x02\n    /* \"#utility.yul\":8301:8307   */\n  dup9\n    /* \"#utility.yul\":8297:8311   */\n  mul\n    /* \"#utility.yul\":8293:8315   */\n  add\n    /* \"#utility.yul\":8287:8291   */\n  dup9\n    /* \"#utility.yul\":8280:8316   */\n  sstore\n    /* \"#utility.yul\":7715:8326   */\n  pop\n  pop\n  pop\n    /* \"#utility.yul\":7678:8565   */\ntag_134:\n  pop\n    /* \"#utility.yul\":7268:8571   */\n  pop\n  pop\n  pop\n    /* \"#utility.yul\":7176:8571   */\n  pop\n  pop\n  jump\t// out\n    /* \"contracts/ERC-20.sol\":852:6174  contract ERC20 is IERC20 {... */\ntag_9:\n  dataSize(sub_0)\n  dup1\n  dataOffset(sub_0)\n  0x00\n  codecopy\n  0x00\n  return\nstop\n\nsub_0: assembly {\n        /* \"contracts/ERC-20.sol\":852:6174  contract ERC20 is IERC20 {... */\n      mstore(0x40, 0x80)\n      callvalue\n      dup1\n      iszero\n      tag_1\n      jumpi\n      0x00\n      dup1\n      revert\n    tag_1:\n      pop\n      jumpi(tag_2, lt(calldatasize, 0x04))\n      shr(0xe0, calldataload(0x00))\n      dup1\n      0x70a08231\n      gt\n      tag_14\n      jumpi\n      dup1\n      0x70a08231\n      eq\n      tag_8\n      jumpi\n      dup1\n      0x93316dfd\n      eq\n      tag_9\n      jumpi\n      dup1\n      0x95d89b41\n      eq\n      tag_10\n      jumpi\n      dup1\n      0xa457c2d7\n      eq\n      tag_11\n      jumpi\n      dup1\n      0xa9059cbb\n      eq\n      tag_12\n      jumpi\n      dup1\n      0xdd62ed3e\n      eq\n      tag_13\n      jumpi\n      jump(tag_2)\n    tag_14:\n      dup1\n      0x06fdde03\n      eq\n      tag_3\n      jumpi\n      dup1\n      0x095ea7b3\n      eq\n      tag_4\n      jumpi\n      dup1\n      0x18160ddd\n      eq\n      tag_5\n      jumpi\n      dup1\n      0x23b872dd\n      eq\n      tag_6\n      jumpi\n      dup1\n      0x313ce567\n      eq\n      tag_7\n      jumpi\n    tag_2:\n      0x00\n      dup1\n      revert\n        /* \"contracts/ERC-20.sol\":1230:1320  function name() public view virtual returns (string memory){... */\n    tag_3:\n      tag_15\n      tag_16\n      jump\t// in\n    tag_15:\n      mload(0x40)\n      tag_17\n      swap2\n      swap1\n      tag_18\n      jump\t// in\n    tag_17:\n      mload(0x40)\n      dup1\n      swap2\n      sub\n      swap1\n      return\n        /* \"contracts/ERC-20.sol\":2233:2431  function approve(address spender, uint256 amount) public virtual override returns (bool){... */\n    tag_4:\n      tag_19\n      0x04\n      dup1\n      calldatasize\n      sub\n      dup2\n      add\n      swap1\n      tag_20\n      swap2\n      swap1\n      tag_21\n      jump\t// in\n    tag_20:\n      tag_22\n      jump\t// in\n    tag_19:\n      mload(0x40)\n      tag_23\n      swap2\n      swap1\n      tag_24\n      jump\t// in\n    tag_23:\n      mload(0x40)\n      dup1\n      swap2\n      sub\n      swap1\n      return\n        /* \"contracts/ERC-20.sol\":1628:1735  function totalSupply() public view virtual override returns(uint256) {... */\n    tag_5:\n      tag_25\n      tag_26\n      jump\t// in\n    tag_25:\n      mload(0x40)\n      tag_27\n      swap2\n      swap1\n      tag_28\n      jump\t// in\n    tag_27:\n      mload(0x40)\n      dup1\n      swap2\n      sub\n      swap1\n      return\n        /* \"contracts/ERC-20.sol\":2439:2715  function transferFrom(... */\n    tag_6:\n      tag_29\n      0x04\n      dup1\n      calldatasize\n      sub\n      dup2\n      add\n      swap1\n      tag_30\n      swap2\n      swap1\n      tag_31\n      jump\t// in\n    tag_30:\n      tag_32\n      jump\t// in\n    tag_29:\n      mload(0x40)\n      tag_33\n      swap2\n      swap1\n      tag_24\n      jump\t// in\n    tag_33:\n      mload(0x40)\n      dup1\n      swap2\n      sub\n      swap1\n      return\n        /* \"contracts/ERC-20.sol\":1430:1513  function decimals() public view virtual returns (uint8){... */\n    tag_7:\n      tag_34\n      tag_35\n      jump\t// in\n    tag_34:\n      mload(0x40)\n      tag_36\n      swap2\n      swap1\n      tag_37\n      jump\t// in\n    tag_36:\n      mload(0x40)\n      dup1\n      swap2\n      sub\n      swap1\n      return\n        /* \"contracts/ERC-20.sol\":1743:1869  function balanceOf(address account) public view virtual override returns (uint256){... */\n    tag_8:\n      tag_38\n      0x04\n      dup1\n      calldatasize\n      sub\n      dup2\n      add\n      swap1\n      tag_39\n      swap2\n      swap1\n      tag_40\n      jump\t// in\n    tag_39:\n      tag_41\n      jump\t// in\n    tag_38:\n      mload(0x40)\n      tag_42\n      swap2\n      swap1\n      tag_28\n      jump\t// in\n    tag_42:\n      mload(0x40)\n      dup1\n      swap2\n      sub\n      swap1\n      return\n        /* \"contracts/ERC-20.sol\":2723:2959  function icreaseAllowance(address spender, uint256 addedValue) public virtual returns (bool){... */\n    tag_9:\n      tag_43\n      0x04\n      dup1\n      calldatasize\n      sub\n      dup2\n      add\n      swap1\n      tag_44\n      swap2\n      swap1\n      tag_21\n      jump\t// in\n    tag_44:\n      tag_45\n      jump\t// in\n    tag_43:\n      mload(0x40)\n      tag_46\n      swap2\n      swap1\n      tag_24\n      jump\t// in\n    tag_46:\n      mload(0x40)\n      dup1\n      swap2\n      sub\n      swap1\n      return\n        /* \"contracts/ERC-20.sol\":1328:1422  function symbol() public view virtual returns (string memory){... */\n    tag_10:\n      tag_47\n      tag_48\n      jump\t// in\n    tag_47:\n      mload(0x40)\n      tag_49\n      swap2\n      swap1\n      tag_18\n      jump\t// in\n    tag_49:\n      mload(0x40)\n      dup1\n      swap2\n      sub\n      swap1\n      return\n        /* \"contracts/ERC-20.sol\":2967:3398  function decreaseAllowance(address spender, uint256 decreasedValue) public virtual returns (bool){... */\n    tag_11:\n      tag_50\n      0x04\n      dup1\n      calldatasize\n      sub\n      dup2\n      add\n      swap1\n      tag_51\n      swap2\n      swap1\n      tag_21\n      jump\t// in\n    tag_51:\n      tag_52\n      jump\t// in\n    tag_50:\n      mload(0x40)\n      tag_53\n      swap2\n      swap1\n      tag_24\n      jump\t// in\n    tag_53:\n      mload(0x40)\n      dup1\n      swap2\n      sub\n      swap1\n      return\n        /* \"contracts/ERC-20.sol\":1877:2067  function transfer(address to, uint256 amount) public virtual override returns (bool){... */\n    tag_12:\n      tag_54\n      0x04\n      dup1\n      calldatasize\n      sub\n      dup2\n      add\n      swap1\n      tag_55\n      swap2\n      swap1\n      tag_21\n      jump\t// in\n    tag_55:\n      tag_56\n      jump\t// in\n    tag_54:\n      mload(0x40)\n      tag_57\n      swap2\n      swap1\n      tag_24\n      jump\t// in\n    tag_57:\n      mload(0x40)\n      dup1\n      swap2\n      sub\n      swap1\n      return\n        /* \"contracts/ERC-20.sol\":2075:2225  function allowance(address owner, address spender) public view virtual override returns (uint256){... */\n    tag_13:\n      tag_58\n      0x04\n      dup1\n      calldatasize\n      sub\n      dup2\n      add\n      swap1\n      tag_59\n      swap2\n      swap1\n      tag_60\n      jump\t// in\n    tag_59:\n      tag_61\n      jump\t// in\n    tag_58:\n      mload(0x40)\n      tag_62\n      swap2\n      swap1\n      tag_28\n      jump\t// in\n    tag_62:\n      mload(0x40)\n      dup1\n      swap2\n      sub\n      swap1\n      return\n        /* \"contracts/ERC-20.sol\":1230:1320  function name() public view virtual returns (string memory){... */\n    tag_16:\n        /* \"contracts/ERC-20.sol\":1275:1288  string memory */\n      0x60\n        /* \"contracts/ERC-20.sol\":1307:1312  _name */\n      0x03\n        /* \"contracts/ERC-20.sol\":1300:1312  return _name */\n      dup1\n      sload\n      tag_64\n      swap1\n      tag_65\n      jump\t// in\n    tag_64:\n      dup1\n      0x1f\n      add\n      0x20\n      dup1\n      swap2\n      div\n      mul\n      0x20\n      add\n      mload(0x40)\n      swap1\n      dup2\n      add\n      0x40\n      mstore\n      dup1\n      swap3\n      swap2\n      swap1\n      dup2\n      dup2\n      mstore\n      0x20\n      add\n      dup3\n      dup1\n      sload\n      tag_66\n      swap1\n      tag_65\n      jump\t// in\n    tag_66:\n      dup1\n      iszero\n      tag_67\n      jumpi\n      dup1\n      0x1f\n      lt\n      tag_68\n      jumpi\n      0x0100\n      dup1\n      dup4\n      sload\n      div\n      mul\n      dup4\n      mstore\n      swap2\n      0x20\n      add\n      swap2\n      jump(tag_67)\n    tag_68:\n      dup3\n      add\n      swap2\n      swap1\n      0x00\n      mstore\n      keccak256(0x00, 0x20)\n      swap1\n    tag_69:\n      dup2\n      sload\n      dup2\n      mstore\n      swap1\n      0x01\n      add\n      swap1\n      0x20\n      add\n      dup1\n      dup4\n      gt\n      tag_69\n      jumpi\n      dup3\n      swap1\n      sub\n      0x1f\n      and\n      dup3\n      add\n      swap2\n    tag_67:\n      pop\n      pop\n      pop\n      pop\n      pop\n      swap1\n      pop\n        /* \"contracts/ERC-20.sol\":1230:1320  function name() public view virtual returns (string memory){... */\n      swap1\n      jump\t// out\n        /* \"contracts/ERC-20.sol\":2233:2431  function approve(address spender, uint256 amount) public virtual override returns (bool){... */\n    tag_22:\n        /* \"contracts/ERC-20.sol\":2316:2320  bool */\n      0x00\n        /* \"contracts/ERC-20.sol\":2332:2345  address owner */\n      dup1\n        /* \"contracts/ERC-20.sol\":2348:2358  msg.sender */\n      caller\n        /* \"contracts/ERC-20.sol\":2332:2358  address owner = msg.sender */\n      swap1\n      pop\n        /* \"contracts/ERC-20.sol\":2369:2401  _approve(owner, spender, amount) */\n      tag_71\n        /* \"contracts/ERC-20.sol\":2378:2383  owner */\n      dup2\n        /* \"contracts/ERC-20.sol\":2385:2392  spender */\n      dup6\n        /* \"contracts/ERC-20.sol\":2394:2400  amount */\n      dup6\n        /* \"contracts/ERC-20.sol\":2369:2377  _approve */\n      tag_72\n        /* \"contracts/ERC-20.sol\":2369:2401  _approve(owner, spender, amount) */\n      jump\t// in\n    tag_71:\n        /* \"contracts/ERC-20.sol\":2419:2423  true */\n      0x01\n        /* \"contracts/ERC-20.sol\":2412:2423  return true */\n      swap2\n      pop\n      pop\n        /* \"contracts/ERC-20.sol\":2233:2431  function approve(address spender, uint256 amount) public virtual override returns (bool){... */\n      swap3\n      swap2\n      pop\n      pop\n      jump\t// out\n        /* \"contracts/ERC-20.sol\":1628:1735  function totalSupply() public view virtual override returns(uint256) {... */\n    tag_26:\n        /* \"contracts/ERC-20.sol\":1688:1695  uint256 */\n      0x00\n        /* \"contracts/ERC-20.sol\":1715:1727  _totalSupply */\n      sload(0x02)\n        /* \"contracts/ERC-20.sol\":1708:1727  return _totalSupply */\n      swap1\n      pop\n        /* \"contracts/ERC-20.sol\":1628:1735  function totalSupply() public view virtual override returns(uint256) {... */\n      swap1\n      jump\t// out\n        /* \"contracts/ERC-20.sol\":2439:2715  function transferFrom(... */\n    tag_32:\n        /* \"contracts/ERC-20.sol\":2554:2558  bool */\n      0x00\n        /* \"contracts/ERC-20.sol\":2570:2585  address spender */\n      dup1\n        /* \"contracts/ERC-20.sol\":2588:2598  msg.sender */\n      caller\n        /* \"contracts/ERC-20.sol\":2570:2598  address spender = msg.sender */\n      swap1\n      pop\n        /* \"contracts/ERC-20.sol\":2609:2647  _spendAllowance(from, spender, amount) */\n      tag_75\n        /* \"contracts/ERC-20.sol\":2625:2629  from */\n      dup6\n        /* \"contracts/ERC-20.sol\":2631:2638  spender */\n      dup3\n        /* \"contracts/ERC-20.sol\":2640:2646  amount */\n      dup6\n        /* \"contracts/ERC-20.sol\":2609:2624  _spendAllowance */\n      tag_76\n        /* \"contracts/ERC-20.sol\":2609:2647  _spendAllowance(from, spender, amount) */\n      jump\t// in\n    tag_75:\n        /* \"contracts/ERC-20.sol\":2658:2685  _transfer(from, to, amount) */\n      tag_77\n        /* \"contracts/ERC-20.sol\":2668:2672  from */\n      dup6\n        /* \"contracts/ERC-20.sol\":2674:2676  to */\n      dup6\n        /* \"contracts/ERC-20.sol\":2678:2684  amount */\n      dup6\n        /* \"contracts/ERC-20.sol\":2658:2667  _transfer */\n      tag_78\n        /* \"contracts/ERC-20.sol\":2658:2685  _transfer(from, to, amount) */\n      jump\t// in\n    tag_77:\n        /* \"contracts/ERC-20.sol\":2703:2707  true */\n      0x01\n        /* \"contracts/ERC-20.sol\":2696:2707  return true */\n      swap2\n      pop\n      pop\n        /* \"contracts/ERC-20.sol\":2439:2715  function transferFrom(... */\n      swap4\n      swap3\n      pop\n      pop\n      pop\n      jump\t// out\n        /* \"contracts/ERC-20.sol\":1430:1513  function decimals() public view virtual returns (uint8){... */\n    tag_35:\n        /* \"contracts/ERC-20.sol\":1479:1484  uint8 */\n      0x00\n        /* \"contracts/ERC-20.sol\":1503:1505  18 */\n      0x12\n        /* \"contracts/ERC-20.sol\":1496:1505  return 18 */\n      swap1\n      pop\n        /* \"contracts/ERC-20.sol\":1430:1513  function decimals() public view virtual returns (uint8){... */\n      swap1\n      jump\t// out\n        /* \"contracts/ERC-20.sol\":1743:1869  function balanceOf(address account) public view virtual override returns (uint256){... */\n    tag_41:\n        /* \"contracts/ERC-20.sol\":1817:1824  uint256 */\n      0x00\n        /* \"contracts/ERC-20.sol\":1843:1852  _balances */\n      dup1\n        /* \"contracts/ERC-20.sol\":1843:1861  _balances[account] */\n      0x00\n        /* \"contracts/ERC-20.sol\":1853:1860  account */\n      dup4\n        /* \"contracts/ERC-20.sol\":1843:1861  _balances[account] */\n      0xffffffffffffffffffffffffffffffffffffffff\n      and\n      0xffffffffffffffffffffffffffffffffffffffff\n      and\n      dup2\n      mstore\n      0x20\n      add\n      swap1\n      dup2\n      mstore\n      0x20\n      add\n      0x00\n      keccak256\n      sload\n        /* \"contracts/ERC-20.sol\":1836:1861  return _balances[account] */\n      swap1\n      pop\n        /* \"contracts/ERC-20.sol\":1743:1869  function balanceOf(address account) public view virtual override returns (uint256){... */\n      swap2\n      swap1\n      pop\n      jump\t// out\n        /* \"contracts/ERC-20.sol\":2723:2959  function icreaseAllowance(address spender, uint256 addedValue) public virtual returns (bool){... */\n    tag_45:\n        /* \"contracts/ERC-20.sol\":2810:2814  bool */\n      0x00\n        /* \"contracts/ERC-20.sol\":2826:2839  address owner */\n      dup1\n        /* \"contracts/ERC-20.sol\":2842:2852  msg.sender */\n      caller\n        /* \"contracts/ERC-20.sol\":2826:2852  address owner = msg.sender */\n      swap1\n      pop\n        /* \"contracts/ERC-20.sol\":2863:2929  _approve(owner, spender, _allowances[owner][spender] + addedValue) */\n      tag_82\n        /* \"contracts/ERC-20.sol\":2872:2877  owner */\n      dup2\n        /* \"contracts/ERC-20.sol\":2879:2886  spender */\n      dup6\n        /* \"contracts/ERC-20.sol\":2918:2928  addedValue */\n      dup6\n        /* \"contracts/ERC-20.sol\":2888:2899  _allowances */\n      0x01\n        /* \"contracts/ERC-20.sol\":2888:2906  _allowances[owner] */\n      0x00\n        /* \"contracts/ERC-20.sol\":2900:2905  owner */\n      dup7\n        /* \"contracts/ERC-20.sol\":2888:2906  _allowances[owner] */\n      0xffffffffffffffffffffffffffffffffffffffff\n      and\n      0xffffffffffffffffffffffffffffffffffffffff\n      and\n      dup2\n      mstore\n      0x20\n      add\n      swap1\n      dup2\n      mstore\n      0x20\n      add\n      0x00\n      keccak256\n        /* \"contracts/ERC-20.sol\":2888:2915  _allowances[owner][spender] */\n      0x00\n        /* \"contracts/ERC-20.sol\":2907:2914  spender */\n      dup10\n        /* \"contracts/ERC-20.sol\":2888:2915  _allowances[owner][spender] */\n      0xffffffffffffffffffffffffffffffffffffffff\n      and\n      0xffffffffffffffffffffffffffffffffffffffff\n      and\n      dup2\n      mstore\n      0x20\n      add\n      swap1\n      dup2\n      mstore\n      0x20\n      add\n      0x00\n      keccak256\n      sload\n        /* \"contracts/ERC-20.sol\":2888:2928  _allowances[owner][spender] + addedValue */\n      tag_83\n      swap2\n      swap1\n      tag_84\n      jump\t// in\n    tag_83:\n        /* \"contracts/ERC-20.sol\":2863:2871  _approve */\n      tag_72\n        /* \"contracts/ERC-20.sol\":2863:2929  _approve(owner, spender, _allowances[owner][spender] + addedValue) */\n      jump\t// in\n    tag_82:\n        /* \"contracts/ERC-20.sol\":2947:2951  true */\n      0x01\n        /* \"contracts/ERC-20.sol\":2940:2951  return true */\n      swap2\n      pop\n      pop\n        /* \"contracts/ERC-20.sol\":2723:2959  function icreaseAllowance(address spender, uint256 addedValue) public virtual returns (bool){... */\n      swap3\n      swap2\n      pop\n      pop\n      jump\t// out\n        /* \"contracts/ERC-20.sol\":1328:1422  function symbol() public view virtual returns (string memory){... */\n    tag_48:\n        /* \"contracts/ERC-20.sol\":1375:1388  string memory */\n      0x60\n        /* \"contracts/ERC-20.sol\":1407:1414  _symbol */\n      0x04\n        /* \"contracts/ERC-20.sol\":1400:1414  return _symbol */\n      dup1\n      sload\n      tag_86\n      swap1\n      tag_65\n      jump\t// in\n    tag_86:\n      dup1\n      0x1f\n      add\n      0x20\n      dup1\n      swap2\n      div\n      mul\n      0x20\n      add\n      mload(0x40)\n      swap1\n      dup2\n      add\n      0x40\n      mstore\n      dup1\n      swap3\n      swap2\n      swap1\n      dup2\n      dup2\n      mstore\n      0x20\n      add\n      dup3\n      dup1\n      sload\n      tag_87\n      swap1\n      tag_65\n      jump\t// in\n    tag_87:\n      dup1\n      iszero\n      tag_88\n      jumpi\n      dup1\n      0x1f\n      lt\n      tag_89\n      jumpi\n      0x0100\n      dup1\n      dup4\n      sload\n      div\n      mul\n      dup4\n      mstore\n      swap2\n      0x20\n      add\n      swap2\n      jump(tag_88)\n    tag_89:\n      dup3\n      add\n      swap2\n      swap1\n      0x00\n      mstore\n      keccak256(0x00, 0x20)\n      swap1\n    tag_90:\n      dup2\n      sload\n      dup2\n      mstore\n      swap1\n      0x01\n      add\n      swap1\n      0x20\n      add\n      dup1\n      dup4\n      gt\n      tag_90\n      jumpi\n      dup3\n      swap1\n      sub\n      0x1f\n      and\n      dup3\n      add\n      swap2\n    tag_88:\n      pop\n      pop\n      pop\n      pop\n      pop\n      swap1\n      pop\n        /* \"contracts/ERC-20.sol\":1328:1422  function symbol() public view virtual returns (string memory){... */\n      swap1\n      jump\t// out\n        /* \"contracts/ERC-20.sol\":2967:3398  function decreaseAllowance(address spender, uint256 decreasedValue) public virtual returns (bool){... */\n    tag_52:\n        /* \"contracts/ERC-20.sol\":3059:3063  bool */\n      0x00\n        /* \"contracts/ERC-20.sol\":3075:3088  address owner */\n      dup1\n        /* \"contracts/ERC-20.sol\":3091:3101  msg.sender */\n      caller\n        /* \"contracts/ERC-20.sol\":3075:3101  address owner = msg.sender */\n      swap1\n      pop\n        /* \"contracts/ERC-20.sol\":3112:3136  uint256 currentAllowance */\n      0x00\n        /* \"contracts/ERC-20.sol\":3140:3151  _allowances */\n      0x01\n        /* \"contracts/ERC-20.sol\":3140:3158  _allowances[owner] */\n      0x00\n        /* \"contracts/ERC-20.sol\":3152:3157  owner */\n      dup4\n        /* \"contracts/ERC-20.sol\":3140:3158  _allowances[owner] */\n      0xffffffffffffffffffffffffffffffffffffffff\n      and\n      0xffffffffffffffffffffffffffffffffffffffff\n      and\n      dup2\n      mstore\n      0x20\n      add\n      swap1\n      dup2\n      mstore\n      0x20\n      add\n      0x00\n      keccak256\n        /* \"contracts/ERC-20.sol\":3140:3167  _allowances[owner][spender] */\n      0x00\n        /* \"contracts/ERC-20.sol\":3159:3166  spender */\n      dup7\n        /* \"contracts/ERC-20.sol\":3140:3167  _allowances[owner][spender] */\n      0xffffffffffffffffffffffffffffffffffffffff\n      and\n      0xffffffffffffffffffffffffffffffffffffffff\n      and\n      dup2\n      mstore\n      0x20\n      add\n      swap1\n      dup2\n      mstore\n      0x20\n      add\n      0x00\n      keccak256\n      sload\n        /* \"contracts/ERC-20.sol\":3112:3167  uint256 currentAllowance =  _allowances[owner][spender] */\n      swap1\n      pop\n        /* \"contracts/ERC-20.sol\":3206:3220  decreasedValue */\n      dup4\n        /* \"contracts/ERC-20.sol\":3186:3202  currentAllowance */\n      dup2\n        /* \"contracts/ERC-20.sol\":3186:3220  currentAllowance >= decreasedValue */\n      lt\n      iszero\n        /* \"contracts/ERC-20.sol\":3178:3262  require(currentAllowance >= decreasedValue, \"ERC20: decreased allowance below zero\") */\n      tag_92\n      jumpi\n      mload(0x40)\n      0x08c379a000000000000000000000000000000000000000000000000000000000\n      dup2\n      mstore\n      0x04\n      add\n      tag_93\n      swap1\n      tag_94\n      jump\t// in\n    tag_93:\n      mload(0x40)\n      dup1\n      swap2\n      sub\n      swap1\n      revert\n    tag_92:\n        /* \"contracts/ERC-20.sol\":3298:3357  _approve(owner, spender, currentAllowance - decreasedValue) */\n      tag_95\n        /* \"contracts/ERC-20.sol\":3307:3312  owner */\n      dup3\n        /* \"contracts/ERC-20.sol\":3314:3321  spender */\n      dup7\n        /* \"contracts/ERC-20.sol\":3342:3356  decreasedValue */\n      dup7\n        /* \"contracts/ERC-20.sol\":3323:3339  currentAllowance */\n      dup5\n        /* \"contracts/ERC-20.sol\":3323:3356  currentAllowance - decreasedValue */\n      sub\n        /* \"contracts/ERC-20.sol\":3298:3306  _approve */\n      tag_72\n        /* \"contracts/ERC-20.sol\":3298:3357  _approve(owner, spender, currentAllowance - decreasedValue) */\n      jump\t// in\n    tag_95:\n        /* \"contracts/ERC-20.sol\":3386:3390  true */\n      0x01\n        /* \"contracts/ERC-20.sol\":3379:3390  return true */\n      swap3\n      pop\n      pop\n      pop\n        /* \"contracts/ERC-20.sol\":2967:3398  function decreaseAllowance(address spender, uint256 decreasedValue) public virtual returns (bool){... */\n      swap3\n      swap2\n      pop\n      pop\n      jump\t// out\n        /* \"contracts/ERC-20.sol\":1877:2067  function transfer(address to, uint256 amount) public virtual override returns (bool){... */\n    tag_56:\n        /* \"contracts/ERC-20.sol\":1956:1960  bool */\n      0x00\n        /* \"contracts/ERC-20.sol\":1972:1985  address owner */\n      dup1\n        /* \"contracts/ERC-20.sol\":1988:1998  msg.sender */\n      caller\n        /* \"contracts/ERC-20.sol\":1972:1998  address owner = msg.sender */\n      swap1\n      pop\n        /* \"contracts/ERC-20.sol\":2009:2037  _transfer(owner, to, amount) */\n      tag_97\n        /* \"contracts/ERC-20.sol\":2019:2024  owner */\n      dup2\n        /* \"contracts/ERC-20.sol\":2026:2028  to */\n      dup6\n        /* \"contracts/ERC-20.sol\":2030:2036  amount */\n      dup6\n        /* \"contracts/ERC-20.sol\":2009:2018  _transfer */\n      tag_78\n        /* \"contracts/ERC-20.sol\":2009:2037  _transfer(owner, to, amount) */\n      jump\t// in\n    tag_97:\n        /* \"contracts/ERC-20.sol\":2055:2059  true */\n      0x01\n        /* \"contracts/ERC-20.sol\":2048:2059  return true */\n      swap2\n      pop\n      pop\n        /* \"contracts/ERC-20.sol\":1877:2067  function transfer(address to, uint256 amount) public virtual override returns (bool){... */\n      swap3\n      swap2\n      pop\n      pop\n      jump\t// out\n        /* \"contracts/ERC-20.sol\":2075:2225  function allowance(address owner, address spender) public view virtual override returns (uint256){... */\n    tag_61:\n        /* \"contracts/ERC-20.sol\":2164:2171  uint256 */\n      0x00\n        /* \"contracts/ERC-20.sol\":2190:2201  _allowances */\n      0x01\n        /* \"contracts/ERC-20.sol\":2190:2208  _allowances[owner] */\n      0x00\n        /* \"contracts/ERC-20.sol\":2202:2207  owner */\n      dup5\n        /* \"contracts/ERC-20.sol\":2190:2208  _allowances[owner] */\n      0xffffffffffffffffffffffffffffffffffffffff\n      and\n      0xffffffffffffffffffffffffffffffffffffffff\n      and\n      dup2\n      mstore\n      0x20\n      add\n      swap1\n      dup2\n      mstore\n      0x20\n      add\n      0x00\n      keccak256\n        /* \"contracts/ERC-20.sol\":2190:2217  _allowances[owner][spender] */\n      0x00\n        /* \"contracts/ERC-20.sol\":2209:2216  spender */\n      dup4\n        /* \"contracts/ERC-20.sol\":2190:2217  _allowances[owner][spender] */\n      0xffffffffffffffffffffffffffffffffffffffff\n      and\n      0xffffffffffffffffffffffffffffffffffffffff\n      and\n      dup2\n      mstore\n      0x20\n      add\n      swap1\n      dup2\n      mstore\n      0x20\n      add\n      0x00\n      keccak256\n      sload\n        /* \"contracts/ERC-20.sol\":2183:2217  return _allowances[owner][spender] */\n      swap1\n      pop\n        /* \"contracts/ERC-20.sol\":2075:2225  function allowance(address owner, address spender) public view virtual override returns (uint256){... */\n      swap3\n      swap2\n      pop\n      pop\n      jump\t// out\n        /* \"contracts/ERC-20.sol\":5067:5445  function _approve(... */\n    tag_72:\n        /* \"contracts/ERC-20.sol\":5220:5221  0 */\n      0x00\n        /* \"contracts/ERC-20.sol\":5203:5222  owner != address(0) */\n      0xffffffffffffffffffffffffffffffffffffffff\n      and\n        /* \"contracts/ERC-20.sol\":5203:5208  owner */\n      dup4\n        /* \"contracts/ERC-20.sol\":5203:5222  owner != address(0) */\n      0xffffffffffffffffffffffffffffffffffffffff\n      and\n      sub\n        /* \"contracts/ERC-20.sol\":5195:5263  require(owner != address(0), \"ERC20: approve from the zero address\") */\n      tag_100\n      jumpi\n      mload(0x40)\n      0x08c379a000000000000000000000000000000000000000000000000000000000\n      dup2\n      mstore\n      0x04\n      add\n      tag_101\n      swap1\n      tag_102\n      jump\t// in\n    tag_101:\n      mload(0x40)\n      dup1\n      swap2\n      sub\n      swap1\n      revert\n    tag_100:\n        /* \"contracts/ERC-20.sol\":5301:5302  0 */\n      0x00\n        /* \"contracts/ERC-20.sol\":5282:5303  spender != address(0) */\n      0xffffffffffffffffffffffffffffffffffffffff\n      and\n        /* \"contracts/ERC-20.sol\":5282:5289  spender */\n      dup3\n        /* \"contracts/ERC-20.sol\":5282:5303  spender != address(0) */\n      0xffffffffffffffffffffffffffffffffffffffff\n      and\n      sub\n        /* \"contracts/ERC-20.sol\":5274:5342  require(spender != address(0), \"ERC20: approve to the zero address\") */\n      tag_103\n      jumpi\n      mload(0x40)\n      0x08c379a000000000000000000000000000000000000000000000000000000000\n      dup2\n      mstore\n      0x04\n      add\n      tag_104\n      swap1\n      tag_105\n      jump\t// in\n    tag_104:\n      mload(0x40)\n      dup1\n      swap2\n      sub\n      swap1\n      revert\n    tag_103:\n        /* \"contracts/ERC-20.sol\":5383:5389  amount */\n      dup1\n        /* \"contracts/ERC-20.sol\":5353:5364  _allowances */\n      0x01\n        /* \"contracts/ERC-20.sol\":5353:5371  _allowances[owner] */\n      0x00\n        /* \"contracts/ERC-20.sol\":5365:5370  owner */\n      dup6\n        /* \"contracts/ERC-20.sol\":5353:5371  _allowances[owner] */\n      0xffffffffffffffffffffffffffffffffffffffff\n      and\n      0xffffffffffffffffffffffffffffffffffffffff\n      and\n      dup2\n      mstore\n      0x20\n      add\n      swap1\n      dup2\n      mstore\n      0x20\n      add\n      0x00\n      keccak256\n        /* \"contracts/ERC-20.sol\":5353:5380  _allowances[owner][spender] */\n      0x00\n        /* \"contracts/ERC-20.sol\":5372:5379  spender */\n      dup5\n        /* \"contracts/ERC-20.sol\":5353:5380  _allowances[owner][spender] */\n      0xffffffffffffffffffffffffffffffffffffffff\n      and\n      0xffffffffffffffffffffffffffffffffffffffff\n      and\n      dup2\n      mstore\n      0x20\n      add\n      swap1\n      dup2\n      mstore\n      0x20\n      add\n      0x00\n      keccak256\n        /* \"contracts/ERC-20.sol\":5353:5389  _allowances[owner][spender] = amount */\n      dup2\n      swap1\n      sstore\n      pop\n        /* \"contracts/ERC-20.sol\":5421:5428  spender */\n      dup2\n        /* \"contracts/ERC-20.sol\":5405:5437  Approval(owner, spender, amount) */\n      0xffffffffffffffffffffffffffffffffffffffff\n      and\n        /* \"contracts/ERC-20.sol\":5414:5419  owner */\n      dup4\n        /* \"contracts/ERC-20.sol\":5405:5437  Approval(owner, spender, amount) */\n      0xffffffffffffffffffffffffffffffffffffffff\n      and\n      0x8c5be1e5ebec7d5bd14f71427d1e84f3dd0314c0f7b2291e5b200ac8c7c3b925\n        /* \"contracts/ERC-20.sol\":5430:5436  amount */\n      dup4\n        /* \"contracts/ERC-20.sol\":5405:5437  Approval(owner, spender, amount) */\n      mload(0x40)\n      tag_106\n      swap2\n      swap1\n      tag_28\n      jump\t// in\n    tag_106:\n      mload(0x40)\n      dup1\n      swap2\n      sub\n      swap1\n      log3\n        /* \"contracts/ERC-20.sol\":5067:5445  function _approve(... */\n      pop\n      pop\n      pop\n      jump\t// out\n        /* \"contracts/ERC-20.sol\":5453:5887  function _spendAllowance (... */\n    tag_76:\n        /* \"contracts/ERC-20.sol\":5589:5613  uint256 currentAllowance */\n      0x00\n        /* \"contracts/ERC-20.sol\":5616:5641  allowance(owner, spender) */\n      tag_108\n        /* \"contracts/ERC-20.sol\":5626:5631  owner */\n      dup5\n        /* \"contracts/ERC-20.sol\":5633:5640  spender */\n      dup5\n        /* \"contracts/ERC-20.sol\":5616:5625  allowance */\n      tag_61\n        /* \"contracts/ERC-20.sol\":5616:5641  allowance(owner, spender) */\n      jump\t// in\n    tag_108:\n        /* \"contracts/ERC-20.sol\":5589:5641  uint256 currentAllowance = allowance(owner, spender) */\n      swap1\n      pop\n        /* \"contracts/ERC-20.sol\":5676:5693  type(uint256).max */\n      0xffffffffffffffffffffffffffffffffffffffffffffffffffffffffffffffff\n        /* \"contracts/ERC-20.sol\":5656:5672  currentAllowance */\n      dup2\n        /* \"contracts/ERC-20.sol\":5656:5693  currentAllowance != type(uint256).max */\n      eq\n        /* \"contracts/ERC-20.sol\":5652:5880  if (currentAllowance != type(uint256).max){... */\n      tag_109\n      jumpi\n        /* \"contracts/ERC-20.sol\":5737:5743  amount */\n      dup2\n        /* \"contracts/ERC-20.sol\":5717:5733  currentAllowance */\n      dup2\n        /* \"contracts/ERC-20.sol\":5717:5743  currentAllowance >= amount */\n      lt\n      iszero\n        /* \"contracts/ERC-20.sol\":5709:5777  require(currentAllowance >= amount, \"ERC20: insufficient allowance\") */\n      tag_110\n      jumpi\n      mload(0x40)\n      0x08c379a000000000000000000000000000000000000000000000000000000000\n      dup2\n      mstore\n      0x04\n      add\n      tag_111\n      swap1\n      tag_112\n      jump\t// in\n    tag_111:\n      mload(0x40)\n      dup1\n      swap2\n      sub\n      swap1\n      revert\n    tag_110:\n        /* \"contracts/ERC-20.sol\":5821:5853  _approve(owner, spender, amount) */\n      tag_113\n        /* \"contracts/ERC-20.sol\":5830:5835  owner */\n      dup5\n        /* \"contracts/ERC-20.sol\":5837:5844  spender */\n      dup5\n        /* \"contracts/ERC-20.sol\":5846:5852  amount */\n      dup5\n        /* \"contracts/ERC-20.sol\":5821:5829  _approve */\n      tag_72\n        /* \"contracts/ERC-20.sol\":5821:5853  _approve(owner, spender, amount) */\n      jump\t// in\n    tag_113:\n        /* \"contracts/ERC-20.sol\":5652:5880  if (currentAllowance != type(uint256).max){... */\n    tag_109:\n        /* \"contracts/ERC-20.sol\":5578:5887  {... */\n      pop\n        /* \"contracts/ERC-20.sol\":5453:5887  function _spendAllowance (... */\n      pop\n      pop\n      pop\n      jump\t// out\n        /* \"contracts/ERC-20.sol\":3406:4071  function _transfer(... */\n    tag_78:\n        /* \"contracts/ERC-20.sol\":3553:3554  0 */\n      0x00\n        /* \"contracts/ERC-20.sol\":3537:3555  from != address(0) */\n      0xffffffffffffffffffffffffffffffffffffffff\n      and\n        /* \"contracts/ERC-20.sol\":3537:3541  from */\n      dup4\n        /* \"contracts/ERC-20.sol\":3537:3555  from != address(0) */\n      0xffffffffffffffffffffffffffffffffffffffff\n      and\n      sub\n        /* \"contracts/ERC-20.sol\":3529:3597  require(from != address(0), \"ERC20: transfer from the zero address\") */\n      tag_115\n      jumpi\n      mload(0x40)\n      0x08c379a000000000000000000000000000000000000000000000000000000000\n      dup2\n      mstore\n      0x04\n      add\n      tag_116\n      swap1\n      tag_117\n      jump\t// in\n    tag_116:\n      mload(0x40)\n      dup1\n      swap2\n      sub\n      swap1\n      revert\n    tag_115:\n        /* \"contracts/ERC-20.sol\":3632:3633  0 */\n      0x00\n        /* \"contracts/ERC-20.sol\":3616:3634  from != address(0) */\n      0xffffffffffffffffffffffffffffffffffffffff\n      and\n        /* \"contracts/ERC-20.sol\":3616:3620  from */\n      dup4\n        /* \"contracts/ERC-20.sol\":3616:3634  from != address(0) */\n      0xffffffffffffffffffffffffffffffffffffffff\n      and\n      sub\n        /* \"contracts/ERC-20.sol\":3608:3674  require(from != address(0), \"ERC20: transfer to the zero address\") */\n      tag_118\n      jumpi\n      mload(0x40)\n      0x08c379a000000000000000000000000000000000000000000000000000000000\n      dup2\n      mstore\n      0x04\n      add\n      tag_119\n      swap1\n      tag_120\n      jump\t// in\n    tag_119:\n      mload(0x40)\n      dup1\n      swap2\n      sub\n      swap1\n      revert\n    tag_118:\n        /* \"contracts/ERC-20.sol\":3685:3723  _beforeTokenTransfer(from, to, amount) */\n      tag_121\n        /* \"contracts/ERC-20.sol\":3706:3710  from */\n      dup4\n        /* \"contracts/ERC-20.sol\":3712:3714  to */\n      dup4\n        /* \"contracts/ERC-20.sol\":3716:3722  amount */\n      dup4\n        /* \"contracts/ERC-20.sol\":3685:3705  _beforeTokenTransfer */\n      tag_122\n        /* \"contracts/ERC-20.sol\":3685:3723  _beforeTokenTransfer(from, to, amount) */\n      jump\t// in\n    tag_121:\n        /* \"contracts/ERC-20.sol\":3734:3753  uint256 fromBalance */\n      0x00\n        /* \"contracts/ERC-20.sol\":3756:3765  _balances */\n      dup1\n        /* \"contracts/ERC-20.sol\":3756:3771  _balances[from] */\n      0x00\n        /* \"contracts/ERC-20.sol\":3766:3770  from */\n      dup6\n        /* \"contracts/ERC-20.sol\":3756:3771  _balances[from] */\n      0xffffffffffffffffffffffffffffffffffffffff\n      and\n      0xffffffffffffffffffffffffffffffffffffffff\n      and\n      dup2\n      mstore\n      0x20\n      add\n      swap1\n      dup2\n      mstore\n      0x20\n      add\n      0x00\n      keccak256\n      sload\n        /* \"contracts/ERC-20.sol\":3734:3771  uint256 fromBalance = _balances[from] */\n      swap1\n      pop\n        /* \"contracts/ERC-20.sol\":3805:3811  amount */\n      dup2\n        /* \"contracts/ERC-20.sol\":3790:3801  fromBalance */\n      dup2\n        /* \"contracts/ERC-20.sol\":3790:3811  fromBalance >= amount */\n      lt\n      iszero\n        /* \"contracts/ERC-20.sol\":3782:3854  require(fromBalance >= amount, \"ERC20: transfer amount exceeds balance\") */\n      tag_123\n      jumpi\n      mload(0x40)\n      0x08c379a000000000000000000000000000000000000000000000000000000000\n      dup2\n      mstore\n      0x04\n      add\n      tag_124\n      swap1\n      tag_125\n      jump\t// in\n    tag_124:\n      mload(0x40)\n      dup1\n      swap2\n      sub\n      swap1\n      revert\n    tag_123:\n        /* \"contracts/ERC-20.sol\":3922:3928  amount */\n      dup2\n        /* \"contracts/ERC-20.sol\":3908:3919  fromBalance */\n      dup2\n        /* \"contracts/ERC-20.sol\":3908:3928  fromBalance - amount */\n      sub\n        /* \"contracts/ERC-20.sol\":3890:3899  _balances */\n      0x00\n        /* \"contracts/ERC-20.sol\":3890:3905  _balances[from] */\n      dup1\n        /* \"contracts/ERC-20.sol\":3900:3904  from */\n      dup7\n        /* \"contracts/ERC-20.sol\":3890:3905  _balances[from] */\n      0xffffffffffffffffffffffffffffffffffffffff\n      and\n      0xffffffffffffffffffffffffffffffffffffffff\n      and\n      dup2\n      mstore\n      0x20\n      add\n      swap1\n      dup2\n      mstore\n      0x20\n      add\n      0x00\n      keccak256\n        /* \"contracts/ERC-20.sol\":3890:3928  _balances[from] = fromBalance - amount */\n      dup2\n      swap1\n      sstore\n      pop\n        /* \"contracts/ERC-20.sol\":3967:3973  amount */\n      dup2\n        /* \"contracts/ERC-20.sol\":3950:3959  _balances */\n      0x00\n        /* \"contracts/ERC-20.sol\":3950:3963  _balances[to] */\n      dup1\n        /* \"contracts/ERC-20.sol\":3960:3962  to */\n      dup6\n        /* \"contracts/ERC-20.sol\":3950:3963  _balances[to] */\n      0xffffffffffffffffffffffffffffffffffffffff\n      and\n      0xffffffffffffffffffffffffffffffffffffffff\n      and\n      dup2\n      mstore\n      0x20\n      add\n      swap1\n      dup2\n      mstore\n      0x20\n      add\n      0x00\n      keccak256\n      0x00\n        /* \"contracts/ERC-20.sol\":3950:3973  _balances[to] += amount */\n      dup3\n      dup3\n      sload\n      tag_126\n      swap2\n      swap1\n      tag_84\n      jump\t// in\n    tag_126:\n      swap3\n      pop\n      pop\n      dup2\n      swap1\n      sstore\n      pop\n        /* \"contracts/ERC-20.sol\":4004:4006  to */\n      dup3\n        /* \"contracts/ERC-20.sol\":3989:4015  Transfer(from, to, amount) */\n      0xffffffffffffffffffffffffffffffffffffffff\n      and\n        /* \"contracts/ERC-20.sol\":3998:4002  from */\n      dup5\n        /* \"contracts/ERC-20.sol\":3989:4015  Transfer(from, to, amount) */\n      0xffffffffffffffffffffffffffffffffffffffff\n      and\n      0xddf252ad1be2c89b69c2b068fc378daa952ba7f163c4a11628f55a4df523b3ef\n        /* \"contracts/ERC-20.sol\":4008:4014  amount */\n      dup5\n        /* \"contracts/ERC-20.sol\":3989:4015  Transfer(from, to, amount) */\n      mload(0x40)\n      tag_127\n      swap2\n      swap1\n      tag_28\n      jump\t// in\n    tag_127:\n      mload(0x40)\n      dup1\n      swap2\n      sub\n      swap1\n      log3\n        /* \"contracts/ERC-20.sol\":4026:4063  _afterTokenTransfer(from, to, amount) */\n      tag_128\n        /* \"contracts/ERC-20.sol\":4046:4050  from */\n      dup5\n        /* \"contracts/ERC-20.sol\":4052:4054  to */\n      dup5\n        /* \"contracts/ERC-20.sol\":4056:4062  amount */\n      dup5\n        /* \"contracts/ERC-20.sol\":4026:4045  _afterTokenTransfer */\n      tag_129\n        /* \"contracts/ERC-20.sol\":4026:4063  _afterTokenTransfer(from, to, amount) */\n      jump\t// in\n    tag_128:\n        /* \"contracts/ERC-20.sol\":3518:4071  {... */\n      pop\n        /* \"contracts/ERC-20.sol\":3406:4071  function _transfer(... */\n      pop\n      pop\n      pop\n      jump\t// out\n        /* \"contracts/ERC-20.sol\":5909:6035  function _beforeTokenTransfer (... */\n    tag_122:\n      pop\n      pop\n      pop\n      jump\t// out\n        /* \"contracts/ERC-20.sol\":6044:6169  function _afterTokenTransfer (... */\n    tag_129:\n      pop\n      pop\n      pop\n      jump\t// out\n        /* \"#utility.yul\":7:106   */\n    tag_132:\n        /* \"#utility.yul\":59:65   */\n      0x00\n        /* \"#utility.yul\":93:98   */\n      dup2\n        /* \"#utility.yul\":87:99   */\n      mload\n        /* \"#utility.yul\":77:99   */\n      swap1\n      pop\n        /* \"#utility.yul\":7:106   */\n      swap2\n      swap1\n      pop\n      jump\t// out\n        /* \"#utility.yul\":112:281   */\n    tag_133:\n        /* \"#utility.yul\":196:207   */\n      0x00\n        /* \"#utility.yul\":230:236   */\n      dup3\n        /* \"#utility.yul\":225:228   */\n      dup3\n        /* \"#utility.yul\":218:237   */\n      mstore\n        /* \"#utility.yul\":270:274   */\n      0x20\n        /* \"#utility.yul\":265:268   */\n      dup3\n        /* \"#utility.yul\":261:275   */\n      add\n        /* \"#utility.yul\":246:275   */\n      swap1\n      pop\n        /* \"#utility.yul\":112:281   */\n      swap3\n      swap2\n      pop\n      pop\n      jump\t// out\n        /* \"#utility.yul\":287:533   */\n    tag_134:\n        /* \"#utility.yul\":368:369   */\n      0x00\n        /* \"#utility.yul\":378:491   */\n    tag_172:\n        /* \"#utility.yul\":392:398   */\n      dup4\n        /* \"#utility.yul\":389:390   */\n      dup2\n        /* \"#utility.yul\":386:399   */\n      lt\n        /* \"#utility.yul\":378:491   */\n      iszero\n      tag_174\n      jumpi\n        /* \"#utility.yul\":477:478   */\n      dup1\n        /* \"#utility.yul\":472:475   */\n      dup3\n        /* \"#utility.yul\":468:479   */\n      add\n        /* \"#utility.yul\":462:480   */\n      mload\n        /* \"#utility.yul\":458:459   */\n      dup2\n        /* \"#utility.yul\":453:456   */\n      dup5\n        /* \"#utility.yul\":449:460   */\n      add\n        /* \"#utility.yul\":442:481   */\n      mstore\n        /* \"#utility.yul\":414:416   */\n      0x20\n        /* \"#utility.yul\":411:412   */\n      dup2\n        /* \"#utility.yul\":407:417   */\n      add\n        /* \"#utility.yul\":402:417   */\n      swap1\n      pop\n        /* \"#utility.yul\":378:491   */\n      jump(tag_172)\n    tag_174:\n        /* \"#utility.yul\":525:526   */\n      0x00\n        /* \"#utility.yul\":516:522   */\n      dup5\n        /* \"#utility.yul\":511:514   */\n      dup5\n        /* \"#utility.yul\":507:523   */\n      add\n        /* \"#utility.yul\":500:527   */\n      mstore\n        /* \"#utility.yul\":349:533   */\n      pop\n        /* \"#utility.yul\":287:533   */\n      pop\n      pop\n      pop\n      jump\t// out\n        /* \"#utility.yul\":539:641   */\n    tag_135:\n        /* \"#utility.yul\":580:586   */\n      0x00\n        /* \"#utility.yul\":631:633   */\n      0x1f\n        /* \"#utility.yul\":627:634   */\n      not\n        /* \"#utility.yul\":622:624   */\n      0x1f\n        /* \"#utility.yul\":615:620   */\n      dup4\n        /* \"#utility.yul\":611:625   */\n      add\n        /* \"#utility.yul\":607:635   */\n      and\n        /* \"#utility.yul\":597:635   */\n      swap1\n      pop\n        /* \"#utility.yul\":539:641   */\n      swap2\n      swap1\n      pop\n      jump\t// out\n        /* \"#utility.yul\":647:1024   */\n    tag_136:\n        /* \"#utility.yul\":735:738   */\n      0x00\n        /* \"#utility.yul\":763:802   */\n      tag_177\n        /* \"#utility.yul\":796:801   */\n      dup3\n        /* \"#utility.yul\":763:802   */\n      tag_132\n      jump\t// in\n    tag_177:\n        /* \"#utility.yul\":818:889   */\n      tag_178\n        /* \"#utility.yul\":882:888   */\n      dup2\n        /* \"#utility.yul\":877:880   */\n      dup6\n        /* \"#utility.yul\":818:889   */\n      tag_133\n      jump\t// in\n    tag_178:\n        /* \"#utility.yul\":811:889   */\n      swap4\n      pop\n        /* \"#utility.yul\":898:963   */\n      tag_179\n        /* \"#utility.yul\":956:962   */\n      dup2\n        /* \"#utility.yul\":951:954   */\n      dup6\n        /* \"#utility.yul\":944:948   */\n      0x20\n        /* \"#utility.yul\":937:942   */\n      dup7\n        /* \"#utility.yul\":933:949   */\n      add\n        /* \"#utility.yul\":898:963   */\n      tag_134\n      jump\t// in\n    tag_179:\n        /* \"#utility.yul\":988:1017   */\n      tag_180\n        /* \"#utility.yul\":1010:1016   */\n      dup2\n        /* \"#utility.yul\":988:1017   */\n      tag_135\n      jump\t// in\n    tag_180:\n        /* \"#utility.yul\":983:986   */\n      dup5\n        /* \"#utility.yul\":979:1018   */\n      add\n        /* \"#utility.yul\":972:1018   */\n      swap2\n      pop\n        /* \"#utility.yul\":739:1024   */\n      pop\n        /* \"#utility.yul\":647:1024   */\n      swap3\n      swap2\n      pop\n      pop\n      jump\t// out\n        /* \"#utility.yul\":1030:1343   */\n    tag_18:\n        /* \"#utility.yul\":1143:1147   */\n      0x00\n        /* \"#utility.yul\":1181:1183   */\n      0x20\n        /* \"#utility.yul\":1170:1179   */\n      dup3\n        /* \"#utility.yul\":1166:1184   */\n      add\n        /* \"#utility.yul\":1158:1184   */\n      swap1\n      pop\n        /* \"#utility.yul\":1230:1239   */\n      dup2\n        /* \"#utility.yul\":1224:1228   */\n      dup2\n        /* \"#utility.yul\":1220:1240   */\n      sub\n        /* \"#utility.yul\":1216:1217   */\n      0x00\n        /* \"#utility.yul\":1205:1214   */\n      dup4\n        /* \"#utility.yul\":1201:1218   */\n      add\n        /* \"#utility.yul\":1194:1241   */\n      mstore\n        /* \"#utility.yul\":1258:1336   */\n      tag_182\n        /* \"#utility.yul\":1331:1335   */\n      dup2\n        /* \"#utility.yul\":1322:1328   */\n      dup5\n        /* \"#utility.yul\":1258:1336   */\n      tag_136\n      jump\t// in\n    tag_182:\n        /* \"#utility.yul\":1250:1336   */\n      swap1\n      pop\n        /* \"#utility.yul\":1030:1343   */\n      swap3\n      swap2\n      pop\n      pop\n      jump\t// out\n        /* \"#utility.yul\":1430:1547   */\n    tag_138:\n        /* \"#utility.yul\":1539:1540   */\n      0x00\n        /* \"#utility.yul\":1536:1537   */\n      dup1\n        /* \"#utility.yul\":1529:1541   */\n      revert\n        /* \"#utility.yul\":1676:1802   */\n    tag_140:\n        /* \"#utility.yul\":1713:1720   */\n      0x00\n        /* \"#utility.yul\":1753:1795   */\n      0xffffffffffffffffffffffffffffffffffffffff\n        /* \"#utility.yul\":1746:1751   */\n      dup3\n        /* \"#utility.yul\":1742:1796   */\n      and\n        /* \"#utility.yul\":1731:1796   */\n      swap1\n      pop\n        /* \"#utility.yul\":1676:1802   */\n      swap2\n      swap1\n      pop\n      jump\t// out\n        /* \"#utility.yul\":1808:1904   */\n    tag_141:\n        /* \"#utility.yul\":1845:1852   */\n      0x00\n        /* \"#utility.yul\":1874:1898   */\n      tag_188\n        /* \"#utility.yul\":1892:1897   */\n      dup3\n        /* \"#utility.yul\":1874:1898   */\n      tag_140\n      jump\t// in\n    tag_188:\n        /* \"#utility.yul\":1863:1898   */\n      swap1\n      pop\n        /* \"#utility.yul\":1808:1904   */\n      swap2\n      swap1\n      pop\n      jump\t// out\n        /* \"#utility.yul\":1910:2032   */\n    tag_142:\n        /* \"#utility.yul\":1983:2007   */\n      tag_190\n        /* \"#utility.yul\":2001:2006   */\n      dup2\n        /* \"#utility.yul\":1983:2007   */\n      tag_141\n      jump\t// in\n    tag_190:\n        /* \"#utility.yul\":1976:1981   */\n      dup2\n        /* \"#utility.yul\":1973:2008   */\n      eq\n        /* \"#utility.yul\":1963:2026   */\n      tag_191\n      jumpi\n        /* \"#utility.yul\":2022:2023   */\n      0x00\n        /* \"#utility.yul\":2019:2020   */\n      dup1\n        /* \"#utility.yul\":2012:2024   */\n      revert\n        /* \"#utility.yul\":1963:2026   */\n    tag_191:\n        /* \"#utility.yul\":1910:2032   */\n      pop\n      jump\t// out\n        /* \"#utility.yul\":2038:2177   */\n    tag_143:\n        /* \"#utility.yul\":2084:2089   */\n      0x00\n        /* \"#utility.yul\":2122:2128   */\n      dup2\n        /* \"#utility.yul\":2109:2129   */\n      calldataload\n        /* \"#utility.yul\":2100:2129   */\n      swap1\n      pop\n        /* \"#utility.yul\":2138:2171   */\n      tag_193\n        /* \"#utility.yul\":2165:2170   */\n      dup2\n        /* \"#utility.yul\":2138:2171   */\n      tag_142\n      jump\t// in\n    tag_193:\n        /* \"#utility.yul\":2038:2177   */\n      swap3\n      swap2\n      pop\n      pop\n      jump\t// out\n        /* \"#utility.yul\":2183:2260   */\n    tag_144:\n        /* \"#utility.yul\":2220:2227   */\n      0x00\n        /* \"#utility.yul\":2249:2254   */\n      dup2\n        /* \"#utility.yul\":2238:2254   */\n      swap1\n      pop\n        /* \"#utility.yul\":2183:2260   */\n      swap2\n      swap1\n      pop\n      jump\t// out\n        /* \"#utility.yul\":2266:2388   */\n    tag_145:\n        /* \"#utility.yul\":2339:2363   */\n      tag_196\n        /* \"#utility.yul\":2357:2362   */\n      dup2\n        /* \"#utility.yul\":2339:2363   */\n      tag_144\n      jump\t// in\n    tag_196:\n        /* \"#utility.yul\":2332:2337   */\n      dup2\n        /* \"#utility.yul\":2329:2364   */\n      eq\n        /* \"#utility.yul\":2319:2382   */\n      tag_197\n      jumpi\n        /* \"#utility.yul\":2378:2379   */\n      0x00\n        /* \"#utility.yul\":2375:2376   */\n      dup1\n        /* \"#utility.yul\":2368:2380   */\n      revert\n        /* \"#utility.yul\":2319:2382   */\n    tag_197:\n        /* \"#utility.yul\":2266:2388   */\n      pop\n      jump\t// out\n        /* \"#utility.yul\":2394:2533   */\n    tag_146:\n        /* \"#utility.yul\":2440:2445   */\n      0x00\n        /* \"#utility.yul\":2478:2484   */\n      dup2\n        /* \"#utility.yul\":2465:2485   */\n      calldataload\n        /* \"#utility.yul\":2456:2485   */\n      swap1\n      pop\n        /* \"#utility.yul\":2494:2527   */\n      tag_199\n        /* \"#utility.yul\":2521:2526   */\n      dup2\n        /* \"#utility.yul\":2494:2527   */\n      tag_145\n      jump\t// in\n    tag_199:\n        /* \"#utility.yul\":2394:2533   */\n      swap3\n      swap2\n      pop\n      pop\n      jump\t// out\n        /* \"#utility.yul\":2539:3013   */\n    tag_21:\n        /* \"#utility.yul\":2607:2613   */\n      0x00\n        /* \"#utility.yul\":2615:2621   */\n      dup1\n        /* \"#utility.yul\":2664:2666   */\n      0x40\n        /* \"#utility.yul\":2652:2661   */\n      dup4\n        /* \"#utility.yul\":2643:2650   */\n      dup6\n        /* \"#utility.yul\":2639:2662   */\n      sub\n        /* \"#utility.yul\":2635:2667   */\n      slt\n        /* \"#utility.yul\":2632:2751   */\n      iszero\n      tag_201\n      jumpi\n        /* \"#utility.yul\":2670:2749   */\n      tag_202\n      tag_138\n      jump\t// in\n    tag_202:\n        /* \"#utility.yul\":2632:2751   */\n    tag_201:\n        /* \"#utility.yul\":2790:2791   */\n      0x00\n        /* \"#utility.yul\":2815:2868   */\n      tag_203\n        /* \"#utility.yul\":2860:2867   */\n      dup6\n        /* \"#utility.yul\":2851:2857   */\n      dup3\n        /* \"#utility.yul\":2840:2849   */\n      dup7\n        /* \"#utility.yul\":2836:2858   */\n      add\n        /* \"#utility.yul\":2815:2868   */\n      tag_143\n      jump\t// in\n    tag_203:\n        /* \"#utility.yul\":2805:2868   */\n      swap3\n      pop\n        /* \"#utility.yul\":2761:2878   */\n      pop\n        /* \"#utility.yul\":2917:2919   */\n      0x20\n        /* \"#utility.yul\":2943:2996   */\n      tag_204\n        /* \"#utility.yul\":2988:2995   */\n      dup6\n        /* \"#utility.yul\":2979:2985   */\n      dup3\n        /* \"#utility.yul\":2968:2977   */\n      dup7\n        /* \"#utility.yul\":2964:2986   */\n      add\n        /* \"#utility.yul\":2943:2996   */\n      tag_146\n      jump\t// in\n    tag_204:\n        /* \"#utility.yul\":2933:2996   */\n      swap2\n      pop\n        /* \"#utility.yul\":2888:3006   */\n      pop\n        /* \"#utility.yul\":2539:3013   */\n      swap3\n      pop\n      swap3\n      swap1\n      pop\n      jump\t// out\n        /* \"#utility.yul\":3019:3109   */\n    tag_147:\n        /* \"#utility.yul\":3053:3060   */\n      0x00\n        /* \"#utility.yul\":3096:3101   */\n      dup2\n        /* \"#utility.yul\":3089:3102   */\n      iszero\n        /* \"#utility.yul\":3082:3103   */\n      iszero\n        /* \"#utility.yul\":3071:3103   */\n      swap1\n      pop\n        /* \"#utility.yul\":3019:3109   */\n      swap2\n      swap1\n      pop\n      jump\t// out\n        /* \"#utility.yul\":3115:3224   */\n    tag_148:\n        /* \"#utility.yul\":3196:3217   */\n      tag_207\n        /* \"#utility.yul\":3211:3216   */\n      dup2\n        /* \"#utility.yul\":3196:3217   */\n      tag_147\n      jump\t// in\n    tag_207:\n        /* \"#utility.yul\":3191:3194   */\n      dup3\n        /* \"#utility.yul\":3184:3218   */\n      mstore\n        /* \"#utility.yul\":3115:3224   */\n      pop\n      pop\n      jump\t// out\n        /* \"#utility.yul\":3230:3440   */\n    tag_24:\n        /* \"#utility.yul\":3317:3321   */\n      0x00\n        /* \"#utility.yul\":3355:3357   */\n      0x20\n        /* \"#utility.yul\":3344:3353   */\n      dup3\n        /* \"#utility.yul\":3340:3358   */\n      add\n        /* \"#utility.yul\":3332:3358   */\n      swap1\n      pop\n        /* \"#utility.yul\":3368:3433   */\n      tag_209\n        /* \"#utility.yul\":3430:3431   */\n      0x00\n        /* \"#utility.yul\":3419:3428   */\n      dup4\n        /* \"#utility.yul\":3415:3432   */\n      add\n        /* \"#utility.yul\":3406:3412   */\n      dup5\n        /* \"#utility.yul\":3368:3433   */\n      tag_148\n      jump\t// in\n    tag_209:\n        /* \"#utility.yul\":3230:3440   */\n      swap3\n      swap2\n      pop\n      pop\n      jump\t// out\n        /* \"#utility.yul\":3446:3564   */\n    tag_149:\n        /* \"#utility.yul\":3533:3557   */\n      tag_211\n        /* \"#utility.yul\":3551:3556   */\n      dup2\n        /* \"#utility.yul\":3533:3557   */\n      tag_144\n      jump\t// in\n    tag_211:\n        /* \"#utility.yul\":3528:3531   */\n      dup3\n        /* \"#utility.yul\":3521:3558   */\n      mstore\n        /* \"#utility.yul\":3446:3564   */\n      pop\n      pop\n      jump\t// out\n        /* \"#utility.yul\":3570:3792   */\n    tag_28:\n        /* \"#utility.yul\":3663:3667   */\n      0x00\n        /* \"#utility.yul\":3701:3703   */\n      0x20\n        /* \"#utility.yul\":3690:3699   */\n      dup3\n        /* \"#utility.yul\":3686:3704   */\n      add\n        /* \"#utility.yul\":3678:3704   */\n      swap1\n      pop\n        /* \"#utility.yul\":3714:3785   */\n      tag_213\n        /* \"#utility.yul\":3782:3783   */\n      0x00\n        /* \"#utility.yul\":3771:3780   */\n      dup4\n        /* \"#utility.yul\":3767:3784   */\n      add\n        /* \"#utility.yul\":3758:3764   */\n      dup5\n        /* \"#utility.yul\":3714:3785   */\n      tag_149\n      jump\t// in\n    tag_213:\n        /* \"#utility.yul\":3570:3792   */\n      swap3\n      swap2\n      pop\n      pop\n      jump\t// out\n        /* \"#utility.yul\":3798:4417   */\n    tag_31:\n        /* \"#utility.yul\":3875:3881   */\n      0x00\n        /* \"#utility.yul\":3883:3889   */\n      dup1\n        /* \"#utility.yul\":3891:3897   */\n      0x00\n        /* \"#utility.yul\":3940:3942   */\n      0x60\n        /* \"#utility.yul\":3928:3937   */\n      dup5\n        /* \"#utility.yul\":3919:3926   */\n      dup7\n        /* \"#utility.yul\":3915:3938   */\n      sub\n        /* \"#utility.yul\":3911:3943   */\n      slt\n        /* \"#utility.yul\":3908:4027   */\n      iszero\n      tag_215\n      jumpi\n        /* \"#utility.yul\":3946:4025   */\n      tag_216\n      tag_138\n      jump\t// in\n    tag_216:\n        /* \"#utility.yul\":3908:4027   */\n    tag_215:\n        /* \"#utility.yul\":4066:4067   */\n      0x00\n        /* \"#utility.yul\":4091:4144   */\n      tag_217\n        /* \"#utility.yul\":4136:4143   */\n      dup7\n        /* \"#utility.yul\":4127:4133   */\n      dup3\n        /* \"#utility.yul\":4116:4125   */\n      dup8\n        /* \"#utility.yul\":4112:4134   */\n      add\n        /* \"#utility.yul\":4091:4144   */\n      tag_143\n      jump\t// in\n    tag_217:\n        /* \"#utility.yul\":4081:4144   */\n      swap4\n      pop\n        /* \"#utility.yul\":4037:4154   */\n      pop\n        /* \"#utility.yul\":4193:4195   */\n      0x20\n        /* \"#utility.yul\":4219:4272   */\n      tag_218\n        /* \"#utility.yul\":4264:4271   */\n      dup7\n        /* \"#utility.yul\":4255:4261   */\n      dup3\n        /* \"#utility.yul\":4244:4253   */\n      dup8\n        /* \"#utility.yul\":4240:4262   */\n      add\n        /* \"#utility.yul\":4219:4272   */\n      tag_143\n      jump\t// in\n    tag_218:\n        /* \"#utility.yul\":4209:4272   */\n      swap3\n      pop\n        /* \"#utility.yul\":4164:4282   */\n      pop\n        /* \"#utility.yul\":4321:4323   */\n      0x40\n        /* \"#utility.yul\":4347:4400   */\n      tag_219\n        /* \"#utility.yul\":4392:4399   */\n      dup7\n        /* \"#utility.yul\":4383:4389   */\n      dup3\n        /* \"#utility.yul\":4372:4381   */\n      dup8\n        /* \"#utility.yul\":4368:4390   */\n      add\n        /* \"#utility.yul\":4347:4400   */\n      tag_146\n      jump\t// in\n    tag_219:\n        /* \"#utility.yul\":4337:4400   */\n      swap2\n      pop\n        /* \"#utility.yul\":4292:4410   */\n      pop\n        /* \"#utility.yul\":3798:4417   */\n      swap3\n      pop\n      swap3\n      pop\n      swap3\n      jump\t// out\n        /* \"#utility.yul\":4423:4509   */\n    tag_150:\n        /* \"#utility.yul\":4458:4465   */\n      0x00\n        /* \"#utility.yul\":4498:4502   */\n      0xff\n        /* \"#utility.yul\":4491:4496   */\n      dup3\n        /* \"#utility.yul\":4487:4503   */\n      and\n        /* \"#utility.yul\":4476:4503   */\n      swap1\n      pop\n        /* \"#utility.yul\":4423:4509   */\n      swap2\n      swap1\n      pop\n      jump\t// out\n        /* \"#utility.yul\":4515:4627   */\n    tag_151:\n        /* \"#utility.yul\":4598:4620   */\n      tag_222\n        /* \"#utility.yul\":4614:4619   */\n      dup2\n        /* \"#utility.yul\":4598:4620   */\n      tag_150\n      jump\t// in\n    tag_222:\n        /* \"#utility.yul\":4593:4596   */\n      dup3\n        /* \"#utility.yul\":4586:4621   */\n      mstore\n        /* \"#utility.yul\":4515:4627   */\n      pop\n      pop\n      jump\t// out\n        /* \"#utility.yul\":4633:4847   */\n    tag_37:\n        /* \"#utility.yul\":4722:4726   */\n      0x00\n        /* \"#utility.yul\":4760:4762   */\n      0x20\n        /* \"#utility.yul\":4749:4758   */\n      dup3\n        /* \"#utility.yul\":4745:4763   */\n      add\n        /* \"#utility.yul\":4737:4763   */\n      swap1\n      pop\n        /* \"#utility.yul\":4773:4840   */\n      tag_224\n        /* \"#utility.yul\":4837:4838   */\n      0x00\n        /* \"#utility.yul\":4826:4835   */\n      dup4\n        /* \"#utility.yul\":4822:4839   */\n      add\n        /* \"#utility.yul\":4813:4819   */\n      dup5\n        /* \"#utility.yul\":4773:4840   */\n      tag_151\n      jump\t// in\n    tag_224:\n        /* \"#utility.yul\":4633:4847   */\n      swap3\n      swap2\n      pop\n      pop\n      jump\t// out\n        /* \"#utility.yul\":4853:5182   */\n    tag_40:\n        /* \"#utility.yul\":4912:4918   */\n      0x00\n        /* \"#utility.yul\":4961:4963   */\n      0x20\n        /* \"#utility.yul\":4949:4958   */\n      dup3\n        /* \"#utility.yul\":4940:4947   */\n      dup5\n        /* \"#utility.yul\":4936:4959   */\n      sub\n        /* \"#utility.yul\":4932:4964   */\n      slt\n        /* \"#utility.yul\":4929:5048   */\n      iszero\n      tag_226\n      jumpi\n        /* \"#utility.yul\":4967:5046   */\n      tag_227\n      tag_138\n      jump\t// in\n    tag_227:\n        /* \"#utility.yul\":4929:5048   */\n    tag_226:\n        /* \"#utility.yul\":5087:5088   */\n      0x00\n        /* \"#utility.yul\":5112:5165   */\n      tag_228\n        /* \"#utility.yul\":5157:5164   */\n      dup5\n        /* \"#utility.yul\":5148:5154   */\n      dup3\n        /* \"#utility.yul\":5137:5146   */\n      dup6\n        /* \"#utility.yul\":5133:5155   */\n      add\n        /* \"#utility.yul\":5112:5165   */\n      tag_143\n      jump\t// in\n    tag_228:\n        /* \"#utility.yul\":5102:5165   */\n      swap2\n      pop\n        /* \"#utility.yul\":5058:5175   */\n      pop\n        /* \"#utility.yul\":4853:5182   */\n      swap3\n      swap2\n      pop\n      pop\n      jump\t// out\n        /* \"#utility.yul\":5188:5662   */\n    tag_60:\n        /* \"#utility.yul\":5256:5262   */\n      0x00\n        /* \"#utility.yul\":5264:5270   */\n      dup1\n        /* \"#utility.yul\":5313:5315   */\n      0x40\n        /* \"#utility.yul\":5301:5310   */\n      dup4\n        /* \"#utility.yul\":5292:5299   */\n      dup6\n        /* \"#utility.yul\":5288:5311   */\n      sub\n        /* \"#utility.yul\":5284:5316   */\n      slt\n        /* \"#utility.yul\":5281:5400   */\n      iszero\n      tag_230\n      jumpi\n        /* \"#utility.yul\":5319:5398   */\n      tag_231\n      tag_138\n      jump\t// in\n    tag_231:\n        /* \"#utility.yul\":5281:5400   */\n    tag_230:\n        /* \"#utility.yul\":5439:5440   */\n      0x00\n        /* \"#utility.yul\":5464:5517   */\n      tag_232\n        /* \"#utility.yul\":5509:5516   */\n      dup6\n        /* \"#utility.yul\":5500:5506   */\n      dup3\n        /* \"#utility.yul\":5489:5498   */\n      dup7\n        /* \"#utility.yul\":5485:5507   */\n      add\n        /* \"#utility.yul\":5464:5517   */\n      tag_143\n      jump\t// in\n    tag_232:\n        /* \"#utility.yul\":5454:5517   */\n      swap3\n      pop\n        /* \"#utility.yul\":5410:5527   */\n      pop\n        /* \"#utility.yul\":5566:5568   */\n      0x20\n        /* \"#utility.yul\":5592:5645   */\n      tag_233\n        /* \"#utility.yul\":5637:5644   */\n      dup6\n        /* \"#utility.yul\":5628:5634   */\n      dup3\n        /* \"#utility.yul\":5617:5626   */\n      dup7\n        /* \"#utility.yul\":5613:5635   */\n      add\n        /* \"#utility.yul\":5592:5645   */\n      tag_143\n      jump\t// in\n    tag_233:\n        /* \"#utility.yul\":5582:5645   */\n      swap2\n      pop\n        /* \"#utility.yul\":5537:5655   */\n      pop\n        /* \"#utility.yul\":5188:5662   */\n      swap3\n      pop\n      swap3\n      swap1\n      pop\n      jump\t// out\n        /* \"#utility.yul\":5668:5848   */\n    tag_152:\n        /* \"#utility.yul\":5716:5793   */\n      0x4e487b7100000000000000000000000000000000000000000000000000000000\n        /* \"#utility.yul\":5713:5714   */\n      0x00\n        /* \"#utility.yul\":5706:5794   */\n      mstore\n        /* \"#utility.yul\":5813:5817   */\n      0x22\n        /* \"#utility.yul\":5810:5811   */\n      0x04\n        /* \"#utility.yul\":5803:5818   */\n      mstore\n        /* \"#utility.yul\":5837:5841   */\n      0x24\n        /* \"#utility.yul\":5834:5835   */\n      0x00\n        /* \"#utility.yul\":5827:5842   */\n      revert\n        /* \"#utility.yul\":5854:6174   */\n    tag_65:\n        /* \"#utility.yul\":5898:5904   */\n      0x00\n        /* \"#utility.yul\":5935:5936   */\n      0x02\n        /* \"#utility.yul\":5929:5933   */\n      dup3\n        /* \"#utility.yul\":5925:5937   */\n      div\n        /* \"#utility.yul\":5915:5937   */\n      swap1\n      pop\n        /* \"#utility.yul\":5982:5983   */\n      0x01\n        /* \"#utility.yul\":5976:5980   */\n      dup3\n        /* \"#utility.yul\":5972:5984   */\n      and\n        /* \"#utility.yul\":6003:6021   */\n      dup1\n        /* \"#utility.yul\":5993:6074   */\n      tag_236\n      jumpi\n        /* \"#utility.yul\":6059:6063   */\n      0x7f\n        /* \"#utility.yul\":6051:6057   */\n      dup3\n        /* \"#utility.yul\":6047:6064   */\n      and\n        /* \"#utility.yul\":6037:6064   */\n      swap2\n      pop\n        /* \"#utility.yul\":5993:6074   */\n    tag_236:\n        /* \"#utility.yul\":6121:6123   */\n      0x20\n        /* \"#utility.yul\":6113:6119   */\n      dup3\n        /* \"#utility.yul\":6110:6124   */\n      lt\n        /* \"#utility.yul\":6090:6108   */\n      dup2\n        /* \"#utility.yul\":6087:6125   */\n      sub\n        /* \"#utility.yul\":6084:6168   */\n      tag_237\n      jumpi\n        /* \"#utility.yul\":6140:6158   */\n      tag_238\n      tag_152\n      jump\t// in\n    tag_238:\n        /* \"#utility.yul\":6084:6168   */\n    tag_237:\n        /* \"#utility.yul\":5905:6174   */\n      pop\n        /* \"#utility.yul\":5854:6174   */\n      swap2\n      swap1\n      pop\n      jump\t// out\n        /* \"#utility.yul\":6180:6360   */\n    tag_153:\n        /* \"#utility.yul\":6228:6305   */\n      0x4e487b7100000000000000000000000000000000000000000000000000000000\n        /* \"#utility.yul\":6225:6226   */\n      0x00\n        /* \"#utility.yul\":6218:6306   */\n      mstore\n        /* \"#utility.yul\":6325:6329   */\n      0x11\n        /* \"#utility.yul\":6322:6323   */\n      0x04\n        /* \"#utility.yul\":6315:6330   */\n      mstore\n        /* \"#utility.yul\":6349:6353   */\n      0x24\n        /* \"#utility.yul\":6346:6347   */\n      0x00\n        /* \"#utility.yul\":6339:6354   */\n      revert\n        /* \"#utility.yul\":6366:6557   */\n    tag_84:\n        /* \"#utility.yul\":6406:6409   */\n      0x00\n        /* \"#utility.yul\":6425:6445   */\n      tag_241\n        /* \"#utility.yul\":6443:6444   */\n      dup3\n        /* \"#utility.yul\":6425:6445   */\n      tag_144\n      jump\t// in\n    tag_241:\n        /* \"#utility.yul\":6420:6445   */\n      swap2\n      pop\n        /* \"#utility.yul\":6459:6479   */\n      tag_242\n        /* \"#utility.yul\":6477:6478   */\n      dup4\n        /* \"#utility.yul\":6459:6479   */\n      tag_144\n      jump\t// in\n    tag_242:\n        /* \"#utility.yul\":6454:6479   */\n      swap3\n      pop\n        /* \"#utility.yul\":6502:6503   */\n      dup3\n        /* \"#utility.yul\":6499:6500   */\n      dup3\n        /* \"#utility.yul\":6495:6504   */\n      add\n        /* \"#utility.yul\":6488:6504   */\n      swap1\n      pop\n        /* \"#utility.yul\":6523:6526   */\n      dup1\n        /* \"#utility.yul\":6520:6521   */\n      dup3\n        /* \"#utility.yul\":6517:6527   */\n      gt\n        /* \"#utility.yul\":6514:6550   */\n      iszero\n      tag_243\n      jumpi\n        /* \"#utility.yul\":6530:6548   */\n      tag_244\n      tag_153\n      jump\t// in\n    tag_244:\n        /* \"#utility.yul\":6514:6550   */\n    tag_243:\n        /* \"#utility.yul\":6366:6557   */\n      swap3\n      swap2\n      pop\n      pop\n      jump\t// out\n        /* \"#utility.yul\":6563:6787   */\n    tag_154:\n        /* \"#utility.yul\":6703:6737   */\n      0x45524332303a2064656372656173656420616c6c6f77616e63652062656c6f77\n        /* \"#utility.yul\":6699:6700   */\n      0x00\n        /* \"#utility.yul\":6691:6697   */\n      dup3\n        /* \"#utility.yul\":6687:6701   */\n      add\n        /* \"#utility.yul\":6680:6738   */\n      mstore\n        /* \"#utility.yul\":6772:6779   */\n      0x207a65726f000000000000000000000000000000000000000000000000000000\n        /* \"#utility.yul\":6767:6769   */\n      0x20\n        /* \"#utility.yul\":6759:6765   */\n      dup3\n        /* \"#utility.yul\":6755:6770   */\n      add\n        /* \"#utility.yul\":6748:6780   */\n      mstore\n        /* \"#utility.yul\":6563:6787   */\n      pop\n      jump\t// out\n        /* \"#utility.yul\":6793:7159   */\n    tag_155:\n        /* \"#utility.yul\":6935:6938   */\n      0x00\n        /* \"#utility.yul\":6956:7023   */\n      tag_247\n        /* \"#utility.yul\":7020:7022   */\n      0x25\n        /* \"#utility.yul\":7015:7018   */\n      dup4\n        /* \"#utility.yul\":6956:7023   */\n      tag_133\n      jump\t// in\n    tag_247:\n        /* \"#utility.yul\":6949:7023   */\n      swap2\n      pop\n        /* \"#utility.yul\":7032:7125   */\n      tag_248\n        /* \"#utility.yul\":7121:7124   */\n      dup3\n        /* \"#utility.yul\":7032:7125   */\n      tag_154\n      jump\t// in\n    tag_248:\n        /* \"#utility.yul\":7150:7152   */\n      0x40\n        /* \"#utility.yul\":7145:7148   */\n      dup3\n        /* \"#utility.yul\":7141:7153   */\n      add\n        /* \"#utility.yul\":7134:7153   */\n      swap1\n      pop\n        /* \"#utility.yul\":6793:7159   */\n      swap2\n      swap1\n      pop\n      jump\t// out\n        /* \"#utility.yul\":7165:7584   */\n    tag_94:\n        /* \"#utility.yul\":7331:7335   */\n      0x00\n        /* \"#utility.yul\":7369:7371   */\n      0x20\n        /* \"#utility.yul\":7358:7367   */\n      dup3\n        /* \"#utility.yul\":7354:7372   */\n      add\n        /* \"#utility.yul\":7346:7372   */\n      swap1\n      pop\n        /* \"#utility.yul\":7418:7427   */\n      dup2\n        /* \"#utility.yul\":7412:7416   */\n      dup2\n        /* \"#utility.yul\":7408:7428   */\n      sub\n        /* \"#utility.yul\":7404:7405   */\n      0x00\n        /* \"#utility.yul\":7393:7402   */\n      dup4\n        /* \"#utility.yul\":7389:7406   */\n      add\n        /* \"#utility.yul\":7382:7429   */\n      mstore\n        /* \"#utility.yul\":7446:7577   */\n      tag_250\n        /* \"#utility.yul\":7572:7576   */\n      dup2\n        /* \"#utility.yul\":7446:7577   */\n      tag_155\n      jump\t// in\n    tag_250:\n        /* \"#utility.yul\":7438:7577   */\n      swap1\n      pop\n        /* \"#utility.yul\":7165:7584   */\n      swap2\n      swap1\n      pop\n      jump\t// out\n        /* \"#utility.yul\":7590:7813   */\n    tag_156:\n        /* \"#utility.yul\":7730:7764   */\n      0x45524332303a20617070726f76652066726f6d20746865207a65726f20616464\n        /* \"#utility.yul\":7726:7727   */\n      0x00\n        /* \"#utility.yul\":7718:7724   */\n      dup3\n        /* \"#utility.yul\":7714:7728   */\n      add\n        /* \"#utility.yul\":7707:7765   */\n      mstore\n        /* \"#utility.yul\":7799:7805   */\n      0x7265737300000000000000000000000000000000000000000000000000000000\n        /* \"#utility.yul\":7794:7796   */\n      0x20\n        /* \"#utility.yul\":7786:7792   */\n      dup3\n        /* \"#utility.yul\":7782:7797   */\n      add\n        /* \"#utility.yul\":7775:7806   */\n      mstore\n        /* \"#utility.yul\":7590:7813   */\n      pop\n      jump\t// out\n        /* \"#utility.yul\":7819:8185   */\n    tag_157:\n        /* \"#utility.yul\":7961:7964   */\n      0x00\n        /* \"#utility.yul\":7982:8049   */\n      tag_253\n        /* \"#utility.yul\":8046:8048   */\n      0x24\n        /* \"#utility.yul\":8041:8044   */\n      dup4\n        /* \"#utility.yul\":7982:8049   */\n      tag_133\n      jump\t// in\n    tag_253:\n        /* \"#utility.yul\":7975:8049   */\n      swap2\n      pop\n        /* \"#utility.yul\":8058:8151   */\n      tag_254\n        /* \"#utility.yul\":8147:8150   */\n      dup3\n        /* \"#utility.yul\":8058:8151   */\n      tag_156\n      jump\t// in\n    tag_254:\n        /* \"#utility.yul\":8176:8178   */\n      0x40\n        /* \"#utility.yul\":8171:8174   */\n      dup3\n        /* \"#utility.yul\":8167:8179   */\n      add\n        /* \"#utility.yul\":8160:8179   */\n      swap1\n      pop\n        /* \"#utility.yul\":7819:8185   */\n      swap2\n      swap1\n      pop\n      jump\t// out\n        /* \"#utility.yul\":8191:8610   */\n    tag_102:\n        /* \"#utility.yul\":8357:8361   */\n      0x00\n        /* \"#utility.yul\":8395:8397   */\n      0x20\n        /* \"#utility.yul\":8384:8393   */\n      dup3\n        /* \"#utility.yul\":8380:8398   */\n      add\n        /* \"#utility.yul\":8372:8398   */\n      swap1\n      pop\n        /* \"#utility.yul\":8444:8453   */\n      dup2\n        /* \"#utility.yul\":8438:8442   */\n      dup2\n        /* \"#utility.yul\":8434:8454   */\n      sub\n        /* \"#utility.yul\":8430:8431   */\n      0x00\n        /* \"#utility.yul\":8419:8428   */\n      dup4\n        /* \"#utility.yul\":8415:8432   */\n      add\n        /* \"#utility.yul\":8408:8455   */\n      mstore\n        /* \"#utility.yul\":8472:8603   */\n      tag_256\n        /* \"#utility.yul\":8598:8602   */\n      dup2\n        /* \"#utility.yul\":8472:8603   */\n      tag_157\n      jump\t// in\n    tag_256:\n        /* \"#utility.yul\":8464:8603   */\n      swap1\n      pop\n        /* \"#utility.yul\":8191:8610   */\n      swap2\n      swap1\n      pop\n      jump\t// out\n        /* \"#utility.yul\":8616:8837   */\n    tag_158:\n        /* \"#utility.yul\":8756:8790   */\n      0x45524332303a20617070726f766520746f20746865207a65726f206164647265\n        /* \"#utility.yul\":8752:8753   */\n      0x00\n        /* \"#utility.yul\":8744:8750   */\n      dup3\n        /* \"#utility.yul\":8740:8754   */\n      add\n        /* \"#utility.yul\":8733:8791   */\n      mstore\n        /* \"#utility.yul\":8825:8829   */\n      0x7373000000000000000000000000000000000000000000000000000000000000\n        /* \"#utility.yul\":8820:8822   */\n      0x20\n        /* \"#utility.yul\":8812:8818   */\n      dup3\n        /* \"#utility.yul\":8808:8823   */\n      add\n        /* \"#utility.yul\":8801:8830   */\n      mstore\n        /* \"#utility.yul\":8616:8837   */\n      pop\n      jump\t// out\n        /* \"#utility.yul\":8843:9209   */\n    tag_159:\n        /* \"#utility.yul\":8985:8988   */\n      0x00\n        /* \"#utility.yul\":9006:9073   */\n      tag_259\n        /* \"#utility.yul\":9070:9072   */\n      0x22\n        /* \"#utility.yul\":9065:9068   */\n      dup4\n        /* \"#utility.yul\":9006:9073   */\n      tag_133\n      jump\t// in\n    tag_259:\n        /* \"#utility.yul\":8999:9073   */\n      swap2\n      pop\n        /* \"#utility.yul\":9082:9175   */\n      tag_260\n        /* \"#utility.yul\":9171:9174   */\n      dup3\n        /* \"#utility.yul\":9082:9175   */\n      tag_158\n      jump\t// in\n    tag_260:\n        /* \"#utility.yul\":9200:9202   */\n      0x40\n        /* \"#utility.yul\":9195:9198   */\n      dup3\n        /* \"#utility.yul\":9191:9203   */\n      add\n        /* \"#utility.yul\":9184:9203   */\n      swap1\n      pop\n        /* \"#utility.yul\":8843:9209   */\n      swap2\n      swap1\n      pop\n      jump\t// out\n        /* \"#utility.yul\":9215:9634   */\n    tag_105:\n        /* \"#utility.yul\":9381:9385   */\n      0x00\n        /* \"#utility.yul\":9419:9421   */\n      0x20\n        /* \"#utility.yul\":9408:9417   */\n      dup3\n        /* \"#utility.yul\":9404:9422   */\n      add\n        /* \"#utility.yul\":9396:9422   */\n      swap1\n      pop\n        /* \"#utility.yul\":9468:9477   */\n      dup2\n        /* \"#utility.yul\":9462:9466   */\n      dup2\n        /* \"#utility.yul\":9458:9478   */\n      sub\n        /* \"#utility.yul\":9454:9455   */\n      0x00\n        /* \"#utility.yul\":9443:9452   */\n      dup4\n        /* \"#utility.yul\":9439:9456   */\n      add\n        /* \"#utility.yul\":9432:9479   */\n      mstore\n        /* \"#utility.yul\":9496:9627   */\n      tag_262\n        /* \"#utility.yul\":9622:9626   */\n      dup2\n        /* \"#utility.yul\":9496:9627   */\n      tag_159\n      jump\t// in\n    tag_262:\n        /* \"#utility.yul\":9488:9627   */\n      swap1\n      pop\n        /* \"#utility.yul\":9215:9634   */\n      swap2\n      swap1\n      pop\n      jump\t// out\n        /* \"#utility.yul\":9640:9819   */\n    tag_160:\n        /* \"#utility.yul\":9780:9811   */\n      0x45524332303a20696e73756666696369656e7420616c6c6f77616e6365000000\n        /* \"#utility.yul\":9776:9777   */\n      0x00\n        /* \"#utility.yul\":9768:9774   */\n      dup3\n        /* \"#utility.yul\":9764:9778   */\n      add\n        /* \"#utility.yul\":9757:9812   */\n      mstore\n        /* \"#utility.yul\":9640:9819   */\n      pop\n      jump\t// out\n        /* \"#utility.yul\":9825:10191   */\n    tag_161:\n        /* \"#utility.yul\":9967:9970   */\n      0x00\n        /* \"#utility.yul\":9988:10055   */\n      tag_265\n        /* \"#utility.yul\":10052:10054   */\n      0x1d\n        /* \"#utility.yul\":10047:10050   */\n      dup4\n        /* \"#utility.yul\":9988:10055   */\n      tag_133\n      jump\t// in\n    tag_265:\n        /* \"#utility.yul\":9981:10055   */\n      swap2\n      pop\n        /* \"#utility.yul\":10064:10157   */\n      tag_266\n        /* \"#utility.yul\":10153:10156   */\n      dup3\n        /* \"#utility.yul\":10064:10157   */\n      tag_160\n      jump\t// in\n    tag_266:\n        /* \"#utility.yul\":10182:10184   */\n      0x20\n        /* \"#utility.yul\":10177:10180   */\n      dup3\n        /* \"#utility.yul\":10173:10185   */\n      add\n        /* \"#utility.yul\":10166:10185   */\n      swap1\n      pop\n        /* \"#utility.yul\":9825:10191   */\n      swap2\n      swap1\n      pop\n      jump\t// out\n        /* \"#utility.yul\":10197:10616   */\n    tag_112:\n        /* \"#utility.yul\":10363:10367   */\n      0x00\n        /* \"#utility.yul\":10401:10403   */\n      0x20\n        /* \"#utility.yul\":10390:10399   */\n      dup3\n        /* \"#utility.yul\":10386:10404   */\n      add\n        /* \"#utility.yul\":10378:10404   */\n      swap1\n      pop\n        /* \"#utility.yul\":10450:10459   */\n      dup2\n        /* \"#utility.yul\":10444:10448   */\n      dup2\n        /* \"#utility.yul\":10440:10460   */\n      sub\n        /* \"#utility.yul\":10436:10437   */\n      0x00\n        /* \"#utility.yul\":10425:10434   */\n      dup4\n        /* \"#utility.yul\":10421:10438   */\n      add\n        /* \"#utility.yul\":10414:10461   */\n      mstore\n        /* \"#utility.yul\":10478:10609   */\n      tag_268\n        /* \"#utility.yul\":10604:10608   */\n      dup2\n        /* \"#utility.yul\":10478:10609   */\n      tag_161\n      jump\t// in\n    tag_268:\n        /* \"#utility.yul\":10470:10609   */\n      swap1\n      pop\n        /* \"#utility.yul\":10197:10616   */\n      swap2\n      swap1\n      pop\n      jump\t// out\n        /* \"#utility.yul\":10622:10846   */\n    tag_162:\n        /* \"#utility.yul\":10762:10796   */\n      0x45524332303a207472616e736665722066726f6d20746865207a65726f206164\n        /* \"#utility.yul\":10758:10759   */\n      0x00\n        /* \"#utility.yul\":10750:10756   */\n      dup3\n        /* \"#utility.yul\":10746:10760   */\n      add\n        /* \"#utility.yul\":10739:10797   */\n      mstore\n        /* \"#utility.yul\":10831:10838   */\n      0x6472657373000000000000000000000000000000000000000000000000000000\n        /* \"#utility.yul\":10826:10828   */\n      0x20\n        /* \"#utility.yul\":10818:10824   */\n      dup3\n        /* \"#utility.yul\":10814:10829   */\n      add\n        /* \"#utility.yul\":10807:10839   */\n      mstore\n        /* \"#utility.yul\":10622:10846   */\n      pop\n      jump\t// out\n        /* \"#utility.yul\":10852:11218   */\n    tag_163:\n        /* \"#utility.yul\":10994:10997   */\n      0x00\n        /* \"#utility.yul\":11015:11082   */\n      tag_271\n        /* \"#utility.yul\":11079:11081   */\n      0x25\n        /* \"#utility.yul\":11074:11077   */\n      dup4\n        /* \"#utility.yul\":11015:11082   */\n      tag_133\n      jump\t// in\n    tag_271:\n        /* \"#utility.yul\":11008:11082   */\n      swap2\n      pop\n        /* \"#utility.yul\":11091:11184   */\n      tag_272\n        /* \"#utility.yul\":11180:11183   */\n      dup3\n        /* \"#utility.yul\":11091:11184   */\n      tag_162\n      jump\t// in\n    tag_272:\n        /* \"#utility.yul\":11209:11211   */\n      0x40\n        /* \"#utility.yul\":11204:11207   */\n      dup3\n        /* \"#utility.yul\":11200:11212   */\n      add\n        /* \"#utility.yul\":11193:11212   */\n      swap1\n      pop\n        /* \"#utility.yul\":10852:11218   */\n      swap2\n      swap1\n      pop\n      jump\t// out\n        /* \"#utility.yul\":11224:11643   */\n    tag_117:\n        /* \"#utility.yul\":11390:11394   */\n      0x00\n        /* \"#utility.yul\":11428:11430   */\n      0x20\n        /* \"#utility.yul\":11417:11426   */\n      dup3\n        /* \"#utility.yul\":11413:11431   */\n      add\n        /* \"#utility.yul\":11405:11431   */\n      swap1\n      pop\n        /* \"#utility.yul\":11477:11486   */\n      dup2\n        /* \"#utility.yul\":11471:11475   */\n      dup2\n        /* \"#utility.yul\":11467:11487   */\n      sub\n        /* \"#utility.yul\":11463:11464   */\n      0x00\n        /* \"#utility.yul\":11452:11461   */\n      dup4\n        /* \"#utility.yul\":11448:11465   */\n      add\n        /* \"#utility.yul\":11441:11488   */\n      mstore\n        /* \"#utility.yul\":11505:11636   */\n      tag_274\n        /* \"#utility.yul\":11631:11635   */\n      dup2\n        /* \"#utility.yul\":11505:11636   */\n      tag_163\n      jump\t// in\n    tag_274:\n        /* \"#utility.yul\":11497:11636   */\n      swap1\n      pop\n        /* \"#utility.yul\":11224:11643   */\n      swap2\n      swap1\n      pop\n      jump\t// out\n        /* \"#utility.yul\":11649:11871   */\n    tag_164:\n        /* \"#utility.yul\":11789:11823   */\n      0x45524332303a207472616e7366657220746f20746865207a65726f2061646472\n        /* \"#utility.yul\":11785:11786   */\n      0x00\n        /* \"#utility.yul\":11777:11783   */\n      dup3\n        /* \"#utility.yul\":11773:11787   */\n      add\n        /* \"#utility.yul\":11766:11824   */\n      mstore\n        /* \"#utility.yul\":11858:11863   */\n      0x6573730000000000000000000000000000000000000000000000000000000000\n        /* \"#utility.yul\":11853:11855   */\n      0x20\n        /* \"#utility.yul\":11845:11851   */\n      dup3\n        /* \"#utility.yul\":11841:11856   */\n      add\n        /* \"#utility.yul\":11834:11864   */\n      mstore\n        /* \"#utility.yul\":11649:11871   */\n      pop\n      jump\t// out\n        /* \"#utility.yul\":11877:12243   */\n    tag_165:\n        /* \"#utility.yul\":12019:12022   */\n      0x00\n        /* \"#utility.yul\":12040:12107   */\n      tag_277\n        /* \"#utility.yul\":12104:12106   */\n      0x23\n        /* \"#utility.yul\":12099:12102   */\n      dup4\n        /* \"#utility.yul\":12040:12107   */\n      tag_133\n      jump\t// in\n    tag_277:\n        /* \"#utility.yul\":12033:12107   */\n      swap2\n      pop\n        /* \"#utility.yul\":12116:12209   */\n      tag_278\n        /* \"#utility.yul\":12205:12208   */\n      dup3\n        /* \"#utility.yul\":12116:12209   */\n      tag_164\n      jump\t// in\n    tag_278:\n        /* \"#utility.yul\":12234:12236   */\n      0x40\n        /* \"#utility.yul\":12229:12232   */\n      dup3\n        /* \"#utility.yul\":12225:12237   */\n      add\n        /* \"#utility.yul\":12218:12237   */\n      swap1\n      pop\n        /* \"#utility.yul\":11877:12243   */\n      swap2\n      swap1\n      pop\n      jump\t// out\n        /* \"#utility.yul\":12249:12668   */\n    tag_120:\n        /* \"#utility.yul\":12415:12419   */\n      0x00\n        /* \"#utility.yul\":12453:12455   */\n      0x20\n        /* \"#utility.yul\":12442:12451   */\n      dup3\n        /* \"#utility.yul\":12438:12456   */\n      add\n        /* \"#utility.yul\":12430:12456   */\n      swap1\n      pop\n        /* \"#utility.yul\":12502:12511   */\n      dup2\n        /* \"#utility.yul\":12496:12500   */\n      dup2\n        /* \"#utility.yul\":12492:12512   */\n      sub\n        /* \"#utility.yul\":12488:12489   */\n      0x00\n        /* \"#utility.yul\":12477:12486   */\n      dup4\n        /* \"#utility.yul\":12473:12490   */\n      add\n        /* \"#utility.yul\":12466:12513   */\n      mstore\n        /* \"#utility.yul\":12530:12661   */\n      tag_280\n        /* \"#utility.yul\":12656:12660   */\n      dup2\n        /* \"#utility.yul\":12530:12661   */\n      tag_165\n      jump\t// in\n    tag_280:\n        /* \"#utility.yul\":12522:12661   */\n      swap1\n      pop\n        /* \"#utility.yul\":12249:12668   */\n      swap2\n      swap1\n      pop\n      jump\t// out\n        /* \"#utility.yul\":12674:12899   */\n    tag_166:\n        /* \"#utility.yul\":12814:12848   */\n      0x45524332303a207472616e7366657220616d6f756e7420657863656564732062\n        /* \"#utility.yul\":12810:12811   */\n      0x00\n        /* \"#utility.yul\":12802:12808   */\n      dup3\n        /* \"#utility.yul\":12798:12812   */\n      add\n        /* \"#utility.yul\":12791:12849   */\n      mstore\n        /* \"#utility.yul\":12883:12891   */\n      0x616c616e63650000000000000000000000000000000000000000000000000000\n        /* \"#utility.yul\":12878:12880   */\n      0x20\n        /* \"#utility.yul\":12870:12876   */\n      dup3\n        /* \"#utility.yul\":12866:12881   */\n      add\n        /* \"#utility.yul\":12859:12892   */\n      mstore\n        /* \"#utility.yul\":12674:12899   */\n      pop\n      jump\t// out\n        /* \"#utility.yul\":12905:13271   */\n    tag_167:\n        /* \"#utility.yul\":13047:13050   */\n      0x00\n        /* \"#utility.yul\":13068:13135   */\n      tag_283\n        /* \"#utility.yul\":13132:13134   */\n      0x26\n        /* \"#utility.yul\":13127:13130   */\n      dup4\n        /* \"#utility.yul\":13068:13135   */\n      tag_133\n      jump\t// in\n    tag_283:\n        /* \"#utility.yul\":13061:13135   */\n      swap2\n      pop\n        /* \"#utility.yul\":13144:13237   */\n      tag_284\n        /* \"#utility.yul\":13233:13236   */\n      dup3\n        /* \"#utility.yul\":13144:13237   */\n      tag_166\n      jump\t// in\n    tag_284:\n        /* \"#utility.yul\":13262:13264   */\n      0x40\n        /* \"#utility.yul\":13257:13260   */\n      dup3\n        /* \"#utility.yul\":13253:13265   */\n      add\n        /* \"#utility.yul\":13246:13265   */\n      swap1\n      pop\n        /* \"#utility.yul\":12905:13271   */\n      swap2\n      swap1\n      pop\n      jump\t// out\n        /* \"#utility.yul\":13277:13696   */\n    tag_125:\n        /* \"#utility.yul\":13443:13447   */\n      0x00\n        /* \"#utility.yul\":13481:13483   */\n      0x20\n        /* \"#utility.yul\":13470:13479   */\n      dup3\n        /* \"#utility.yul\":13466:13484   */\n      add\n        /* \"#utility.yul\":13458:13484   */\n      swap1\n      pop\n        /* \"#utility.yul\":13530:13539   */\n      dup2\n        /* \"#utility.yul\":13524:13528   */\n      dup2\n        /* \"#utility.yul\":13520:13540   */\n      sub\n        /* \"#utility.yul\":13516:13517   */\n      0x00\n        /* \"#utility.yul\":13505:13514   */\n      dup4\n        /* \"#utility.yul\":13501:13518   */\n      add\n        /* \"#utility.yul\":13494:13541   */\n      mstore\n        /* \"#utility.yul\":13558:13689   */\n      tag_286\n        /* \"#utility.yul\":13684:13688   */\n      dup2\n        /* \"#utility.yul\":13558:13689   */\n      tag_167\n      jump\t// in\n    tag_286:\n        /* \"#utility.yul\":13550:13689   */\n      swap1\n      pop\n        /* \"#utility.yul\":13277:13696   */\n      swap2\n      swap1\n      pop\n      jump\t// out\n\n    auxdata: 0xa2646970667358221220662bda666d2919c8e5a8e365a3e242297ca7cc1577b663c4f6fe9c577298ad4064736f6c63430008120033\n}\n",
				"bytecode": {
					"linkReferences": {},
					"object": "60806040523480156200001157600080fd5b50604051620018ae380380620018ae8339818101604052810190620000379190620001f6565b8160039081620000489190620004c6565b5080600490816200005a9190620004c6565b505050620005ad565b6000604051905090565b600080fd5b600080fd5b600080fd5b600080fd5b6000601f19601f8301169050919050565b7f4e487b7100000000000000000000000000000000000000000000000000000000600052604160045260246000fd5b620000cc8262000081565b810181811067ffffffffffffffff82111715620000ee57620000ed62000092565b5b80604052505050565b60006200010362000063565b9050620001118282620000c1565b919050565b600067ffffffffffffffff82111562000134576200013362000092565b5b6200013f8262000081565b9050602081019050919050565b60005b838110156200016c5780820151818401526020810190506200014f565b60008484015250505050565b60006200018f620001898462000116565b620000f7565b905082815260208101848484011115620001ae57620001ad6200007c565b5b620001bb8482856200014c565b509392505050565b600082601f830112620001db57620001da62000077565b5b8151620001ed84826020860162000178565b91505092915050565b6000806040838503121562000210576200020f6200006d565b5b600083015167ffffffffffffffff81111562000231576200023062000072565b5b6200023f85828601620001c3565b925050602083015167ffffffffffffffff81111562000263576200026262000072565b5b6200027185828601620001c3565b9150509250929050565b600081519050919050565b7f4e487b7100000000000000000000000000000000000000000000000000000000600052602260045260246000fd5b60006002820490506001821680620002ce57607f821691505b602082108103620002e457620002e362000286565b5b50919050565b60008190508160005260206000209050919050565b60006020601f8301049050919050565b600082821b905092915050565b6000600883026200034e7fffffffffffffffffffffffffffffffffffffffffffffffffffffffffffffffff826200030f565b6200035a86836200030f565b95508019841693508086168417925050509392505050565b6000819050919050565b6000819050919050565b6000620003a7620003a16200039b8462000372565b6200037c565b62000372565b9050919050565b6000819050919050565b620003c38362000386565b620003db620003d282620003ae565b8484546200031c565b825550505050565b600090565b620003f2620003e3565b620003ff818484620003b8565b505050565b5b8181101562000427576200041b600082620003e8565b60018101905062000405565b5050565b601f82111562000476576200044081620002ea565b6200044b84620002ff565b810160208510156200045b578190505b620004736200046a85620002ff565b83018262000404565b50505b505050565b600082821c905092915050565b60006200049b600019846008026200047b565b1980831691505092915050565b6000620004b6838362000488565b9150826002028217905092915050565b620004d1826200027b565b67ffffffffffffffff811115620004ed57620004ec62000092565b5b620004f98254620002b5565b620005068282856200042b565b600060209050601f8311600181146200053e576000841562000529578287015190505b620005358582620004a8565b865550620005a5565b601f1984166200054e86620002ea565b60005b82811015620005785784890151825560018201915060208501945060208101905062000551565b8683101562000598578489015162000594601f89168262000488565b8355505b6001600288020188555050505b505050505050565b6112f180620005bd6000396000f3fe608060405234801561001057600080fd5b50600436106100a95760003560e01c806370a082311161007157806370a082311461016857806393316dfd1461019857806395d89b41146101c8578063a457c2d7146101e6578063a9059cbb14610216578063dd62ed3e14610246576100a9565b806306fdde03146100ae578063095ea7b3146100cc57806318160ddd146100fc57806323b872dd1461011a578063313ce5671461014a575b600080fd5b6100b6610276565b6040516100c39190610bce565b60405180910390f35b6100e660048036038101906100e19190610c89565b610308565b6040516100f39190610ce4565b60405180910390f35b610104610324565b6040516101119190610d0e565b60405180910390f35b610134600480360381019061012f9190610d29565b61032e565b6040516101419190610ce4565b60405180910390f35b610152610356565b60405161015f9190610d98565b60405180910390f35b610182600480360381019061017d9190610db3565b61035f565b60405161018f9190610d0e565b60405180910390f35b6101b260048036038101906101ad9190610c89565b6103a7565b6040516101bf9190610ce4565b60405180910390f35b6101d061044a565b6040516101dd9190610bce565b60405180910390f35b61020060048036038101906101fb9190610c89565b6104dc565b60405161020d9190610ce4565b60405180910390f35b610230600480360381019061022b9190610c89565b6105bf565b60405161023d9190610ce4565b60405180910390f35b610260600480360381019061025b9190610de0565b6105db565b60405161026d9190610d0e565b60405180910390f35b60606003805461028590610e4f565b80601f01602080910402602001604051908101604052809291908181526020018280546102b190610e4f565b80156102fe5780601f106102d3576101008083540402835291602001916102fe565b820191906000526020600020905b8154815290600101906020018083116102e157829003601f168201915b5050505050905090565b600080339050610319818585610662565b600191505092915050565b6000600254905090565b60008033905061033f85828561082b565b61034a8585856108b5565b60019150509392505050565b60006012905090565b60008060008373ffffffffffffffffffffffffffffffffffffffff1673ffffffffffffffffffffffffffffffffffffffff168152602001908152602001600020549050919050565b60008033905061043f818585600160008673ffffffffffffffffffffffffffffffffffffffff1673ffffffffffffffffffffffffffffffffffffffff16815260200190815260200160002060008973ffffffffffffffffffffffffffffffffffffffff1673ffffffffffffffffffffffffffffffffffffffff1681526020019081526020016000205461043a9190610eaf565b610662565b600191505092915050565b60606004805461045990610e4f565b80601f016020809104026020016040519081016040528092919081815260200182805461048590610e4f565b80156104d25780601f106104a7576101008083540402835291602001916104d2565b820191906000526020600020905b8154815290600101906020018083116104b557829003601f168201915b5050505050905090565b6000803390506000600160008373ffffffffffffffffffffffffffffffffffffffff1673ffffffffffffffffffffffffffffffffffffffff16815260200190815260200160002060008673ffffffffffffffffffffffffffffffffffffffff1673ffffffffffffffffffffffffffffffffffffffff168152602001908152602001600020549050838110156105a6576040517f08c379a000000000000000000000000000000000000000000000000000000000815260040161059d90610f55565b60405180910390fd5b6105b38286868403610662565b60019250505092915050565b6000803390506105d08185856108b5565b600191505092915050565b6000600160008473ffffffffffffffffffffffffffffffffffffffff1673ffffffffffffffffffffffffffffffffffffffff16815260200190815260200160002060008373ffffffffffffffffffffffffffffffffffffffff1673ffffffffffffffffffffffffffffffffffffffff16815260200190815260200160002054905092915050565b600073ffffffffffffffffffffffffffffffffffffffff168373ffffffffffffffffffffffffffffffffffffffff16036106d1576040517f08c379a00000000000000000000000000000000000000000000000000000000081526004016106c890610fe7565b60405180910390fd5b600073ffffffffffffffffffffffffffffffffffffffff168273ffffffffffffffffffffffffffffffffffffffff1603610740576040517f08c379a000000000000000000000000000000000000000000000000000000000815260040161073790611079565b60405180910390fd5b80600160008573ffffffffffffffffffffffffffffffffffffffff1673ffffffffffffffffffffffffffffffffffffffff16815260200190815260200160002060008473ffffffffffffffffffffffffffffffffffffffff1673ffffffffffffffffffffffffffffffffffffffff168152602001908152602001600020819055508173ffffffffffffffffffffffffffffffffffffffff168373ffffffffffffffffffffffffffffffffffffffff167f8c5be1e5ebec7d5bd14f71427d1e84f3dd0314c0f7b2291e5b200ac8c7c3b9258360405161081e9190610d0e565b60405180910390a3505050565b600061083784846105db565b90507fffffffffffffffffffffffffffffffffffffffffffffffffffffffffffffffff81146108af57818110156108a3576040517f08c379a000000000000000000000000000000000000000000000000000000000815260040161089a906110e5565b60405180910390fd5b6108ae848484610662565b5b50505050565b600073ffffffffffffffffffffffffffffffffffffffff168373ffffffffffffffffffffffffffffffffffffffff1603610924576040517f08c379a000000000000000000000000000000000000000000000000000000000815260040161091b90611177565b60405180910390fd5b600073ffffffffffffffffffffffffffffffffffffffff168373ffffffffffffffffffffffffffffffffffffffff1603610993576040517f08c379a000000000000000000000000000000000000000000000000000000000815260040161098a90611209565b60405180910390fd5b61099e838383610b34565b60008060008573ffffffffffffffffffffffffffffffffffffffff1673ffffffffffffffffffffffffffffffffffffffff16815260200190815260200160002054905081811015610a24576040517f08c379a0000000000000000000000000000000000000000000000000000000008152600401610a1b9061129b565b60405180910390fd5b8181036000808673ffffffffffffffffffffffffffffffffffffffff1673ffffffffffffffffffffffffffffffffffffffff16815260200190815260200160002081905550816000808573ffffffffffffffffffffffffffffffffffffffff1673ffffffffffffffffffffffffffffffffffffffff1681526020019081526020016000206000828254610ab79190610eaf565b925050819055508273ffffffffffffffffffffffffffffffffffffffff168473ffffffffffffffffffffffffffffffffffffffff167fddf252ad1be2c89b69c2b068fc378daa952ba7f163c4a11628f55a4df523b3ef84604051610b1b9190610d0e565b60405180910390a3610b2e848484610b39565b50505050565b505050565b505050565b600081519050919050565b600082825260208201905092915050565b60005b83811015610b78578082015181840152602081019050610b5d565b60008484015250505050565b6000601f19601f8301169050919050565b6000610ba082610b3e565b610baa8185610b49565b9350610bba818560208601610b5a565b610bc381610b84565b840191505092915050565b60006020820190508181036000830152610be88184610b95565b905092915050565b600080fd5b600073ffffffffffffffffffffffffffffffffffffffff82169050919050565b6000610c2082610bf5565b9050919050565b610c3081610c15565b8114610c3b57600080fd5b50565b600081359050610c4d81610c27565b92915050565b6000819050919050565b610c6681610c53565b8114610c7157600080fd5b50565b600081359050610c8381610c5d565b92915050565b60008060408385031215610ca057610c9f610bf0565b5b6000610cae85828601610c3e565b9250506020610cbf85828601610c74565b9150509250929050565b60008115159050919050565b610cde81610cc9565b82525050565b6000602082019050610cf96000830184610cd5565b92915050565b610d0881610c53565b82525050565b6000602082019050610d236000830184610cff565b92915050565b600080600060608486031215610d4257610d41610bf0565b5b6000610d5086828701610c3e565b9350506020610d6186828701610c3e565b9250506040610d7286828701610c74565b9150509250925092565b600060ff82169050919050565b610d9281610d7c565b82525050565b6000602082019050610dad6000830184610d89565b92915050565b600060208284031215610dc957610dc8610bf0565b5b6000610dd784828501610c3e565b91505092915050565b60008060408385031215610df757610df6610bf0565b5b6000610e0585828601610c3e565b9250506020610e1685828601610c3e565b9150509250929050565b7f4e487b7100000000000000000000000000000000000000000000000000000000600052602260045260246000fd5b60006002820490506001821680610e6757607f821691505b602082108103610e7a57610e79610e20565b5b50919050565b7f4e487b7100000000000000000000000000000000000000000000000000000000600052601160045260246000fd5b6000610eba82610c53565b9150610ec583610c53565b9250828201905080821115610edd57610edc610e80565b5b92915050565b7f45524332303a2064656372656173656420616c6c6f77616e63652062656c6f7760008201527f207a65726f000000000000000000000000000000000000000000000000000000602082015250565b6000610f3f602583610b49565b9150610f4a82610ee3565b604082019050919050565b60006020820190508181036000830152610f6e81610f32565b9050919050565b7f45524332303a20617070726f76652066726f6d20746865207a65726f2061646460008201527f7265737300000000000000000000000000000000000000000000000000000000602082015250565b6000610fd1602483610b49565b9150610fdc82610f75565b604082019050919050565b6000602082019050818103600083015261100081610fc4565b9050919050565b7f45524332303a20617070726f766520746f20746865207a65726f20616464726560008201527f7373000000000000000000000000000000000000000000000000000000000000602082015250565b6000611063602283610b49565b915061106e82611007565b604082019050919050565b6000602082019050818103600083015261109281611056565b9050919050565b7f45524332303a20696e73756666696369656e7420616c6c6f77616e6365000000600082015250565b60006110cf601d83610b49565b91506110da82611099565b602082019050919050565b600060208201905081810360008301526110fe816110c2565b9050919050565b7f45524332303a207472616e736665722066726f6d20746865207a65726f20616460008201527f6472657373000000000000000000000000000000000000000000000000000000602082015250565b6000611161602583610b49565b915061116c82611105565b604082019050919050565b6000602082019050818103600083015261119081611154565b9050919050565b7f45524332303a207472616e7366657220746f20746865207a65726f206164647260008201527f6573730000000000000000000000000000000000000000000000000000000000602082015250565b60006111f3602383610b49565b91506111fe82611197565b604082019050919050565b60006020820190508181036000830152611222816111e6565b9050919050565b7f45524332303a207472616e7366657220616d6f756e742065786365656473206260008201527f616c616e63650000000000000000000000000000000000000000000000000000602082015250565b6000611285602683610b49565b915061129082611229565b604082019050919050565b600060208201905081810360008301526112b481611278565b905091905056fea2646970667358221220662bda666d2919c8e5a8e365a3e242297ca7cc1577b663c4f6fe9c577298ad4064736f6c63430008120033",
					"opcodes": "PUSH1 0x80 PUSH1 0x40 MSTORE CALLVALUE DUP1 ISZERO PUSH3 0x11 JUMPI PUSH1 0x0 DUP1 REVERT JUMPDEST POP PUSH1 0x40 MLOAD PUSH3 0x18AE CODESIZE SUB DUP1 PUSH3 0x18AE DUP4 CODECOPY DUP2 DUP2 ADD PUSH1 0x40 MSTORE DUP2 ADD SWAP1 PUSH3 0x37 SWAP2 SWAP1 PUSH3 0x1F6 JUMP JUMPDEST DUP2 PUSH1 0x3 SWAP1 DUP2 PUSH3 0x48 SWAP2 SWAP1 PUSH3 0x4C6 JUMP JUMPDEST POP DUP1 PUSH1 0x4 SWAP1 DUP2 PUSH3 0x5A SWAP2 SWAP1 PUSH3 0x4C6 JUMP JUMPDEST POP POP POP PUSH3 0x5AD JUMP JUMPDEST PUSH1 0x0 PUSH1 0x40 MLOAD SWAP1 POP SWAP1 JUMP JUMPDEST PUSH1 0x0 DUP1 REVERT JUMPDEST PUSH1 0x0 DUP1 REVERT JUMPDEST PUSH1 0x0 DUP1 REVERT JUMPDEST PUSH1 0x0 DUP1 REVERT JUMPDEST PUSH1 0x0 PUSH1 0x1F NOT PUSH1 0x1F DUP4 ADD AND SWAP1 POP SWAP2 SWAP1 POP JUMP JUMPDEST PUSH32 0x4E487B7100000000000000000000000000000000000000000000000000000000 PUSH1 0x0 MSTORE PUSH1 0x41 PUSH1 0x4 MSTORE PUSH1 0x24 PUSH1 0x0 REVERT JUMPDEST PUSH3 0xCC DUP3 PUSH3 0x81 JUMP JUMPDEST DUP2 ADD DUP2 DUP2 LT PUSH8 0xFFFFFFFFFFFFFFFF DUP3 GT OR ISZERO PUSH3 0xEE JUMPI PUSH3 0xED PUSH3 0x92 JUMP JUMPDEST JUMPDEST DUP1 PUSH1 0x40 MSTORE POP POP POP JUMP JUMPDEST PUSH1 0x0 PUSH3 0x103 PUSH3 0x63 JUMP JUMPDEST SWAP1 POP PUSH3 0x111 DUP3 DUP3 PUSH3 0xC1 JUMP JUMPDEST SWAP2 SWAP1 POP JUMP JUMPDEST PUSH1 0x0 PUSH8 0xFFFFFFFFFFFFFFFF DUP3 GT ISZERO PUSH3 0x134 JUMPI PUSH3 0x133 PUSH3 0x92 JUMP JUMPDEST JUMPDEST PUSH3 0x13F DUP3 PUSH3 0x81 JUMP JUMPDEST SWAP1 POP PUSH1 0x20 DUP2 ADD SWAP1 POP SWAP2 SWAP1 POP JUMP JUMPDEST PUSH1 0x0 JUMPDEST DUP4 DUP2 LT ISZERO PUSH3 0x16C JUMPI DUP1 DUP3 ADD MLOAD DUP2 DUP5 ADD MSTORE PUSH1 0x20 DUP2 ADD SWAP1 POP PUSH3 0x14F JUMP JUMPDEST PUSH1 0x0 DUP5 DUP5 ADD MSTORE POP POP POP POP JUMP JUMPDEST PUSH1 0x0 PUSH3 0x18F PUSH3 0x189 DUP5 PUSH3 0x116 JUMP JUMPDEST PUSH3 0xF7 JUMP JUMPDEST SWAP1 POP DUP3 DUP2 MSTORE PUSH1 0x20 DUP2 ADD DUP5 DUP5 DUP5 ADD GT ISZERO PUSH3 0x1AE JUMPI PUSH3 0x1AD PUSH3 0x7C JUMP JUMPDEST JUMPDEST PUSH3 0x1BB DUP5 DUP3 DUP6 PUSH3 0x14C JUMP JUMPDEST POP SWAP4 SWAP3 POP POP POP JUMP JUMPDEST PUSH1 0x0 DUP3 PUSH1 0x1F DUP4 ADD SLT PUSH3 0x1DB JUMPI PUSH3 0x1DA PUSH3 0x77 JUMP JUMPDEST JUMPDEST DUP2 MLOAD PUSH3 0x1ED DUP5 DUP3 PUSH1 0x20 DUP7 ADD PUSH3 0x178 JUMP JUMPDEST SWAP2 POP POP SWAP3 SWAP2 POP POP JUMP JUMPDEST PUSH1 0x0 DUP1 PUSH1 0x40 DUP4 DUP6 SUB SLT ISZERO PUSH3 0x210 JUMPI PUSH3 0x20F PUSH3 0x6D JUMP JUMPDEST JUMPDEST PUSH1 0x0 DUP4 ADD MLOAD PUSH8 0xFFFFFFFFFFFFFFFF DUP2 GT ISZERO PUSH3 0x231 JUMPI PUSH3 0x230 PUSH3 0x72 JUMP JUMPDEST JUMPDEST PUSH3 0x23F DUP6 DUP3 DUP7 ADD PUSH3 0x1C3 JUMP JUMPDEST SWAP3 POP POP PUSH1 0x20 DUP4 ADD MLOAD PUSH8 0xFFFFFFFFFFFFFFFF DUP2 GT ISZERO PUSH3 0x263 JUMPI PUSH3 0x262 PUSH3 0x72 JUMP JUMPDEST JUMPDEST PUSH3 0x271 DUP6 DUP3 DUP7 ADD PUSH3 0x1C3 JUMP JUMPDEST SWAP2 POP POP SWAP3 POP SWAP3 SWAP1 POP JUMP JUMPDEST PUSH1 0x0 DUP2 MLOAD SWAP1 POP SWAP2 SWAP1 POP JUMP JUMPDEST PUSH32 0x4E487B7100000000000000000000000000000000000000000000000000000000 PUSH1 0x0 MSTORE PUSH1 0x22 PUSH1 0x4 MSTORE PUSH1 0x24 PUSH1 0x0 REVERT JUMPDEST PUSH1 0x0 PUSH1 0x2 DUP3 DIV SWAP1 POP PUSH1 0x1 DUP3 AND DUP1 PUSH3 0x2CE JUMPI PUSH1 0x7F DUP3 AND SWAP2 POP JUMPDEST PUSH1 0x20 DUP3 LT DUP2 SUB PUSH3 0x2E4 JUMPI PUSH3 0x2E3 PUSH3 0x286 JUMP JUMPDEST JUMPDEST POP SWAP2 SWAP1 POP JUMP JUMPDEST PUSH1 0x0 DUP2 SWAP1 POP DUP2 PUSH1 0x0 MSTORE PUSH1 0x20 PUSH1 0x0 KECCAK256 SWAP1 POP SWAP2 SWAP1 POP JUMP JUMPDEST PUSH1 0x0 PUSH1 0x20 PUSH1 0x1F DUP4 ADD DIV SWAP1 POP SWAP2 SWAP1 POP JUMP JUMPDEST PUSH1 0x0 DUP3 DUP3 SHL SWAP1 POP SWAP3 SWAP2 POP POP JUMP JUMPDEST PUSH1 0x0 PUSH1 0x8 DUP4 MUL PUSH3 0x34E PUSH32 0xFFFFFFFFFFFFFFFFFFFFFFFFFFFFFFFFFFFFFFFFFFFFFFFFFFFFFFFFFFFFFFFF DUP3 PUSH3 0x30F JUMP JUMPDEST PUSH3 0x35A DUP7 DUP4 PUSH3 0x30F JUMP JUMPDEST SWAP6 POP DUP1 NOT DUP5 AND SWAP4 POP DUP1 DUP7 AND DUP5 OR SWAP3 POP POP POP SWAP4 SWAP3 POP POP POP JUMP JUMPDEST PUSH1 0x0 DUP2 SWAP1 POP SWAP2 SWAP1 POP JUMP JUMPDEST PUSH1 0x0 DUP2 SWAP1 POP SWAP2 SWAP1 POP JUMP JUMPDEST PUSH1 0x0 PUSH3 0x3A7 PUSH3 0x3A1 PUSH3 0x39B DUP5 PUSH3 0x372 JUMP JUMPDEST PUSH3 0x37C JUMP JUMPDEST PUSH3 0x372 JUMP JUMPDEST SWAP1 POP SWAP2 SWAP1 POP JUMP JUMPDEST PUSH1 0x0 DUP2 SWAP1 POP SWAP2 SWAP1 POP JUMP JUMPDEST PUSH3 0x3C3 DUP4 PUSH3 0x386 JUMP JUMPDEST PUSH3 0x3DB PUSH3 0x3D2 DUP3 PUSH3 0x3AE JUMP JUMPDEST DUP5 DUP5 SLOAD PUSH3 0x31C JUMP JUMPDEST DUP3 SSTORE POP POP POP POP JUMP JUMPDEST PUSH1 0x0 SWAP1 JUMP JUMPDEST PUSH3 0x3F2 PUSH3 0x3E3 JUMP JUMPDEST PUSH3 0x3FF DUP2 DUP5 DUP5 PUSH3 0x3B8 JUMP JUMPDEST POP POP POP JUMP JUMPDEST JUMPDEST DUP2 DUP2 LT ISZERO PUSH3 0x427 JUMPI PUSH3 0x41B PUSH1 0x0 DUP3 PUSH3 0x3E8 JUMP JUMPDEST PUSH1 0x1 DUP2 ADD SWAP1 POP PUSH3 0x405 JUMP JUMPDEST POP POP JUMP JUMPDEST PUSH1 0x1F DUP3 GT ISZERO PUSH3 0x476 JUMPI PUSH3 0x440 DUP2 PUSH3 0x2EA JUMP JUMPDEST PUSH3 0x44B DUP5 PUSH3 0x2FF JUMP JUMPDEST DUP2 ADD PUSH1 0x20 DUP6 LT ISZERO PUSH3 0x45B JUMPI DUP2 SWAP1 POP JUMPDEST PUSH3 0x473 PUSH3 0x46A DUP6 PUSH3 0x2FF JUMP JUMPDEST DUP4 ADD DUP3 PUSH3 0x404 JUMP JUMPDEST POP POP JUMPDEST POP POP POP JUMP JUMPDEST PUSH1 0x0 DUP3 DUP3 SHR SWAP1 POP SWAP3 SWAP2 POP POP JUMP JUMPDEST PUSH1 0x0 PUSH3 0x49B PUSH1 0x0 NOT DUP5 PUSH1 0x8 MUL PUSH3 0x47B JUMP JUMPDEST NOT DUP1 DUP4 AND SWAP2 POP POP SWAP3 SWAP2 POP POP JUMP JUMPDEST PUSH1 0x0 PUSH3 0x4B6 DUP4 DUP4 PUSH3 0x488 JUMP JUMPDEST SWAP2 POP DUP3 PUSH1 0x2 MUL DUP3 OR SWAP1 POP SWAP3 SWAP2 POP POP JUMP JUMPDEST PUSH3 0x4D1 DUP3 PUSH3 0x27B JUMP JUMPDEST PUSH8 0xFFFFFFFFFFFFFFFF DUP2 GT ISZERO PUSH3 0x4ED JUMPI PUSH3 0x4EC PUSH3 0x92 JUMP JUMPDEST JUMPDEST PUSH3 0x4F9 DUP3 SLOAD PUSH3 0x2B5 JUMP JUMPDEST PUSH3 0x506 DUP3 DUP3 DUP6 PUSH3 0x42B JUMP JUMPDEST PUSH1 0x0 PUSH1 0x20 SWAP1 POP PUSH1 0x1F DUP4 GT PUSH1 0x1 DUP2 EQ PUSH3 0x53E JUMPI PUSH1 0x0 DUP5 ISZERO PUSH3 0x529 JUMPI DUP3 DUP8 ADD MLOAD SWAP1 POP JUMPDEST PUSH3 0x535 DUP6 DUP3 PUSH3 0x4A8 JUMP JUMPDEST DUP7 SSTORE POP PUSH3 0x5A5 JUMP JUMPDEST PUSH1 0x1F NOT DUP5 AND PUSH3 0x54E DUP7 PUSH3 0x2EA JUMP JUMPDEST PUSH1 0x0 JUMPDEST DUP3 DUP2 LT ISZERO PUSH3 0x578 JUMPI DUP5 DUP10 ADD MLOAD DUP3 SSTORE PUSH1 0x1 DUP3 ADD SWAP2 POP PUSH1 0x20 DUP6 ADD SWAP5 POP PUSH1 0x20 DUP2 ADD SWAP1 POP PUSH3 0x551 JUMP JUMPDEST DUP7 DUP4 LT ISZERO PUSH3 0x598 JUMPI DUP5 DUP10 ADD MLOAD PUSH3 0x594 PUSH1 0x1F DUP10 AND DUP3 PUSH3 0x488 JUMP JUMPDEST DUP4 SSTORE POP JUMPDEST PUSH1 0x1 PUSH1 0x2 DUP9 MUL ADD DUP9 SSTORE POP POP POP JUMPDEST POP POP POP POP POP POP JUMP JUMPDEST PUSH2 0x12F1 DUP1 PUSH3 0x5BD PUSH1 0x0 CODECOPY PUSH1 0x0 RETURN INVALID PUSH1 0x80 PUSH1 0x40 MSTORE CALLVALUE DUP1 ISZERO PUSH2 0x10 JUMPI PUSH1 0x0 DUP1 REVERT JUMPDEST POP PUSH1 0x4 CALLDATASIZE LT PUSH2 0xA9 JUMPI PUSH1 0x0 CALLDATALOAD PUSH1 0xE0 SHR DUP1 PUSH4 0x70A08231 GT PUSH2 0x71 JUMPI DUP1 PUSH4 0x70A08231 EQ PUSH2 0x168 JUMPI DUP1 PUSH4 0x93316DFD EQ PUSH2 0x198 JUMPI DUP1 PUSH4 0x95D89B41 EQ PUSH2 0x1C8 JUMPI DUP1 PUSH4 0xA457C2D7 EQ PUSH2 0x1E6 JUMPI DUP1 PUSH4 0xA9059CBB EQ PUSH2 0x216 JUMPI DUP1 PUSH4 0xDD62ED3E EQ PUSH2 0x246 JUMPI PUSH2 0xA9 JUMP JUMPDEST DUP1 PUSH4 0x6FDDE03 EQ PUSH2 0xAE JUMPI DUP1 PUSH4 0x95EA7B3 EQ PUSH2 0xCC JUMPI DUP1 PUSH4 0x18160DDD EQ PUSH2 0xFC JUMPI DUP1 PUSH4 0x23B872DD EQ PUSH2 0x11A JUMPI DUP1 PUSH4 0x313CE567 EQ PUSH2 0x14A JUMPI JUMPDEST PUSH1 0x0 DUP1 REVERT JUMPDEST PUSH2 0xB6 PUSH2 0x276 JUMP JUMPDEST PUSH1 0x40 MLOAD PUSH2 0xC3 SWAP2 SWAP1 PUSH2 0xBCE JUMP JUMPDEST PUSH1 0x40 MLOAD DUP1 SWAP2 SUB SWAP1 RETURN JUMPDEST PUSH2 0xE6 PUSH1 0x4 DUP1 CALLDATASIZE SUB DUP2 ADD SWAP1 PUSH2 0xE1 SWAP2 SWAP1 PUSH2 0xC89 JUMP JUMPDEST PUSH2 0x308 JUMP JUMPDEST PUSH1 0x40 MLOAD PUSH2 0xF3 SWAP2 SWAP1 PUSH2 0xCE4 JUMP JUMPDEST PUSH1 0x40 MLOAD DUP1 SWAP2 SUB SWAP1 RETURN JUMPDEST PUSH2 0x104 PUSH2 0x324 JUMP JUMPDEST PUSH1 0x40 MLOAD PUSH2 0x111 SWAP2 SWAP1 PUSH2 0xD0E JUMP JUMPDEST PUSH1 0x40 MLOAD DUP1 SWAP2 SUB SWAP1 RETURN JUMPDEST PUSH2 0x134 PUSH1 0x4 DUP1 CALLDATASIZE SUB DUP2 ADD SWAP1 PUSH2 0x12F SWAP2 SWAP1 PUSH2 0xD29 JUMP JUMPDEST PUSH2 0x32E JUMP JUMPDEST PUSH1 0x40 MLOAD PUSH2 0x141 SWAP2 SWAP1 PUSH2 0xCE4 JUMP JUMPDEST PUSH1 0x40 MLOAD DUP1 SWAP2 SUB SWAP1 RETURN JUMPDEST PUSH2 0x152 PUSH2 0x356 JUMP JUMPDEST PUSH1 0x40 MLOAD PUSH2 0x15F SWAP2 SWAP1 PUSH2 0xD98 JUMP JUMPDEST PUSH1 0x40 MLOAD DUP1 SWAP2 SUB SWAP1 RETURN JUMPDEST PUSH2 0x182 PUSH1 0x4 DUP1 CALLDATASIZE SUB DUP2 ADD SWAP1 PUSH2 0x17D SWAP2 SWAP1 PUSH2 0xDB3 JUMP JUMPDEST PUSH2 0x35F JUMP JUMPDEST PUSH1 0x40 MLOAD PUSH2 0x18F SWAP2 SWAP1 PUSH2 0xD0E JUMP JUMPDEST PUSH1 0x40 MLOAD DUP1 SWAP2 SUB SWAP1 RETURN JUMPDEST PUSH2 0x1B2 PUSH1 0x4 DUP1 CALLDATASIZE SUB DUP2 ADD SWAP1 PUSH2 0x1AD SWAP2 SWAP1 PUSH2 0xC89 JUMP JUMPDEST PUSH2 0x3A7 JUMP JUMPDEST PUSH1 0x40 MLOAD PUSH2 0x1BF SWAP2 SWAP1 PUSH2 0xCE4 JUMP JUMPDEST PUSH1 0x40 MLOAD DUP1 SWAP2 SUB SWAP1 RETURN JUMPDEST PUSH2 0x1D0 PUSH2 0x44A JUMP JUMPDEST PUSH1 0x40 MLOAD PUSH2 0x1DD SWAP2 SWAP1 PUSH2 0xBCE JUMP JUMPDEST PUSH1 0x40 MLOAD DUP1 SWAP2 SUB SWAP1 RETURN JUMPDEST PUSH2 0x200 PUSH1 0x4 DUP1 CALLDATASIZE SUB DUP2 ADD SWAP1 PUSH2 0x1FB SWAP2 SWAP1 PUSH2 0xC89 JUMP JUMPDEST PUSH2 0x4DC JUMP JUMPDEST PUSH1 0x40 MLOAD PUSH2 0x20D SWAP2 SWAP1 PUSH2 0xCE4 JUMP JUMPDEST PUSH1 0x40 MLOAD DUP1 SWAP2 SUB SWAP1 RETURN JUMPDEST PUSH2 0x230 PUSH1 0x4 DUP1 CALLDATASIZE SUB DUP2 ADD SWAP1 PUSH2 0x22B SWAP2 SWAP1 PUSH2 0xC89 JUMP JUMPDEST PUSH2 0x5BF JUMP JUMPDEST PUSH1 0x40 MLOAD PUSH2 0x23D SWAP2 SWAP1 PUSH2 0xCE4 JUMP JUMPDEST PUSH1 0x40 MLOAD DUP1 SWAP2 SUB SWAP1 RETURN JUMPDEST PUSH2 0x260 PUSH1 0x4 DUP1 CALLDATASIZE SUB DUP2 ADD SWAP1 PUSH2 0x25B SWAP2 SWAP1 PUSH2 0xDE0 JUMP JUMPDEST PUSH2 0x5DB JUMP JUMPDEST PUSH1 0x40 MLOAD PUSH2 0x26D SWAP2 SWAP1 PUSH2 0xD0E JUMP JUMPDEST PUSH1 0x40 MLOAD DUP1 SWAP2 SUB SWAP1 RETURN JUMPDEST PUSH1 0x60 PUSH1 0x3 DUP1 SLOAD PUSH2 0x285 SWAP1 PUSH2 0xE4F JUMP JUMPDEST DUP1 PUSH1 0x1F ADD PUSH1 0x20 DUP1 SWAP2 DIV MUL PUSH1 0x20 ADD PUSH1 0x40 MLOAD SWAP1 DUP2 ADD PUSH1 0x40 MSTORE DUP1 SWAP3 SWAP2 SWAP1 DUP2 DUP2 MSTORE PUSH1 0x20 ADD DUP3 DUP1 SLOAD PUSH2 0x2B1 SWAP1 PUSH2 0xE4F JUMP JUMPDEST DUP1 ISZERO PUSH2 0x2FE JUMPI DUP1 PUSH1 0x1F LT PUSH2 0x2D3 JUMPI PUSH2 0x100 DUP1 DUP4 SLOAD DIV MUL DUP4 MSTORE SWAP2 PUSH1 0x20 ADD SWAP2 PUSH2 0x2FE JUMP JUMPDEST DUP3 ADD SWAP2 SWAP1 PUSH1 0x0 MSTORE PUSH1 0x20 PUSH1 0x0 KECCAK256 SWAP1 JUMPDEST DUP2 SLOAD DUP2 MSTORE SWAP1 PUSH1 0x1 ADD SWAP1 PUSH1 0x20 ADD DUP1 DUP4 GT PUSH2 0x2E1 JUMPI DUP3 SWAP1 SUB PUSH1 0x1F AND DUP3 ADD SWAP2 JUMPDEST POP POP POP POP POP SWAP1 POP SWAP1 JUMP JUMPDEST PUSH1 0x0 DUP1 CALLER SWAP1 POP PUSH2 0x319 DUP2 DUP6 DUP6 PUSH2 0x662 JUMP JUMPDEST PUSH1 0x1 SWAP2 POP POP SWAP3 SWAP2 POP POP JUMP JUMPDEST PUSH1 0x0 PUSH1 0x2 SLOAD SWAP1 POP SWAP1 JUMP JUMPDEST PUSH1 0x0 DUP1 CALLER SWAP1 POP PUSH2 0x33F DUP6 DUP3 DUP6 PUSH2 0x82B JUMP JUMPDEST PUSH2 0x34A DUP6 DUP6 DUP6 PUSH2 0x8B5 JUMP JUMPDEST PUSH1 0x1 SWAP2 POP POP SWAP4 SWAP3 POP POP POP JUMP JUMPDEST PUSH1 0x0 PUSH1 0x12 SWAP1 POP SWAP1 JUMP JUMPDEST PUSH1 0x0 DUP1 PUSH1 0x0 DUP4 PUSH20 0xFFFFFFFFFFFFFFFFFFFFFFFFFFFFFFFFFFFFFFFF AND PUSH20 0xFFFFFFFFFFFFFFFFFFFFFFFFFFFFFFFFFFFFFFFF AND DUP2 MSTORE PUSH1 0x20 ADD SWAP1 DUP2 MSTORE PUSH1 0x20 ADD PUSH1 0x0 KECCAK256 SLOAD SWAP1 POP SWAP2 SWAP1 POP JUMP JUMPDEST PUSH1 0x0 DUP1 CALLER SWAP1 POP PUSH2 0x43F DUP2 DUP6 DUP6 PUSH1 0x1 PUSH1 0x0 DUP7 PUSH20 0xFFFFFFFFFFFFFFFFFFFFFFFFFFFFFFFFFFFFFFFF AND PUSH20 0xFFFFFFFFFFFFFFFFFFFFFFFFFFFFFFFFFFFFFFFF AND DUP2 MSTORE PUSH1 0x20 ADD SWAP1 DUP2 MSTORE PUSH1 0x20 ADD PUSH1 0x0 KECCAK256 PUSH1 0x0 DUP10 PUSH20 0xFFFFFFFFFFFFFFFFFFFFFFFFFFFFFFFFFFFFFFFF AND PUSH20 0xFFFFFFFFFFFFFFFFFFFFFFFFFFFFFFFFFFFFFFFF AND DUP2 MSTORE PUSH1 0x20 ADD SWAP1 DUP2 MSTORE PUSH1 0x20 ADD PUSH1 0x0 KECCAK256 SLOAD PUSH2 0x43A SWAP2 SWAP1 PUSH2 0xEAF JUMP JUMPDEST PUSH2 0x662 JUMP JUMPDEST PUSH1 0x1 SWAP2 POP POP SWAP3 SWAP2 POP POP JUMP JUMPDEST PUSH1 0x60 PUSH1 0x4 DUP1 SLOAD PUSH2 0x459 SWAP1 PUSH2 0xE4F JUMP JUMPDEST DUP1 PUSH1 0x1F ADD PUSH1 0x20 DUP1 SWAP2 DIV MUL PUSH1 0x20 ADD PUSH1 0x40 MLOAD SWAP1 DUP2 ADD PUSH1 0x40 MSTORE DUP1 SWAP3 SWAP2 SWAP1 DUP2 DUP2 MSTORE PUSH1 0x20 ADD DUP3 DUP1 SLOAD PUSH2 0x485 SWAP1 PUSH2 0xE4F JUMP JUMPDEST DUP1 ISZERO PUSH2 0x4D2 JUMPI DUP1 PUSH1 0x1F LT PUSH2 0x4A7 JUMPI PUSH2 0x100 DUP1 DUP4 SLOAD DIV MUL DUP4 MSTORE SWAP2 PUSH1 0x20 ADD SWAP2 PUSH2 0x4D2 JUMP JUMPDEST DUP3 ADD SWAP2 SWAP1 PUSH1 0x0 MSTORE PUSH1 0x20 PUSH1 0x0 KECCAK256 SWAP1 JUMPDEST DUP2 SLOAD DUP2 MSTORE SWAP1 PUSH1 0x1 ADD SWAP1 PUSH1 0x20 ADD DUP1 DUP4 GT PUSH2 0x4B5 JUMPI DUP3 SWAP1 SUB PUSH1 0x1F AND DUP3 ADD SWAP2 JUMPDEST POP POP POP POP POP SWAP1 POP SWAP1 JUMP JUMPDEST PUSH1 0x0 DUP1 CALLER SWAP1 POP PUSH1 0x0 PUSH1 0x1 PUSH1 0x0 DUP4 PUSH20 0xFFFFFFFFFFFFFFFFFFFFFFFFFFFFFFFFFFFFFFFF AND PUSH20 0xFFFFFFFFFFFFFFFFFFFFFFFFFFFFFFFFFFFFFFFF AND DUP2 MSTORE PUSH1 0x20 ADD SWAP1 DUP2 MSTORE PUSH1 0x20 ADD PUSH1 0x0 KECCAK256 PUSH1 0x0 DUP7 PUSH20 0xFFFFFFFFFFFFFFFFFFFFFFFFFFFFFFFFFFFFFFFF AND PUSH20 0xFFFFFFFFFFFFFFFFFFFFFFFFFFFFFFFFFFFFFFFF AND DUP2 MSTORE PUSH1 0x20 ADD SWAP1 DUP2 MSTORE PUSH1 0x20 ADD PUSH1 0x0 KECCAK256 SLOAD SWAP1 POP DUP4 DUP2 LT ISZERO PUSH2 0x5A6 JUMPI PUSH1 0x40 MLOAD PUSH32 0x8C379A000000000000000000000000000000000000000000000000000000000 DUP2 MSTORE PUSH1 0x4 ADD PUSH2 0x59D SWAP1 PUSH2 0xF55 JUMP JUMPDEST PUSH1 0x40 MLOAD DUP1 SWAP2 SUB SWAP1 REVERT JUMPDEST PUSH2 0x5B3 DUP3 DUP7 DUP7 DUP5 SUB PUSH2 0x662 JUMP JUMPDEST PUSH1 0x1 SWAP3 POP POP POP SWAP3 SWAP2 POP POP JUMP JUMPDEST PUSH1 0x0 DUP1 CALLER SWAP1 POP PUSH2 0x5D0 DUP2 DUP6 DUP6 PUSH2 0x8B5 JUMP JUMPDEST PUSH1 0x1 SWAP2 POP POP SWAP3 SWAP2 POP POP JUMP JUMPDEST PUSH1 0x0 PUSH1 0x1 PUSH1 0x0 DUP5 PUSH20 0xFFFFFFFFFFFFFFFFFFFFFFFFFFFFFFFFFFFFFFFF AND PUSH20 0xFFFFFFFFFFFFFFFFFFFFFFFFFFFFFFFFFFFFFFFF AND DUP2 MSTORE PUSH1 0x20 ADD SWAP1 DUP2 MSTORE PUSH1 0x20 ADD PUSH1 0x0 KECCAK256 PUSH1 0x0 DUP4 PUSH20 0xFFFFFFFFFFFFFFFFFFFFFFFFFFFFFFFFFFFFFFFF AND PUSH20 0xFFFFFFFFFFFFFFFFFFFFFFFFFFFFFFFFFFFFFFFF AND DUP2 MSTORE PUSH1 0x20 ADD SWAP1 DUP2 MSTORE PUSH1 0x20 ADD PUSH1 0x0 KECCAK256 SLOAD SWAP1 POP SWAP3 SWAP2 POP POP JUMP JUMPDEST PUSH1 0x0 PUSH20 0xFFFFFFFFFFFFFFFFFFFFFFFFFFFFFFFFFFFFFFFF AND DUP4 PUSH20 0xFFFFFFFFFFFFFFFFFFFFFFFFFFFFFFFFFFFFFFFF AND SUB PUSH2 0x6D1 JUMPI PUSH1 0x40 MLOAD PUSH32 0x8C379A000000000000000000000000000000000000000000000000000000000 DUP2 MSTORE PUSH1 0x4 ADD PUSH2 0x6C8 SWAP1 PUSH2 0xFE7 JUMP JUMPDEST PUSH1 0x40 MLOAD DUP1 SWAP2 SUB SWAP1 REVERT JUMPDEST PUSH1 0x0 PUSH20 0xFFFFFFFFFFFFFFFFFFFFFFFFFFFFFFFFFFFFFFFF AND DUP3 PUSH20 0xFFFFFFFFFFFFFFFFFFFFFFFFFFFFFFFFFFFFFFFF AND SUB PUSH2 0x740 JUMPI PUSH1 0x40 MLOAD PUSH32 0x8C379A000000000000000000000000000000000000000000000000000000000 DUP2 MSTORE PUSH1 0x4 ADD PUSH2 0x737 SWAP1 PUSH2 0x1079 JUMP JUMPDEST PUSH1 0x40 MLOAD DUP1 SWAP2 SUB SWAP1 REVERT JUMPDEST DUP1 PUSH1 0x1 PUSH1 0x0 DUP6 PUSH20 0xFFFFFFFFFFFFFFFFFFFFFFFFFFFFFFFFFFFFFFFF AND PUSH20 0xFFFFFFFFFFFFFFFFFFFFFFFFFFFFFFFFFFFFFFFF AND DUP2 MSTORE PUSH1 0x20 ADD SWAP1 DUP2 MSTORE PUSH1 0x20 ADD PUSH1 0x0 KECCAK256 PUSH1 0x0 DUP5 PUSH20 0xFFFFFFFFFFFFFFFFFFFFFFFFFFFFFFFFFFFFFFFF AND PUSH20 0xFFFFFFFFFFFFFFFFFFFFFFFFFFFFFFFFFFFFFFFF AND DUP2 MSTORE PUSH1 0x20 ADD SWAP1 DUP2 MSTORE PUSH1 0x20 ADD PUSH1 0x0 KECCAK256 DUP2 SWAP1 SSTORE POP DUP2 PUSH20 0xFFFFFFFFFFFFFFFFFFFFFFFFFFFFFFFFFFFFFFFF AND DUP4 PUSH20 0xFFFFFFFFFFFFFFFFFFFFFFFFFFFFFFFFFFFFFFFF AND PUSH32 0x8C5BE1E5EBEC7D5BD14F71427D1E84F3DD0314C0F7B2291E5B200AC8C7C3B925 DUP4 PUSH1 0x40 MLOAD PUSH2 0x81E SWAP2 SWAP1 PUSH2 0xD0E JUMP JUMPDEST PUSH1 0x40 MLOAD DUP1 SWAP2 SUB SWAP1 LOG3 POP POP POP JUMP JUMPDEST PUSH1 0x0 PUSH2 0x837 DUP5 DUP5 PUSH2 0x5DB JUMP JUMPDEST SWAP1 POP PUSH32 0xFFFFFFFFFFFFFFFFFFFFFFFFFFFFFFFFFFFFFFFFFFFFFFFFFFFFFFFFFFFFFFFF DUP2 EQ PUSH2 0x8AF JUMPI DUP2 DUP2 LT ISZERO PUSH2 0x8A3 JUMPI PUSH1 0x40 MLOAD PUSH32 0x8C379A000000000000000000000000000000000000000000000000000000000 DUP2 MSTORE PUSH1 0x4 ADD PUSH2 0x89A SWAP1 PUSH2 0x10E5 JUMP JUMPDEST PUSH1 0x40 MLOAD DUP1 SWAP2 SUB SWAP1 REVERT JUMPDEST PUSH2 0x8AE DUP5 DUP5 DUP5 PUSH2 0x662 JUMP JUMPDEST JUMPDEST POP POP POP POP JUMP JUMPDEST PUSH1 0x0 PUSH20 0xFFFFFFFFFFFFFFFFFFFFFFFFFFFFFFFFFFFFFFFF AND DUP4 PUSH20 0xFFFFFFFFFFFFFFFFFFFFFFFFFFFFFFFFFFFFFFFF AND SUB PUSH2 0x924 JUMPI PUSH1 0x40 MLOAD PUSH32 0x8C379A000000000000000000000000000000000000000000000000000000000 DUP2 MSTORE PUSH1 0x4 ADD PUSH2 0x91B SWAP1 PUSH2 0x1177 JUMP JUMPDEST PUSH1 0x40 MLOAD DUP1 SWAP2 SUB SWAP1 REVERT JUMPDEST PUSH1 0x0 PUSH20 0xFFFFFFFFFFFFFFFFFFFFFFFFFFFFFFFFFFFFFFFF AND DUP4 PUSH20 0xFFFFFFFFFFFFFFFFFFFFFFFFFFFFFFFFFFFFFFFF AND SUB PUSH2 0x993 JUMPI PUSH1 0x40 MLOAD PUSH32 0x8C379A000000000000000000000000000000000000000000000000000000000 DUP2 MSTORE PUSH1 0x4 ADD PUSH2 0x98A SWAP1 PUSH2 0x1209 JUMP JUMPDEST PUSH1 0x40 MLOAD DUP1 SWAP2 SUB SWAP1 REVERT JUMPDEST PUSH2 0x99E DUP4 DUP4 DUP4 PUSH2 0xB34 JUMP JUMPDEST PUSH1 0x0 DUP1 PUSH1 0x0 DUP6 PUSH20 0xFFFFFFFFFFFFFFFFFFFFFFFFFFFFFFFFFFFFFFFF AND PUSH20 0xFFFFFFFFFFFFFFFFFFFFFFFFFFFFFFFFFFFFFFFF AND DUP2 MSTORE PUSH1 0x20 ADD SWAP1 DUP2 MSTORE PUSH1 0x20 ADD PUSH1 0x0 KECCAK256 SLOAD SWAP1 POP DUP2 DUP2 LT ISZERO PUSH2 0xA24 JUMPI PUSH1 0x40 MLOAD PUSH32 0x8C379A000000000000000000000000000000000000000000000000000000000 DUP2 MSTORE PUSH1 0x4 ADD PUSH2 0xA1B SWAP1 PUSH2 0x129B JUMP JUMPDEST PUSH1 0x40 MLOAD DUP1 SWAP2 SUB SWAP1 REVERT JUMPDEST DUP2 DUP2 SUB PUSH1 0x0 DUP1 DUP7 PUSH20 0xFFFFFFFFFFFFFFFFFFFFFFFFFFFFFFFFFFFFFFFF AND PUSH20 0xFFFFFFFFFFFFFFFFFFFFFFFFFFFFFFFFFFFFFFFF AND DUP2 MSTORE PUSH1 0x20 ADD SWAP1 DUP2 MSTORE PUSH1 0x20 ADD PUSH1 0x0 KECCAK256 DUP2 SWAP1 SSTORE POP DUP2 PUSH1 0x0 DUP1 DUP6 PUSH20 0xFFFFFFFFFFFFFFFFFFFFFFFFFFFFFFFFFFFFFFFF AND PUSH20 0xFFFFFFFFFFFFFFFFFFFFFFFFFFFFFFFFFFFFFFFF AND DUP2 MSTORE PUSH1 0x20 ADD SWAP1 DUP2 MSTORE PUSH1 0x20 ADD PUSH1 0x0 KECCAK256 PUSH1 0x0 DUP3 DUP3 SLOAD PUSH2 0xAB7 SWAP2 SWAP1 PUSH2 0xEAF JUMP JUMPDEST SWAP3 POP POP DUP2 SWAP1 SSTORE POP DUP3 PUSH20 0xFFFFFFFFFFFFFFFFFFFFFFFFFFFFFFFFFFFFFFFF AND DUP5 PUSH20 0xFFFFFFFFFFFFFFFFFFFFFFFFFFFFFFFFFFFFFFFF AND PUSH32 0xDDF252AD1BE2C89B69C2B068FC378DAA952BA7F163C4A11628F55A4DF523B3EF DUP5 PUSH1 0x40 MLOAD PUSH2 0xB1B SWAP2 SWAP1 PUSH2 0xD0E JUMP JUMPDEST PUSH1 0x40 MLOAD DUP1 SWAP2 SUB SWAP1 LOG3 PUSH2 0xB2E DUP5 DUP5 DUP5 PUSH2 0xB39 JUMP JUMPDEST POP POP POP POP JUMP JUMPDEST POP POP POP JUMP JUMPDEST POP POP POP JUMP JUMPDEST PUSH1 0x0 DUP2 MLOAD SWAP1 POP SWAP2 SWAP1 POP JUMP JUMPDEST PUSH1 0x0 DUP3 DUP3 MSTORE PUSH1 0x20 DUP3 ADD SWAP1 POP SWAP3 SWAP2 POP POP JUMP JUMPDEST PUSH1 0x0 JUMPDEST DUP4 DUP2 LT ISZERO PUSH2 0xB78 JUMPI DUP1 DUP3 ADD MLOAD DUP2 DUP5 ADD MSTORE PUSH1 0x20 DUP2 ADD SWAP1 POP PUSH2 0xB5D JUMP JUMPDEST PUSH1 0x0 DUP5 DUP5 ADD MSTORE POP POP POP POP JUMP JUMPDEST PUSH1 0x0 PUSH1 0x1F NOT PUSH1 0x1F DUP4 ADD AND SWAP1 POP SWAP2 SWAP1 POP JUMP JUMPDEST PUSH1 0x0 PUSH2 0xBA0 DUP3 PUSH2 0xB3E JUMP JUMPDEST PUSH2 0xBAA DUP2 DUP6 PUSH2 0xB49 JUMP JUMPDEST SWAP4 POP PUSH2 0xBBA DUP2 DUP6 PUSH1 0x20 DUP7 ADD PUSH2 0xB5A JUMP JUMPDEST PUSH2 0xBC3 DUP2 PUSH2 0xB84 JUMP JUMPDEST DUP5 ADD SWAP2 POP POP SWAP3 SWAP2 POP POP JUMP JUMPDEST PUSH1 0x0 PUSH1 0x20 DUP3 ADD SWAP1 POP DUP2 DUP2 SUB PUSH1 0x0 DUP4 ADD MSTORE PUSH2 0xBE8 DUP2 DUP5 PUSH2 0xB95 JUMP JUMPDEST SWAP1 POP SWAP3 SWAP2 POP POP JUMP JUMPDEST PUSH1 0x0 DUP1 REVERT JUMPDEST PUSH1 0x0 PUSH20 0xFFFFFFFFFFFFFFFFFFFFFFFFFFFFFFFFFFFFFFFF DUP3 AND SWAP1 POP SWAP2 SWAP1 POP JUMP JUMPDEST PUSH1 0x0 PUSH2 0xC20 DUP3 PUSH2 0xBF5 JUMP JUMPDEST SWAP1 POP SWAP2 SWAP1 POP JUMP JUMPDEST PUSH2 0xC30 DUP2 PUSH2 0xC15 JUMP JUMPDEST DUP2 EQ PUSH2 0xC3B JUMPI PUSH1 0x0 DUP1 REVERT JUMPDEST POP JUMP JUMPDEST PUSH1 0x0 DUP2 CALLDATALOAD SWAP1 POP PUSH2 0xC4D DUP2 PUSH2 0xC27 JUMP JUMPDEST SWAP3 SWAP2 POP POP JUMP JUMPDEST PUSH1 0x0 DUP2 SWAP1 POP SWAP2 SWAP1 POP JUMP JUMPDEST PUSH2 0xC66 DUP2 PUSH2 0xC53 JUMP JUMPDEST DUP2 EQ PUSH2 0xC71 JUMPI PUSH1 0x0 DUP1 REVERT JUMPDEST POP JUMP JUMPDEST PUSH1 0x0 DUP2 CALLDATALOAD SWAP1 POP PUSH2 0xC83 DUP2 PUSH2 0xC5D JUMP JUMPDEST SWAP3 SWAP2 POP POP JUMP JUMPDEST PUSH1 0x0 DUP1 PUSH1 0x40 DUP4 DUP6 SUB SLT ISZERO PUSH2 0xCA0 JUMPI PUSH2 0xC9F PUSH2 0xBF0 JUMP JUMPDEST JUMPDEST PUSH1 0x0 PUSH2 0xCAE DUP6 DUP3 DUP7 ADD PUSH2 0xC3E JUMP JUMPDEST SWAP3 POP POP PUSH1 0x20 PUSH2 0xCBF DUP6 DUP3 DUP7 ADD PUSH2 0xC74 JUMP JUMPDEST SWAP2 POP POP SWAP3 POP SWAP3 SWAP1 POP JUMP JUMPDEST PUSH1 0x0 DUP2 ISZERO ISZERO SWAP1 POP SWAP2 SWAP1 POP JUMP JUMPDEST PUSH2 0xCDE DUP2 PUSH2 0xCC9 JUMP JUMPDEST DUP3 MSTORE POP POP JUMP JUMPDEST PUSH1 0x0 PUSH1 0x20 DUP3 ADD SWAP1 POP PUSH2 0xCF9 PUSH1 0x0 DUP4 ADD DUP5 PUSH2 0xCD5 JUMP JUMPDEST SWAP3 SWAP2 POP POP JUMP JUMPDEST PUSH2 0xD08 DUP2 PUSH2 0xC53 JUMP JUMPDEST DUP3 MSTORE POP POP JUMP JUMPDEST PUSH1 0x0 PUSH1 0x20 DUP3 ADD SWAP1 POP PUSH2 0xD23 PUSH1 0x0 DUP4 ADD DUP5 PUSH2 0xCFF JUMP JUMPDEST SWAP3 SWAP2 POP POP JUMP JUMPDEST PUSH1 0x0 DUP1 PUSH1 0x0 PUSH1 0x60 DUP5 DUP7 SUB SLT ISZERO PUSH2 0xD42 JUMPI PUSH2 0xD41 PUSH2 0xBF0 JUMP JUMPDEST JUMPDEST PUSH1 0x0 PUSH2 0xD50 DUP7 DUP3 DUP8 ADD PUSH2 0xC3E JUMP JUMPDEST SWAP4 POP POP PUSH1 0x20 PUSH2 0xD61 DUP7 DUP3 DUP8 ADD PUSH2 0xC3E JUMP JUMPDEST SWAP3 POP POP PUSH1 0x40 PUSH2 0xD72 DUP7 DUP3 DUP8 ADD PUSH2 0xC74 JUMP JUMPDEST SWAP2 POP POP SWAP3 POP SWAP3 POP SWAP3 JUMP JUMPDEST PUSH1 0x0 PUSH1 0xFF DUP3 AND SWAP1 POP SWAP2 SWAP1 POP JUMP JUMPDEST PUSH2 0xD92 DUP2 PUSH2 0xD7C JUMP JUMPDEST DUP3 MSTORE POP POP JUMP JUMPDEST PUSH1 0x0 PUSH1 0x20 DUP3 ADD SWAP1 POP PUSH2 0xDAD PUSH1 0x0 DUP4 ADD DUP5 PUSH2 0xD89 JUMP JUMPDEST SWAP3 SWAP2 POP POP JUMP JUMPDEST PUSH1 0x0 PUSH1 0x20 DUP3 DUP5 SUB SLT ISZERO PUSH2 0xDC9 JUMPI PUSH2 0xDC8 PUSH2 0xBF0 JUMP JUMPDEST JUMPDEST PUSH1 0x0 PUSH2 0xDD7 DUP5 DUP3 DUP6 ADD PUSH2 0xC3E JUMP JUMPDEST SWAP2 POP POP SWAP3 SWAP2 POP POP JUMP JUMPDEST PUSH1 0x0 DUP1 PUSH1 0x40 DUP4 DUP6 SUB SLT ISZERO PUSH2 0xDF7 JUMPI PUSH2 0xDF6 PUSH2 0xBF0 JUMP JUMPDEST JUMPDEST PUSH1 0x0 PUSH2 0xE05 DUP6 DUP3 DUP7 ADD PUSH2 0xC3E JUMP JUMPDEST SWAP3 POP POP PUSH1 0x20 PUSH2 0xE16 DUP6 DUP3 DUP7 ADD PUSH2 0xC3E JUMP JUMPDEST SWAP2 POP POP SWAP3 POP SWAP3 SWAP1 POP JUMP JUMPDEST PUSH32 0x4E487B7100000000000000000000000000000000000000000000000000000000 PUSH1 0x0 MSTORE PUSH1 0x22 PUSH1 0x4 MSTORE PUSH1 0x24 PUSH1 0x0 REVERT JUMPDEST PUSH1 0x0 PUSH1 0x2 DUP3 DIV SWAP1 POP PUSH1 0x1 DUP3 AND DUP1 PUSH2 0xE67 JUMPI PUSH1 0x7F DUP3 AND SWAP2 POP JUMPDEST PUSH1 0x20 DUP3 LT DUP2 SUB PUSH2 0xE7A JUMPI PUSH2 0xE79 PUSH2 0xE20 JUMP JUMPDEST JUMPDEST POP SWAP2 SWAP1 POP JUMP JUMPDEST PUSH32 0x4E487B7100000000000000000000000000000000000000000000000000000000 PUSH1 0x0 MSTORE PUSH1 0x11 PUSH1 0x4 MSTORE PUSH1 0x24 PUSH1 0x0 REVERT JUMPDEST PUSH1 0x0 PUSH2 0xEBA DUP3 PUSH2 0xC53 JUMP JUMPDEST SWAP2 POP PUSH2 0xEC5 DUP4 PUSH2 0xC53 JUMP JUMPDEST SWAP3 POP DUP3 DUP3 ADD SWAP1 POP DUP1 DUP3 GT ISZERO PUSH2 0xEDD JUMPI PUSH2 0xEDC PUSH2 0xE80 JUMP JUMPDEST JUMPDEST SWAP3 SWAP2 POP POP JUMP JUMPDEST PUSH32 0x45524332303A2064656372656173656420616C6C6F77616E63652062656C6F77 PUSH1 0x0 DUP3 ADD MSTORE PUSH32 0x207A65726F000000000000000000000000000000000000000000000000000000 PUSH1 0x20 DUP3 ADD MSTORE POP JUMP JUMPDEST PUSH1 0x0 PUSH2 0xF3F PUSH1 0x25 DUP4 PUSH2 0xB49 JUMP JUMPDEST SWAP2 POP PUSH2 0xF4A DUP3 PUSH2 0xEE3 JUMP JUMPDEST PUSH1 0x40 DUP3 ADD SWAP1 POP SWAP2 SWAP1 POP JUMP JUMPDEST PUSH1 0x0 PUSH1 0x20 DUP3 ADD SWAP1 POP DUP2 DUP2 SUB PUSH1 0x0 DUP4 ADD MSTORE PUSH2 0xF6E DUP2 PUSH2 0xF32 JUMP JUMPDEST SWAP1 POP SWAP2 SWAP1 POP JUMP JUMPDEST PUSH32 0x45524332303A20617070726F76652066726F6D20746865207A65726F20616464 PUSH1 0x0 DUP3 ADD MSTORE PUSH32 0x7265737300000000000000000000000000000000000000000000000000000000 PUSH1 0x20 DUP3 ADD MSTORE POP JUMP JUMPDEST PUSH1 0x0 PUSH2 0xFD1 PUSH1 0x24 DUP4 PUSH2 0xB49 JUMP JUMPDEST SWAP2 POP PUSH2 0xFDC DUP3 PUSH2 0xF75 JUMP JUMPDEST PUSH1 0x40 DUP3 ADD SWAP1 POP SWAP2 SWAP1 POP JUMP JUMPDEST PUSH1 0x0 PUSH1 0x20 DUP3 ADD SWAP1 POP DUP2 DUP2 SUB PUSH1 0x0 DUP4 ADD MSTORE PUSH2 0x1000 DUP2 PUSH2 0xFC4 JUMP JUMPDEST SWAP1 POP SWAP2 SWAP1 POP JUMP JUMPDEST PUSH32 0x45524332303A20617070726F766520746F20746865207A65726F206164647265 PUSH1 0x0 DUP3 ADD MSTORE PUSH32 0x7373000000000000000000000000000000000000000000000000000000000000 PUSH1 0x20 DUP3 ADD MSTORE POP JUMP JUMPDEST PUSH1 0x0 PUSH2 0x1063 PUSH1 0x22 DUP4 PUSH2 0xB49 JUMP JUMPDEST SWAP2 POP PUSH2 0x106E DUP3 PUSH2 0x1007 JUMP JUMPDEST PUSH1 0x40 DUP3 ADD SWAP1 POP SWAP2 SWAP1 POP JUMP JUMPDEST PUSH1 0x0 PUSH1 0x20 DUP3 ADD SWAP1 POP DUP2 DUP2 SUB PUSH1 0x0 DUP4 ADD MSTORE PUSH2 0x1092 DUP2 PUSH2 0x1056 JUMP JUMPDEST SWAP1 POP SWAP2 SWAP1 POP JUMP JUMPDEST PUSH32 0x45524332303A20696E73756666696369656E7420616C6C6F77616E6365000000 PUSH1 0x0 DUP3 ADD MSTORE POP JUMP JUMPDEST PUSH1 0x0 PUSH2 0x10CF PUSH1 0x1D DUP4 PUSH2 0xB49 JUMP JUMPDEST SWAP2 POP PUSH2 0x10DA DUP3 PUSH2 0x1099 JUMP JUMPDEST PUSH1 0x20 DUP3 ADD SWAP1 POP SWAP2 SWAP1 POP JUMP JUMPDEST PUSH1 0x0 PUSH1 0x20 DUP3 ADD SWAP1 POP DUP2 DUP2 SUB PUSH1 0x0 DUP4 ADD MSTORE PUSH2 0x10FE DUP2 PUSH2 0x10C2 JUMP JUMPDEST SWAP1 POP SWAP2 SWAP1 POP JUMP JUMPDEST PUSH32 0x45524332303A207472616E736665722066726F6D20746865207A65726F206164 PUSH1 0x0 DUP3 ADD MSTORE PUSH32 0x6472657373000000000000000000000000000000000000000000000000000000 PUSH1 0x20 DUP3 ADD MSTORE POP JUMP JUMPDEST PUSH1 0x0 PUSH2 0x1161 PUSH1 0x25 DUP4 PUSH2 0xB49 JUMP JUMPDEST SWAP2 POP PUSH2 0x116C DUP3 PUSH2 0x1105 JUMP JUMPDEST PUSH1 0x40 DUP3 ADD SWAP1 POP SWAP2 SWAP1 POP JUMP JUMPDEST PUSH1 0x0 PUSH1 0x20 DUP3 ADD SWAP1 POP DUP2 DUP2 SUB PUSH1 0x0 DUP4 ADD MSTORE PUSH2 0x1190 DUP2 PUSH2 0x1154 JUMP JUMPDEST SWAP1 POP SWAP2 SWAP1 POP JUMP JUMPDEST PUSH32 0x45524332303A207472616E7366657220746F20746865207A65726F2061646472 PUSH1 0x0 DUP3 ADD MSTORE PUSH32 0x6573730000000000000000000000000000000000000000000000000000000000 PUSH1 0x20 DUP3 ADD MSTORE POP JUMP JUMPDEST PUSH1 0x0 PUSH2 0x11F3 PUSH1 0x23 DUP4 PUSH2 0xB49 JUMP JUMPDEST SWAP2 POP PUSH2 0x11FE DUP3 PUSH2 0x1197 JUMP JUMPDEST PUSH1 0x40 DUP3 ADD SWAP1 POP SWAP2 SWAP1 POP JUMP JUMPDEST PUSH1 0x0 PUSH1 0x20 DUP3 ADD SWAP1 POP DUP2 DUP2 SUB PUSH1 0x0 DUP4 ADD MSTORE PUSH2 0x1222 DUP2 PUSH2 0x11E6 JUMP JUMPDEST SWAP1 POP SWAP2 SWAP1 POP JUMP JUMPDEST PUSH32 0x45524332303A207472616E7366657220616D6F756E7420657863656564732062 PUSH1 0x0 DUP3 ADD MSTORE PUSH32 0x616C616E63650000000000000000000000000000000000000000000000000000 PUSH1 0x20 DUP3 ADD MSTORE POP JUMP JUMPDEST PUSH1 0x0 PUSH2 0x1285 PUSH1 0x26 DUP4 PUSH2 0xB49 JUMP JUMPDEST SWAP2 POP PUSH2 0x1290 DUP3 PUSH2 0x1229 JUMP JUMPDEST PUSH1 0x40 DUP3 ADD SWAP1 POP SWAP2 SWAP1 POP JUMP JUMPDEST PUSH1 0x0 PUSH1 0x20 DUP3 ADD SWAP1 POP DUP2 DUP2 SUB PUSH1 0x0 DUP4 ADD MSTORE PUSH2 0x12B4 DUP2 PUSH2 0x1278 JUMP JUMPDEST SWAP1 POP SWAP2 SWAP1 POP JUMP INVALID LOG2 PUSH5 0x6970667358 0x22 SLT KECCAK256 PUSH7 0x2BDA666D2919C8 0xE5 0xA8 0xE3 PUSH6 0xA3E242297CA7 0xCC ISZERO PUSH24 0xB663C4F6FE9C577298AD4064736F6C634300081200330000 "
				},
				"gasEstimates": {
					"creation": {
						"codeDepositCost": "969800",
						"executionCost": "infinite",
						"totalCost": "infinite"
					},
					"external": {
						"allowance(address,address)": "infinite",
						"approve(address,uint256)": "infinite",
						"balanceOf(address)": "2841",
						"decimals()": "432",
						"decreaseAllowance(address,uint256)": "infinite",
						"icreaseAllowance(address,uint256)": "infinite",
						"name()": "infinite",
						"symbol()": "infinite",
						"totalSupply()": "2482",
						"transfer(address,uint256)": "infinite",
						"transferFrom(address,address,uint256)": "infinite"
					},
					"internal": {
						"_afterTokenTransfer(address,address,uint256)": "15",
						"_approve(address,address,uint256)": "infinite",
						"_beforeTokenTransfer(address,address,uint256)": "15",
						"_burn(address,uint256)": "infinite",
						"_mint(address,uint256)": "infinite",
						"_spendAllowance(address,address,uint256)": "infinite",
						"_transfer(address,address,uint256)": "infinite"
					}
				},
				"methodIdentifiers": {
					"allowance(address,address)": "dd62ed3e",
					"approve(address,uint256)": "095ea7b3",
					"balanceOf(address)": "70a08231",
					"decimals()": "313ce567",
					"decreaseAllowance(address,uint256)": "a457c2d7",
					"icreaseAllowance(address,uint256)": "93316dfd",
					"name()": "06fdde03",
					"symbol()": "95d89b41",
					"totalSupply()": "18160ddd",
					"transfer(address,uint256)": "a9059cbb",
					"transferFrom(address,address,uint256)": "23b872dd"
				}
			},
			"storageLayout": {
				"storage": [
					{
						"astId": 74,
						"contract": "contracts/ERC-20.sol:ERC20",
						"label": "_balances",
						"offset": 0,
						"slot": "0",
						"type": "t_mapping(t_address,t_uint256)"
					},
					{
						"astId": 80,
						"contract": "contracts/ERC-20.sol:ERC20",
						"label": "_allowances",
						"offset": 0,
						"slot": "1",
						"type": "t_mapping(t_address,t_mapping(t_address,t_uint256))"
					},
					{
						"astId": 82,
						"contract": "contracts/ERC-20.sol:ERC20",
						"label": "_totalSupply",
						"offset": 0,
						"slot": "2",
						"type": "t_uint256"
					},
					{
						"astId": 84,
						"contract": "contracts/ERC-20.sol:ERC20",
						"label": "_name",
						"offset": 0,
						"slot": "3",
						"type": "t_string_storage"
					},
					{
						"astId": 86,
						"contract": "contracts/ERC-20.sol:ERC20",
						"label": "_symbol",
						"offset": 0,
						"slot": "4",
						"type": "t_string_storage"
					}
				],
				"types": {
					"t_address": {
						"encoding": "inplace",
						"label": "address",
						"numberOfBytes": "20"
					},
					"t_mapping(t_address,t_mapping(t_address,t_uint256))": {
						"encoding": "mapping",
						"key": "t_address",
						"label": "mapping(address => mapping(address => uint256))",
						"numberOfBytes": "32",
						"value": "t_mapping(t_address,t_uint256)"
					},
					"t_mapping(t_address,t_uint256)": {
						"encoding": "mapping",
						"key": "t_address",
						"label": "mapping(address => uint256)",
						"numberOfBytes": "32",
						"value": "t_uint256"
					},
					"t_string_storage": {
						"encoding": "bytes",
						"label": "string",
						"numberOfBytes": "32"
					},
					"t_uint256": {
						"encoding": "inplace",
						"label": "uint256",
						"numberOfBytes": "32"
					}
				}
			},
			"userdoc": {
				"kind": "user",
				"methods": {},
				"version": 1
			}
		}
	}
}